:100000000C94D2080C9403090C9403090C94030972
:100010000C9403090C9403090C9403090C94030930
:100020000C9403090C9403090C9403090C94030920
:100030000C9403090C9403090C9403090C94030910
:100040000C9403090C9439710C9403090C94030962
:100050000C9403090C9403090C9403090C941D7966
:100060000C9403090C94997C0C94CF7C0C94030998
:100070000C9403090C9403090C9403090C940309D0
:100080000C9466710C9403090C9403090C940309F5
:100090000C94447D0C947A7D0C9403090C947C762A
:1000A0000C9403090C94716E0C9493710C940309D5
:1000B0000C9403090C94556E0C9403090C94C071B4
:1000C0000C9403090C9403090C9403090C94EF7D20
:1000D0000C94257E0C9403090C949A7E0C94D07E8B
:1000E0000C94030928352B352E3531353435373509
:1000F0003A353D35403543355C7A5F7A4E7A527AEF
:10010000587A967A637A677A6D7A717A757A7B7A99
:100110007F7A837A967A897A8D7A917A69326320A6
:10012000436F6D6D616E6420446F6E650050726F39
:10013000636573732069326320436F6D6D616E6414
:1001400000496E636F6D696E672069326300556E9A
:100150006B6E6F776E20584245453A20256C5800EB
:1001600025630052616E646F6D2E206F6F70732E69
:10017000207374696C6C20706C6179696E672061A2
:100180002066696C650052616E646F6D20536F75F7
:100190006E643A20256420736563202D2025642039
:1001A0007365632E204E6578742052616E646F6DA6
:1001B00020536F756E6420696E202564207365631B
:1001C0007300564D323A20506C61792025732D25ED
:1001D000642E6D703300564D323A20506C61792098
:1001E00025732D25642E6D703300466C7573683A47
:1001F00025632825642900466C7573683A256328B1
:100200002564290057616974696E6720666F7220E2
:10021000564D75736963004A4544492050617373B4
:1002200020546872752076342E582E20417578201F
:1002300042617564203936303000524320456E618A
:10024000626C656420282564204368616E6E656C6D
:1002500073290044697361626C656400456E616274
:100260006C6564004175746F20436F7272656374CE
:1002700020476573747572657320004E6F20693274
:1002800063206465766963657320636F6E66696772
:10029000757265640069326320232564206E6F7473
:1002A00020726573706F6E64696E670053656E646B
:1002B000696E6720726573657420746F20256420F1
:1002C000693263206465766963657300496E697499
:1002D00020693263204275730041637469766174EA
:1002E000696E67204469676974616C204F7574702A
:1002F0007574730041637469766174696E67205325
:100300006572766F7300566572626F7365204C6517
:1003100076656C3D256400446562756720466C61B6
:10032000673D256400206E6F742061737369676E8A
:1003300065640020666F756E6400476573742053B2
:10034000657120256C7500446F6D65204D6F646587
:100350003A202564004F6E004F666600526E64209E
:10036000536F756E6420004F6E004F6666004163E8
:100370006B20004175782023256400693263204496
:10038000657374202325642C20417578202325640F
:10039000200041757820232564006932632044657C
:1003A0007374202325642C20436D643D2564002054
:1003B0004F464600204F4E0020426C696E6B004451
:1003C0004F75742023256400536572766F202325B2
:1003D000643D25642C2053706565643D256400539D
:1003E00042202325642825732D25642900534220AB
:1003F000232564282573290050726F636573736920
:100400006E6720476573742023256400417578204A
:1004100023256400693263204465737420232564B6
:100420002C204175782023256420004175782023F5
:100430002564006932632044657374202325642C8D
:1004400020436D643D256400204F464600204F4EFA
:100450000020426C696E6B00444F75742023256444
:1004600000536572766F202325643D25642C20534C
:10047000706565643D25640053422023256428256A
:10048000732D2564290053422023256428257329D0
:100490000050726F63657373696E67204275747480
:1004A0006F6E20256400202825732920536572690A
:1004B000616C3A202573005375726520526F626F2C
:1004C0007469637320537465616C746820524320AF
:1004D0002D2025732E2573204275696C64202573A9
:1004E000004A32204653204F4646004A32204653A7
:1004F000204F4E004A31204653204F4646004A3195
:10050000204653204F4E004A3120565245463A2548
:10051000642D25640D0A4A3220565245463A256418
:100520002D2564007862723D256C580A0D78626C46
:100530003D256C580025640043616C6962726174EA
:10054000696E670052756E6E696E6700446F204E6B
:100550004F542072756E207768696C6520736572E0
:10056000766F7320636F6E6E656374656400426FAF
:1005700061726420494F205465737400537572652D
:1005800020592F6E3F002564005377656570202544
:100590006420206F6620350054657374696E6700AF
:1005A000446F204E4F542072756E20756E6C6573CB
:1005B00073207375726500557074696D653A256CAA
:1005C000752073656373004D656D3A256400423292
:1005D0003A200042313A200046323A200046313A71
:1005E0002000533A200050323A200050313A200087
:1005F000483A2000563A2000536176653A20003090
:10060000313A25642030323A25642030333A25646B
:100610002030343A25642030353A25642030363A8B
:100620002564200025643D42256420004A45444954
:10063000202D3E20537465616C746820427574747B
:100640006F6E733A20004A4544492050617373200D
:10065000546872752076342E582E0052656D6F7472
:100660006520436F6E736F6C6520436D64204F6E21
:100670000052656D6F746520436F6E736F6C6520FB
:100680004563686F204F6E00434820312F32204D64
:10069000697865640046616C736500547275650025
:1006A000646F6D656368363A2000646F6D657370C2
:1006B0006565647365656B3A20256400646F6D65DC
:1006C0007370656564686F6D653A20256400646FBA
:1006D0006D657365656B723A20256400646F6D65A6
:1006E0007365656B6C3A20256400646F6D65667593
:1006F0006467653A20256400646F6D656D61786498
:10070000656C61793A20256400646F6D656D696E72
:1007100064656C61793A20256400646F6D65676576
:1007200073743A2025640046616C736500547275D9
:100730006500646F6D65666C69703A2000646F6D6A
:1007400065686F6D653A20256400646F6D656D6F37
:1007500064653A2025640025643A202573004E6FB5
:100760006E65004175782053657269616C20537421
:1007700072696E6720436F6D6D616E64733A0041FC
:10078000757820496E69743A202573200041757888
:1007900020454F4C3A202564004175782044656C13
:1007A000696D697465723A2025630041757820533C
:1007B000657269616C20426175643A202564004469
:1007C000697361626C656400456E61626C656400AA
:1007D0004175746F20436F7272656374204765734F
:1007E000747572657320002C2041757820537472E3
:1007F000696E672023256400693263204175782083
:100800004F7574707574202325642C2044657374AF
:1008100020256400417578204F757470757420230D
:100820002564006932632044657374202325642C99
:1008300020436D643D2564004E4F004D4F4D004EEA
:100840004300444F7574202325642C20547970652F
:100850003D00536572766F202325642C204F6E2057
:10086000506F733D2564002C256400536F756E64D2
:100870002042616E6B2023256400256C753A2000B0
:10088000256C753A20526E6420536F756E64204F4C
:100890006E2F4F666600256C753A2041636B204FC2
:1008A0006E2F4F666600256C753A20476F20536C9B
:1008B0006F77204F6E2F4F666600476573747572B1
:1008C00065733A002C204175782023256400693235
:1008D0006320417578204F757470757420232564EA
:1008E0002C204465737420256400417578202325ED
:1008F00064006932632044657374202325642C20CE
:10090000436D643D2564004E4F004D4F4D004E43F6
:1009100000444F7574202325642C20547970653D64
:1009200000536572766F202325642C204F6E205073
:100930006F733D2564002C256400536F756E642031
:1009400042616E6B2023256400456E61626C652FE9
:1009500044697361626C6520447269766573005303
:100960006C6F772F46617374204D6F646500456E20
:1009700061626C652F44697361626C652052656DBC
:100980006F7465730025643A2000427574746F6E4D
:10099000733A004E6F6E650029002C002564002517
:1009A00064202800436F6E6669677572656420690C
:1009B000326320646576696365733A20004D79205F
:1009C00069326320416464726573733A2025640060
:1009D00020287365712900202872616E6429002522
:1009E000643A202573202825642900536F756E64AE
:1009F0002042616E6B733A20256420282564206DA7
:100A000061782900536C6F772D4D6F646500526ECD
:100A10006420536F756E642C0044697361626C6569
:100A20002C004175746F446F6D652C0047657374BD
:100A30007572652C0041636B2054797065733A20A0
:100A4000004F6666004F6E0041636B20536F756EFA
:100A500064200052616E646F6D20536F756E642068
:100A600044656C61793A202564202D202564004F6F
:100A70006666004F6E00526E6420536F756E642080
:100A800000566F6C3A202564004A3120562F4820CA
:100A900041646A7573743A25642C2564004A3156A2
:100AA0005245463A25642D2564204A325652454621
:100AB0003A25642D2564004A313A256C58204A3283
:100AC0003A256C58004C6F63616C2058423A256C93
:100AD0005800284D696E696D616C20454550524F34
:100AE0004D204D6F64652900436F6E666967200075
:100AF00052656164696E6720436F6E666967204660
:100B0000696C65004661696C736166653A202564AD
:100B1000005243204368616E6E656C733A20256411
:100B2000005325643A206D696E3D25642C206D616B
:100B3000783D25642C206E3D25642C20643D256481
:100B40002C20743D25642C20733D2564206D696E36
:100B500070756C73653D25642C206D617870756CC3
:100B600073653D2564202573200D0A004661696C7C
:100B7000736166653A20256400524320456E6162C8
:100B80006C656420282564204368616E6E656C7313
:100B900029005325643A206D696E3D25642C206D33
:100BA00061783D25642C206E3D25642C20643D2514
:100BB000642C20743D25642C20733D2564206D69D0
:100BC0006E70756C73653D25642C206D6178707551
:100BD0006C73653D2564202573200D0A00536B69F5
:100BE0007070696E670044757020476573743A20B1
:100BF000256C752E20547279696E6720746F20728F
:100C000065706C616365004475706C6963617465DF
:100C100020476573743A20256C752E2043616E273A
:100C200074207265706C6163650025643A202573D9
:100C300000496E76616C696420506172616D3A2082
:100C40002573206F6E206C696E652025642000433B
:100C5000616E2774206F70656E20434F4E46494782
:100C60002E5458542E20564D5553494332206D6F03
:100C700064756C65206E6F742072656164792E00F6
:100C800043616E2774207265616420434F4E46496C
:100C9000472E5458542E004E6F74653A2573004207
:100CA0006175643A256C7500564D2044656C617918
:100CB0003A256400426F6F742044656C61793A256F
:100CC0006400436D642054696D656F75743A256CDA
:100CD000750052656D6F7465204563686F204465CB
:100CE0006C61793A256400584220427264637374DF
:100CF0003A256400584220436D643A256400584206
:100D0000204563686F3A256400566572623A25642F
:100D10000044656275673A25640053657269616CC9
:100D20003A2573004356657273696F6E3A257300F6
:100D30004456657273696F6E3A257300496E766129
:100D40006C696420454550524F4D20636F6E666953
:100D5000670025643D4225642020004A454449201F
:100D60002D3E20537465616C746820427574746FF5
:100D70006E733A20004A31565245463A25642D2575
:100D800064204A32565245463A25642D2564004A6D
:100D9000323D256C58004A313D256C580045455080
:100DA000524F4D20636F6E74656E740D0A004C6F68
:100DB0006164696E6720636F6E6669672066726F33
:100DC0006D20454550524F4D0D0A005772697469A8
:100DD0006E6720636F6E66696720746F20454550AB
:100DE000524F4D004F6666004F6E0052656D6F7436
:100DF0006520436F6E736F6C6520436D64732000D4
:100E00004F6E004F66660052656D6F746520436FCC
:100E10006E736F6C65204563686F20004F666600D7
:100E20004F6E0052656D6F7465204563686F20409A
:100E300020426F6F7420004F6666004F6E0052654F
:100E40006D6F746520436F6E736F6C652042726FB7
:100E50006164636173742000564D322044656C6197
:100E6000793D256400566572623D256400446562E3
:100E700075673D2564004E65787420526E643A258E
:100E80006C7520736563730052616E646F6D204FE3
:100E90006E0052616E646F6D204F6666004F6E008B
:100EA0004F66660044656275672000496E76616C26
:100EB00069640074656D702072616E646F6D3D25AC
:100EC000640052616E646F6D204F666600617574D8
:100ED0006F643D256400646F6D653D256400746D2D
:100EE00070766F6C3D25642C2564004653543D2577
:100EF000640053766F3D25642C205370643D256457
:100F000000446F6E6500496E76616C6964205061C3
:100F100072616D3A2000496E746572707265746911
:100F20006E6720617320636F6E66696720636F6D03
:100F30006D616E6400446573743D25642C20436DBF
:100F4000643D25640069326320436D6420004A31AA
:100F50003A256C58204A323A256C58004C3A256C98
:100F600058204A313A256C58204A323A256C5800AC
:100F7000323D257300313D25730058002D25640056
:100F800053422023256420257300417578204F7536
:100F9000740020426C696E6B00204F464600204F63
:100FA0004E004F6E004F6666002325642C200044DF
:100FB0004F555420002325642C506F733D25642C1D
:100FC0005370643D256400536572766F200025637D
:100FD000003E2000537461727420436F6C6C656333
:100FE00074696E670053746F7020436F6C6C656337
:100FF00074696E6700204D6F646500536C6F7700F5
:1010000046617374002044726976650044697361B7
:10101000626C696E6700456E61626C696E67002084
:101020004A6F79737469636B730044697361626CAE
:10103000696E6700456E61626C696E67001B5B30AC
:101040006D001B5B356D001B5B316D001B5B346DF0
:10105000001B5B376D001B5B3F32356C001B5B3F39
:101060003235680048003B001B5B001B5B324A00C6
:101070001B630000000A0B02090C0D0E0807030495
:10108000010000000000000000000000000000005F
:10109000000000000000000000000000000000123E
:1010A000111000000000000000000000000000001F
:1010B00000000000000000000001021020200808CD
:1010C00010204010204080020102010804020101AA
:1010D0000204081020408080402010080402018093
:1010E00004020180402010080402010804020101EA
:1010F00002040810204080010204081020408005EE
:10110000050505070508080808020202020A0A0880
:1011100008040404040101010101010101030303A6
:101120000303030303040707070C0C0C0C0C0C0C43
:101130000C0202020206060606060606060B0B0B4A
:101140000B0B0B0B0B000020002300260029002CAA
:10115000002F003200000100000301060109010018
:10116000002200250028002B002E00310034000250
:10117000010000050108010B0100002100240027E7
:10118000002A002D00300033000101000004010797
:10119000010A0100A046406E8C75017DAC7D577E32
:1011A000027FDE4611241FBECFEFD1E2DEBFCDBFEE
:1011B00000E00CBF1BE0A0E0B2E0E4E1F7E101E0F9
:1011C0000BBF02C007900D92A63EB107D9F728E1E8
:1011D000A6EEBBE001C01D92AC32B207E1F711E10F
:1011E000C2EAD1E100E006C022970109FE010BBF6F
:1011F0000E940884C439D10780E00807A9F70E943B
:10120000467F0C94798B0C94000081E080935413FA
:101210000895CF93DF93EC01FB01248135810E9477
:10122000B082CE01DF91CF91089526E00C94397CF5
:10123000DC01ED91FC910190F081E02D1994CF93A8
:10124000DF93EC01FB01928183819A838B838481FC
:1012500095819D838C8386818E8388E03796DE011D
:10126000179601900D928A95E1F7FB018785908989
:10127000988B8F878189898B82898A8BCE01DF91B8
:10128000CF910895EF92FF920F931F93CF93DF9327
:10129000CDB7DEB7C359D1090FB6F894DEBF0FBE84
:1012A000CDBFFE01E356FF4F419151919F0160E890
:1012B00070E0CE0101967C010E944688B70181EB67
:1012C00095E10E94C37F80917913882309F444C07B
:1012D000009106041091070420910804309109043C
:1012E00040915613509157136091581370915913B0
:1012F000CE018F579F4F0E94646D88E0FE01EF572B
:10130000FF4FA1E7B3E101900D928A95E1F7F70154
:1013100001900020E9F79F01215031092E193F0962
:10132000A70161E773E1CE018F579F4F0E948B6D3C
:10133000BE016F577F4F8EE593E181DF6EE573E16C
:1013400084EE9EE00E94D86D60915003709151032D
:1013500080E090E00E949679CD56DF4F0FB6F8946A
:10136000DEBF0FBECDBFDF91CF911F910F91FF90D8
:10137000EF900895EF92FF920F931F93CF93DF9317
:10138000CDB7DEB7C359D1090FB6F894DEBF0FBE93
:10139000CDBFFE01E356FF4F419151919F0160E89F
:1013A00070E0CE0101967C010E947E88B70181EB3E
:1013B00095E10E94C37F80917913882309F444C08A
:1013C000009106041091070420910804309109044B
:1013D00040915613509157136091581370915913BF
:1013E000CE018F579F4F0E94646D88E0FE01EF573A
:1013F000FF4FA1E7B3E101900D928A95E1F7F70164
:1014000001900020E9F79F01215031092E193F0971
:10141000A70161E773E1CE018F579F4F0E948B6D4B
:10142000BE016F577F4F8EE593E109DF6EE573E1F3
:1014300084EE9EE00E94D86D60915003709151033C
:1014400080E090E00E949679CD56DF4F0FB6F89479
:10145000DEBF0FBECDBFDF91CF911F910F91FF90E7
:10146000EF90089589E99AE09F938F930BDF0F9097
:101470000F90089581ED9FE09F938F937BDF0F90F6
:101480000F9008950F931F938091401390914113F3
:10149000892BC9F00E946779009138131091391394
:1014A00020913A1330913B13061717072807390785
:1014B00050F4D8DFDFDF6BE97AE08CE393E11F9132
:1014C0000F910C94CB811F910F9108950F931F934F
:1014D000CF93DF9300D000D0CDB7DEB78AE89FE08E
:1014E0009F938F9347DFBEDF41E050E06CE373E1F1
:1014F000CE0101968EDEBE016F5F7F4F8CE393E1DC
:101500000E94AE81CE0101960E9432818091E70B4C
:101510009091E80B01979093E80B8093E70B0F9065
:101520000F9000E010E08091E70B9091E80B081716
:10153000190764F50832110549F1B8018CE393E10C
:101540000E947582FC0190818091F803981309C074
:101550006091F703772767FD709588E897E168DE6B
:1015600012C0B8018CE393E10E947582FC01808176
:10157000803248F0B8018CE393E10E947582FC014F
:1015800080818F37B0F00F5F1F4FCDCF6091F70391
:10159000772767FD709588E897E14ADE26960FB6B3
:1015A000F894DEBF0FBECDBFDF91CF911F910F9199
:1015B0000895B8018CE393E10E947582FC0160817B
:1015C00088E897E10E94C47FDECF8BEA9EE09F937C
:1015D0008F93D0DE0F900F9045CF4F925F926F9216
:1015E0007F928F929F92AF92BF92CF92DF92EF92B3
:1015F000FF920F931F93CF93DF93CDB7DEB72B9757
:101600000FB6F894DEBF0FBECDBF8091E70B90916F
:10161000E80B0B9709F0A2C087EC9FE09F938F9394
:10162000A9DE61E070E08CE393E10E947582FC0129
:101630008081898762E070E08CE393E10E9475828B
:10164000FC0180818A871DE01B87CE0109960E94DC
:101650007E872C0164E070E08CE393E10E94758248
:10166000FC0180818D8365E070E08CE393E10E9452
:101670007582FC0180818E8366E070E08CE393E1EB
:101680000E947582FC0180818F831887CE010596A8
:101690000E947E874C0168E070E08CE393E10E9439
:1016A0007582FC018081898369E070E08CE393E1BD
:1016B0000E947582FC0180818A836AE070E08CE37D
:1016C00093E10E947582FC0180818B831C83CE0193
:1016D00001960E947E878C019924320177249927F4
:1016E0009F938F939F928F927F926F9285EB9FE053
:1016F0009F938F933FDEB6DE602F70E080E090E036
:101700001F921F921F922FEF2F93A12CB12C6501D6
:10171000A39414E6E12EF12C00E010E021E030E08B
:1017200040E050E00E94ED80462F89EF840D0FB617
:10173000F894DEBF0FBECDBF863080F431E0631A6F
:10174000710826E0269DC001279D900D112420E000
:10175000B4018556904F0E945F7401C036DF2B960E
:101760000FB6F894DEBF0FBECDBFDF91CF911F91B2
:101770000F91FF90EF90DF90CF90BF90AF909F9030
:101780008F907F906F905F904F900895CF92DF92EF
:10179000FF920F931F93CF93DF9300D000D0CDB76C
:1017A000DEB78091E70B9091E80B059709F0C0C078
:1017B0008FEA9FE09F938F93DDDD61E070E08CE323
:1017C00093E10E947582FC0180818C8362E070E06D
:1017D0008CE393E10E947582FC0180818D83EDE0B2
:1017E000FE2EFE82CE0104960E947E878C0164E06C
:1017F00070E08CE393E10E947582FC018081898313
:1018000065E070E08CE393E10E947582FC018081C9
:101810008A83FB82CE0101960E947E876C01FF24A1
:10182000FA94F00E0F900F90F7E0FF1508F480C0C7
:1018300083E08C1508F47CC0980133273F932F93E5
:1018400029EA3FE03F932F9395DD0F900F900F9083
:101850000F90C601992781309105C1F1ACF4892B15
:1018600009F067C085EA9FE09F938F9383DDEF2D9A
:10187000F0E0EE0FFF1FE658F04F118260E085E1C7
:10188000800F0E94D07A51C08230910591F1039768
:1018900009F04FC00B5E61E0802F0E94D07A69E1B1
:1018A00070E080E090E00E94967960E0802F0E94D6
:1018B000D07A82E99FE09F938F935CDDEF2DF0E07B
:1018C000EE0FFF1FE658F04F11822FC082EA9FE013
:1018D0009F938F934FDD61E085E1800F0E94D07A66
:1018E000EF2DF0E0EE0FFF1FE658F04F81E081830F
:1018F0001CC0EF2DF0E0EE0FFF1FE658F04F918176
:1019000085E1800F911108C091E0918361E00E9410
:10191000D07A8EE99FE006C0118260E00E94D07A02
:1019200089E99FE09F938F9325DD0F900F9001C071
:101930004CDE98DD26960FB6F894DEBF0FBECDBF05
:10194000DF91CF911F910F91FF90DF90CF9008957D
:101950009F92AF92BF92CF92DF92EF92FF920F933E
:101960001F93CF93DF93CDB7DEB728970FB6F894C8
:10197000DEBF0FBECDBF8091E70B9091E80B0B97B8
:1019800009F075C065E070E08CE393E10E94758218
:10199000FC0180818D8366E070E08CE393E10E941E
:1019A0007582FC0180818E83FDE09F2E9F82CE0197
:1019B00005960E947E878C0168E070E08CE393E1DD
:1019C0000E947582FC018081898369E070E08CE36C
:1019D00093E10E947582FC0180818A836AE070E055
:1019E0008CE393E10E947582FC0180818B839C8251
:1019F000CE0101960E947E877C0199279F938F9349
:101A0000C80199279F938F9382EF9EE09F938F93B6
:101A1000B1DC28DD99249A94900E6E2D70E080E060
:101A200090E01F921F921F922FEF2F93A12CB12CA9
:101A30006501A39414E6E12EF12C00E010E021E012
:101A400030E040E050E00E94ED800FB6F894DEBF39
:101A50000FBECDBF9BE0991558F0662349F08CE08E
:101A6000989EF0011124E450F44F678301C0ADDD6E
:101A700028960FB6F894DEBF0FBECDBFDF91CF9191
:101A80001F910F91FF90EF90DF90CF90BF90AF909C
:101A90009F9008950F931F93CF93DF9300D01F92D1
:101AA0001F92CDB7DEB78091E70B9091E80B0897B6
:101AB00009F042C064E070E08CE393E10E9475821B
:101AC000FC018081898365E070E08CE393E10E94F2
:101AD0007582FC0180818A8366E070E08CE393E18B
:101AE0000E947582FC0180818B8367E070E08CE34B
:101AF00093E10E947582FC0180818C838DE08D834F
:101B0000CE0101960E947E878C011F938F938BEEEE
:101B10009EE09F938F932EDCA5DCC801805B9440F0
:101B20000F900F900F900F908930974030F41093E2
:101B300075030093740301C048DD0F900F900F9060
:101B40000F900F90DF91CF911F910F910895CF9338
:101B5000DF9300D01F92CDB7DEB78091E70B909155
:101B6000E80B0897C1F565E070E08CE393E10E9413
:101B70007582FC018081898366E070E08CE393E1EB
:101B80000E947582FC0180818A8367E070E08CE3AB
:101B900093E10E947582FC0180818B838DE08C83B0
:101BA000CE0101960E947E879C0121503109213788
:101BB000314090F490931F0480931E049F938F9361
:101BC00086ED9EE09F938F93D5DB4CDC0F900F90BA
:101BD0000F900F9001C0F9DC0F900F900F900F90B5
:101BE000DF91CF9108950F931F93CF93DF931F92AF
:101BF0001F92CDB7DEB78091E70B9091E80B079766
:101C000059F566E070E08CE393E10E947582FC0177
:101C1000808189838DE08A83CE0101960E947E8730
:101C20008C0101970397C8F41F930F938DEC9EE0EE
:101C30009F938F939FDB16DC015000938713809155
:101C400020049091210490931F0480931E040F9010
:101C50000F900F900F9001C0B8DC0F900F90DF91A4
:101C6000CF911F910F910895CF92DF92EF92FF9243
:101C70000F931F93CF93DF9300D0CDB7DEB7809142
:101C8000E70B9091E80B099709F04CC067E070E012
:101C90008CE393E10E947582FC018081898368E076
:101CA00070E08CE393E10E947582FC0180818A835D
:101CB0008DE08B83CE0101960E947E878C01009778
:101CC00051F41092C91182EC9EE09F938F9352DBE6
:101CD0000F900F9027C001978336910510F51F9341
:101CE0000F9383EB9EE09F938F9344DBBBDB0E94BB
:101CF00067796B017C0128EE33E0D8010E94F883FC
:101D0000C60ED71EE81EF91EC092B811D092B911A6
:101D1000E092BA11F092BB110F900F900F900F90BC
:101D200001C053DC0F900F900F90DF91CF911F9166
:101D30000F91FF90EF90DF90CF9008950F931F9336
:101D4000CF93DF9364E670E087EA95E10E94DD7748
:101D5000833559F565E670E087EA95E10E94DD7705
:101D6000833419F566E670E087EA95E10E94DD7735
:101D70008233D9F467E670E087EA95E10E94DD7767
:101D8000833399F40AE012E0C4E6D0E0BE0187EAAA
:101D900095E10E94DD77F80181938F012196CA3782
:101DA000F1E0DF0799F781E001C080E0DF91CF919A
:101DB0001F910F9108950F931F93CF93DF930AE024
:101DC00012E0C4E6D0E0F80141918F01BE0187EA3C
:101DD00095E10E94E0772196CA37F1E0DF0799F795
:101DE000DF91CF911F910F9108950F931F93CF9380
:101DF000DF938BEC9DE09F938F93BCDA33DB809174
:101E0000B5039091B603A091B703B091B803809346
:101E10000F0290931002A0931102B09312028091CE
:101E2000820390918303A0918403B09185038093F2
:101E3000130290931402A0931502B0931602AFEF11
:101E4000BBE0E3E9F2E00F900F9080E090E0AF019B
:101E5000435051099D0123503109E9012881EA01CC
:101E600028834F5F5F4F9D0122503109E90128818E
:101E7000EA0128834F5F5F4F9D0121503109E9013D
:101E80002881EA0128832C91208311962D913C9181
:101E90001297328321838C010450144F9C01265FDA
:101EA0003D4FA90143575F4FE8016F81EA01688305
:101EB00024573F4FE8014E81E901488315962D9143
:101EC0003C9116973683258317962D913C91189750
:101ED000308727830C961C963C968039910509F033
:101EE000B6CF8091CA11809318028091E603809347
:101EF00017028091F3039091F40390931A02809358
:101F000019028091F1039091F20390931C02809347
:101F10001B0280916A0380931D0280916B03809362
:101F20001E0280916C0380931F0280916D03809349
:101F30002002809170039091710390932702809307
:101F4000260280916E0390916F03909329028093F3
:101F5000280280918C0E90918D0E90932302809395
:101F6000220280918A0E90918B0E9093250280938D
:101F70002402809174039091750390932B028093B7
:101F80002A02DF91CF911F910F9115CF0F931F93CD
:101F9000CF93DF9360E070E087EA95E10E94DD7700
:101FA000843451F561E070E087EA95E10E94DD77C5
:101FB000823411F562E070E087EA95E10E94DD77F6
:101FC0008033D1F463E070E087EA95E10E94DD7729
:101FD000813391F400E213E0C0E0D0E0BE0187EA73
:101FE00095E10E94DD77F80181938F012196CA3433
:101FF000D105A1F781E001C080E0DF91CF911F9171
:102000000F9108950F931F93CF93DF9300E213E096
:10201000C0E0D0E0F80141918F01BE0187EA95E16F
:102020000E94E0772196CA34D105A1F7DF91CF91C4
:102030001F910F910895CF93DF93C4E6D0E040E065
:10204000BE0187EA95E10E94E0772196CA3781E0D8
:10205000D807A9F710922B0310922C0380EA9FE077
:10206000A0E0B0E080932D0390932E03A0932F0364
:10207000B093300388EC90E0A0E0B0E080933103AF
:1020800090933203A0933303B093340380E091EE36
:10209000A0E0B0E08093350390933603A09337031C
:1020A000B093380310924D0381E080934E03109259
:1020B0004F0382E390E0909351038093500380ECB0
:1020C00094EDA1E0B0E08093520390935303A0936A
:1020D0005403B093550310926A03DF91CF9192CFCE
:1020E000CF93DF931F92CDB7DEB720E233E03F936B
:1020F0002F9320E33DE03F932F9389833BD9B2D9BF
:102100002AE032E03F932F9324E23DE03F932F9368
:1021100031D9A8D925E233E03F932F932AE13DE05E
:102120003F932F9327D99ED990912B031F929F9372
:1021300021E13DE03F932F931DD994D990912C0339
:102140001F929F9329E03DE03F932F9313D98AD9A3
:1021500090914D031F929F932EEF3CE03F932F935E
:1021600009D980D990914E031F929F9324EF3CE0B0
:102170003F932F93FFD876D990914F031F929F934F
:1021800027EE3CE03F932F93F5D80FB6F894DEBFCF
:102190000FBECDBF67D9909151039F93909150038B
:1021A0009F9322ED3CE03F932F93E4D85BD990912D
:1021B00055039F93909154039F93909153039F9342
:1021C000909152039F9322EC3CE03F932F93D2D8FF
:1021D00049D9909130039F9390912F039F939091B1
:1021E0002E039F9390912D039F9324EB3CE03F930C
:1021F0002F93C0D837D9909134039F939091330394
:102200009F93909132039F93909131039F9328EA7B
:102210003CE03F932F93AED825D9909138039F93FC
:10222000909137039F93909136039F93909135033C
:102230009F932FE93CE03F932F939CD813D90FB67F
:10224000F894DEBF0FBECDBF8981813089F489E368
:1022500093E09F938F9387E99CE09F938F938AD815
:102260000F900F900F900F900F90DF91CF91FAC8C1
:102270000F90DF91CF91089590914A13292F30E06C
:10228000EBE4F3E1AF014B5453414217530724F4FD
:1022900041914813F7CF07C09F5F90934A13F9010C
:1022A000E55BFC4E808308952F923F924F925F92A0
:1022B0006F927F928F929F92AF92BF92CF92DF9256
:1022C000EF92FF920F931F93CF93DF93CDB7DEB7BB
:1022D0006C970FB6F894DEBF0FBECDBF9A8389838B
:1022E0007C836B835E834D8338872F831A870987AE
:1022F000FC86EB86DE86CD86B88AAF869A8A898A86
:102300008AA99BA99C8B8B8BECA9FDA9FE8BED8BDD
:102310008EA99FA9988F8F8B6DE370E089819A8138
:102320000E94D287FC011192AF0101900020E9F7D1
:10233000329780818A3009F410826CE270E0CA0121
:10234000498F5A8F0E94D287FC0111922F016CE2B3
:1023500070E0CF010E94D287FC0111923F016CE234
:1023600070E0CF010E94D287FC0111924F016CE214
:1023700070E0CF010E94D287FC0111929F016CE2B4
:1023800070E0CF01EB8F3C8F0E94D287FC0111924D
:102390001F016CE270E0CF010E94D287FC01119214
:1023A0005F016CE270E0CF010E94D287FC011192C4
:1023B0006F016CE270E0CF010E94D287FC011192A4
:1023C0007F016CE270E0CF010E94D287FC01119284
:1023D0008F016CE270E0CF010E94D287FC01108275
:1023E00069817A818B819C810E94E687498D5A8D13
:1023F000BA018D819E810E94E687B2018F81988506
:102400000E94E687B30189859A850E94E687B40118
:102410008B859C850E94E6872B8D3C8DB9018D852F
:102420009E850E94E687B1018F8598890E94E68784
:10243000B50189899A890E94E687B6018B899C89B2
:102440000E94E687B7018D899E890E94E687B801C0
:102450008F89988D6C960FB6F894DEBF0FBECDBFF6
:10246000DF91CF911F910F91FF90EF90DF90CF9070
:10247000BF90AF909F908F907F906F905F904F90A4
:102480003F902F900C94E6870F931F931092E30FC9
:102490000091C4111091C5112091C6113091C7113E
:1024A000601771078207930761F10091C0111091C5
:1024B000C1112091C2113091C311601771078207B9
:1024C0009307F9F000916E0F10916F0F2091700F2C
:1024D0003091710F601771078207930791F0009197
:1024E000BC111091BD112091BE113091BF11601728
:1024F00071078207930729F05091E40F40E0AEE0A6
:1025000015C09F938F937F936F9387E09CE09F9379
:102510008F930E94BA090E94320A0F900F900F9079
:102520000F900F900F9083E62CC04B2F451730F57E
:10253000B1E0B40FA49FF0011124E457F34F0181DF
:10254000128123813481061717072807390769F795
:102550004093E30F9F938F937F936F9386EE9BE05F
:102560009F938F930E94BA090E94320A0F900F9096
:102570000F900F900F900F9084E603C04093E30FED
:1025800085E61F910F9108954F925F926F927F920F
:102590008F929F92AF92BF92CF92DF92EF92FF9273
:1025A0000F931F93CF93DF93CDB7DEB7CE56D109EC
:1025B0000FB6F894DEBF0FBECDBFFC0120812332E1
:1025C00069F480912B0386FF84C78DED9BE09F9378
:1025D0008F930E94BA090F900F907BC73E01F2E4DF
:1025E0006F0E711C7F926F929E01295B3F4F3F934C
:1025F0002F932B5F3F4F3F932F932B5F3F4F49010B
:10260000FE01EA5AFF4F5F01265F3F4F69013A968C
:102610007F018E010B591F4F215F3F4FAE014F5F6E
:102620005F4FBE016D5C7F4F3FDE64EE7AE0CE010E
:10263000C3960E94DD870F900F900F900F900F9020
:102640000F90892B09F0BCC0CE0101960E947E87B5
:1026500001972C01CE0186599F4F0E947E878B35B2
:1026600048F49CE0949DF001959DF00D1124E450F8
:10267000F44F09C08CE0849DF001859DF00D11247C
:10268000E450F44F8AE58083CE018B599F4F0E941E
:102690007E878A3548F09CE0949DF001959DF00D71
:1026A0001124E450F44F09C08CE0849DF001859D15
:1026B000F00D1124E450F44F8AE58183CE01805A55
:1026C0009F4F0E947E879CE0949D4001959D900CB9
:1026D000112494012450344F4901F9018283CE0121
:1026E000855A9F4F0E947E87F4018383CE018A5AC8
:1026F0009F4F0E947E87F40195838483CE018F5A79
:102700009F4F0E947E87BC01882777FD8095982F78
:102710001F921F921F922FEF2F93A12CB12C6501B6
:10272000A39414E6E12EF12C00E010E021E030E06B
:1027300040E050E00E94ED80F40167830F900F901D
:102740000F900F902D968FAD2D97813319F481E066
:10275000868302C0F4011682CE01895B9F4F0E94DE
:102760007E872CE0249DF001259DF00D1124E4507E
:10277000F44F91878087885592408335934030F09D
:102780008091F3039091F40391878087C3010E94A5
:102790007E872CE0249DF001259DF00D1124E4504E
:1027A000F44F938782878E5096408335934008F488
:1027B00090C68091F1039091F2039387828789C636
:1027C00068EA75E0CE01C3960E94DD87892B09F087
:1027D000D7C0CE0101960E947E878C01015011095D
:1027E000093011050CF075C6CE0186599F4F0E9425
:1027F0007E878330910509F469C024F58130910505
:1028000009F448C0029709F064C68AE0809F70010D
:10281000819FF00C11249701205D314F790182E0F6
:10282000F9018083CE018B599F4F0E947E87815092
:10283000F7018483CE01805A9F4F0E947E87F70163
:10284000858385C08530910509F485C00CF461C08D
:10285000069709F03EC68AE0809F7001819FF00CC8
:1028600011249701205D314F790186E0F9018083C1
:10287000CE018B599F4F0E947E87182FF7018783C7
:10288000CE01805A9F4F0E947E87F7018187812F5A
:10289000F3DC1FC68AE0809F7001819FF00C112439
:1028A000C701805D914F7C0181E0F7018083CE01FB
:1028B0008B599F4F0E947E87F7018183CE01805AFA
:1028C0009F4F0E947E87F701828341C08AE0809FEC
:1028D0007001819FF00C11249701205D314F790127
:1028E00083E0F9018083CE018B599F4F0E947E8740
:1028F0001FEF180FF7011383CE01805A9F4F0E94DC
:102900007E87E12FF0E0EE0FFF1FE658F04F808347
:102910001EC08AE0809F7001819FF00C11249701F6
:10292000205D314F790184E0F9018083CE018B591C
:102930009F4F0E947E87182FF7018783CE01805A10
:102940009F4F0E947E87F7018087812F95DCCE0103
:10295000855A9F4F10C08AE0809F7001819FF00CC4
:1029600011249701205D314F790185E0F9018083C1
:10297000CE018B599F4F0E947E87F7018187A9C5A1
:1029800067E374E0CE01C3960E94DD87892B71F561
:10299000F0903513F4E1FF1548F122E1F29E800139
:1029A0001124BE016F5F7F4FC80181539E4E0E946C
:1029B000E687CE0186599F4F0E947E8703531E4EA5
:1029C000F801808364EE7AE0CE018B599F4F0E941C
:1029D000DD87892B29F481E0F8018183858702C096
:1029E000F8011182F394F092351373C56AE374E031
:1029F000CE01C3960E94DD87892B91F4809123102C
:102A00008B3070F491E0980F90932310F8E28F9F31
:102A1000C0011124BE016F5F7F4F8C5D9F4EF6C4D5
:102A20006CE374E0CE01C3960E94DD87892B09F028
:102A3000D5C04AE050E060E070E0CE0101960E940F
:102A40006D866B017C0120DD982E25E6821305C082
:102A50008091E40F8093E30F04C033E6831709F4F9
:102A600038C58091E40F8E3108F033C50091E30F33
:102A70002EE0822E809E800111240457134FF8010E
:102A8000C182D282E382F482CE0186599F4F0E9496
:102A90007E878330910509F450C034F4813091056C
:102AA00009F1029789F191C08530910509F483C03D
:102AB0000CF460C0069709F088C086E0F8018083B6
:102AC000CE018B599F4F0E947E87F82EF801838795
:102AD000CE01805A9F4F0E947E87F80185878F2DF7
:102AE000CBDB73C081E0F8018083CE018B599F4F0F
:102AF0000E947E87F8018583CE01805A9F4F0E94F5
:102B00007E87F801868332C082E0F8018083CE019F
:102B10008B599F4F0E947E878150F8018087CE019C
:102B2000805A9F4F0E947E87F80181876C968FADF7
:102B30006C97882309F449C019C083E0F8018083A9
:102B4000CE018B599F4F0E947E87FF24FA94F80E86
:102B5000F801F782CE01805A9F4F0E947E87EF2DA9
:102B6000F0E0EE0FFF1FE658F04F8083CE01855A4C
:102B70009F4F27C084E0F8018083CE018B599F4F7F
:102B80000E947E87F82EF8018387CE01805A9F4FDE
:102B90000E947E87F80184878F2D6EDBCE01855AD7
:102BA0009F4F0E947E87E091E30F8E9EF0011124DB
:102BB000E457F34F09C085E0F8018083CE018B59BB
:102BC0009F4F0E947E87F8018587F5E69F1281C49A
:102BD0008091E40F8F5F8093E40F7BC46EE374E019
:102BE000CE01C3960E94DD87892B79F4CE01019630
:102BF0000E947E8794E6292F281B20930104253606
:102C000008F467C49093010464C465E474E0CE01E1
:102C1000C3960E94DD87892B39F4CE0101960E946C
:102C20007E878093E60355C46FE474E0CE01C396BB
:102C30000E94DD87892B49F4CE0101960E947E8790
:102C40009093FF038093FE0344C460E774E0CE01D9
:102C5000C3960E94DD87892B69F4CE0101960E94FC
:102C60007E879093FD038093FC03909337138093AA
:102C700036132FC46BE474E0CE01C3960E94DD8747
:102C8000892B39F4CE0101960E947E8780932C0413
:102C900020C468E574E0CE01C3960E94DD87892BCD
:102CA00049F4CE0101960E947E879093310480936F
:102CB00030040FC462E674E0CE01C3960E94DD8743
:102CC000892B49F4CE0101960E947E8790932F04B0
:102CD00080932E04FEC36CE674E0CE01C3960E947E
:102CE000DD87892B39F4CE0101960E947E8780937F
:102CF0002B04CEC069E774E0CE01C3960E94DD8745
:102D0000892B69F4CE0101960E947E8781508093C1
:102D10008713833008F4DDC310928713DAC362E8A7
:102D200074E0CE01C3960E94DD87892B89F4CE0121
:102D300001960E947E879093290480932804893607
:102D4000914008F4C6C31092290410922804C1C30C
:102D50006CE874E0CE01C3960E94DD87892B89F46C
:102D6000CE0101960E947E879093270480932604CB
:102D70008936914008F4ADC31092270410922604BE
:102D8000A8C366E974E0CE01C3960E94DD87892B53
:102D900089F4CE0101960E947E879093230480934C
:102DA00022048936914008F494C3109223041092AF
:102DB00022048FC364EA74E0CE01C3960E94DD87CB
:102DC000892B49F4CE0101960E947E8790932504B9
:102DD000809324047EC362EB74E0CE01C3960E940C
:102DE000DD87892BA1F4CE0101960E947E87809316
:102DF0002D048091280490912904C3970CF469C391
:102E000085E090E0909329048093280462C36CEBE2
:102E100074E0CE01C3960E94DD87892B89F44AE0D5
:102E200050E060E070E0CE0101960E946D866093F4
:102E3000BC117093BD118093BE119093BF1149C313
:102E400065EC74E0CE01C3960E94DD87892B69F49E
:102E5000CE0101960E947E879093210480932004E6
:102E600090931F0480931E0434C36EEC74E0CE0173
:102E7000C3960E94DD87892B71F48981893721F4FB
:102E800081E080937B1325C310927B1380912B04E8
:102E900080932A041EC366ED74E0CE01C3960E949F
:102EA000DD87892B51F48981893721F481E0809372
:102EB0007A130FC310927A130CC36FED74E0CE0136
:102EC000C3960E94DD87892B39F4CE0101960E94BA
:102ED0007E8780935513FDC265EE74E0CE01C396E4
:102EE0000E94DD87892B41F06DEE74E0CE01C39620
:102EF0000E94DD87892B89F44AE050E060E070E0B1
:102F0000CE0101960E946D866093C0117093C1112D
:102F10008093C2119093C311DCC261EF74E0CE01C3
:102F2000C3960E94DD87892B09F047C01092CC110F
:102F300067E670E0CE0101960E94D287892B19F0D6
:102F400081E08093CC1161E670E0CE0101960E9491
:102F5000D287892B31F08091CC1192E08927809320
:102F6000CC1164E670E0CE0101960E94D287892BD5
:102F700031F08091CC1194E089278093CC1163E7E4
:102F800070E0CE0101960E94D287892B31F08091AA
:102F9000CC1190E189278093CC1162E770E0CE01DB
:102FA00001960E94D287892B09F493C28091CC119B
:102FB00098E089278093CC118CC269EF74E0CE0130
:102FC000C3960E94DD87892B51F48981893721F4CA
:102FD00081E08093C8117DC21092C8117AC26FEF50
:102FE00074E0CE01C3960E94DD87892B89F44AE004
:102FF00050E060E070E0CE0101960E946D86609323
:103000006E0F70936F0F8093700F9093710F61C26A
:1030100068E075E0CE01C3960E94DD87892B89F4B4
:10302000CE0101960E947E87AA2797FDA095BA2F10
:103030008093C4119093C511A093C611B093C7118A
:1030400048C26CE075E0CE01C3960E94DD87892BF3
:1030500051F48981893721F481E08093C91139C203
:103060001092C91136C262E175E0CE01C3960E948A
:10307000DD87892B51F48981893721F481E08093A0
:10308000CB1127C21092CB1124C26AE175E0CE01A8
:10309000C3960E94DD87892B51F48981893721F4F9
:1030A00081E08093CA1115C21092CA1112C260E267
:1030B00075E0CE01C3960E94DD87892B89F440E13B
:1030C00050E060E070E0CE0101960E946D86609352
:1030D000B5037093B6038093B7039093B803F9C117
:1030E00064E275E0CE01C3960E94DD87892B89F4E6
:1030F00040E150E060E070E0CE0101960E946D86F4
:103100006093820370938303809384039093850379
:10311000E0C168E275E0CE01C3960E94DD87892B8D
:1031200061F4CE0101960E947E878093E50381358C
:1031300008F4CFC11092E503CCC16FE275E0CE0177
:10314000C3960E94DD87892B61F4CE0101960E940F
:103150007E878093E403813508F4BBC11092E403B9
:10316000B8C166E375E0CE01C3960E94DD87892B66
:1031700051F48981893721F481E08093720FA9C1CC
:103180001092720FA6C16DE375E0CE01C3960E9446
:10319000DD87892BA9F4CE0101960E947E8790934A
:1031A0008D0E80938C0E209170033091710328173F
:1031B000390708F08EC110928D0E10928C0E89C1C5
:1031C00064E475E0CE01C3960E94DD87892BA9F4E3
:1031D000CE0101960E947E879093710380937003C5
:1031E000845893408C37910508F473C18FEF93E0B6
:1031F00090937103809370036CC16BE475E0CE0112
:10320000C3960E94DD87892BA9F4CE0101960E9406
:103210007E8790938B0E80938A0E20916E0330915F
:103220006F032817390708F054C110928B0E1092C3
:103230008A0E4FC162E575E0CE01C3960E94DD871C
:10324000892BA9F4CE0101960E947E8790936F038B
:1032500080936E03845893408C37910508F439C1EC
:103260008FEF93E090936F0380936E0332C169E513
:1032700075E0CE01C3960E94DD87892BA9F4CE01AB
:1032800001960E947E879093750380937403805B00
:1032900094408930974008F41CC18CED95E09093E0
:1032A00075038093740315C16DE575E0CE01C39677
:1032B0000E94DD87892B41F48981893709F009C192
:1032C00081E080934E0305C162E675E0CE01C396AE
:1032D0000E94DD87892B49F4CE0101960E947E87EA
:1032E0009093E8038093E703F4C066E675E0CE01AF
:1032F000C3960E94DD87892B49F4CE0101960E9476
:103300007E879093EA038093E903E3C06AE675E061
:10331000CE01C3960E94DD87892B49F4CE01019628
:103320000E947E879093EC038093EB03D2C06EE6FD
:1033300075E0CE01C3960E94DD87892B49F4CE014A
:1033400001960E947E879093F0038093EF03C1C0A3
:1033500065E775E0CE01C3960E94DD87892B49F4AD
:10336000CE0101960E947E879093EE038093ED0339
:10337000B0C06BE775E0CE01C3960E94DD87892B54
:1033800041F48981893709F0A4C081E08093521308
:10339000A0C06FE775E0CE01C3960E94DD87892B40
:1033A00051F48981893721F481E08093F60391C03B
:1033B0001092F6038EC064E875E0CE01C3960E94B9
:1033C000DD87892BB1F4CE0101960E947E87AC0186
:1033D000662757FD6095762F4093190450931A0481
:1033E00060931B0470931C0488E897E10E94150900
:1033F00070C06CE875E0CE01C3960E94DD87892B12
:1034000041F4BE016F5F7F4F81EF9FE00E94E6872E
:1034100060C064E975E0CE01C3960E94DD87892B08
:1034200021F489818093F80354C06DE975E0CE01E1
:10343000C3960E94DD87892B39F4CE0101960E9444
:103440007E878093F70345C064EA75E0CE01C3969A
:103450000E94DD87892BB9F48981893711F485E0D1
:103460000CC08B3619F41092780F33C0833711F4E7
:1034700081E003C0843621F483E08093780F29C073
:10348000823689F7ECCF67EA75E0CE01C3960E94D9
:10349000DD87892BE1F4CE0101960E947E8780931F
:1034A0006A03CE0186599F4F0E947E8780936B03EB
:1034B000CE018B599F4F0E947E8780936C03CE0173
:1034C000805A9F4F0E947E8780936D0302C081E0E7
:1034D00001C080E0C259DF4F0FB6F894DEBF0FBEC7
:1034E000CDBFDF91CF911F910F91FF90EF90DF90B3
:1034F000CF90BF90AF909F908F907F906F905F9094
:103500004F9008953F924F925F926F927F928F9269
:103510009F92AF92BF92CF92DF92EF92FF920F9362
:103520001F93CF93DF93C3E0DCE0ACEF6A2EABE0F8
:103530007A2E812C912CB4E63B2E12E9412E1BE011
:10354000512E688170E080E090E01F921F921F92E0
:103550003F92A12CB12C6501A394E12CF12C8701A1
:10356000EA9421E030E040E050E00E94ED809B01D1
:10357000AB01425051090F900F900F900F904236BF
:10358000510510F42F5F3F4FFE0131978081882352
:1035900019F08AEA95E002C08BE99AE04FEF841AAD
:1035A000940A9F938F938C818F938B818F938A81C1
:1035B0008F9389818F933F932F93F30185818F930D
:1035C00084818F93FE01349780811F928F9331976E
:1035D00080811F928F93319780811F928F93F30187
:1035E00080811F928F939F928F925F924F920E9441
:1035F000BA092C96FCE06F0E711C8DB79EB74696EB
:103600000FB6F8949EBF0FBE8DBF9CE08916910443
:1036100009F097CF8091790F882381F08091E6039C
:103620001F928F9389E79BE09F938F930E94BA0923
:103630000E94320A0F900F900F900F9080917503A7
:103640008F93809174038F938CE69BE09F938F936D
:103650000E94BA090F900F900F900F90DF91CF91B9
:103660001F910F91FF90EF90DF90CF90BF90AF90A0
:103670009F908F907F906F905F904F903F900C94B1
:10368000320A3F924F925F926F927F928F929F92F7
:10369000AF92BF92CF92DF92EF92FF920F931F9360
:1036A000CF93DF93C7E9D2E033E9632E32E0732E84
:1036B000812C912C44E6342E51E2452E5BE0552EB0
:1036C000688170E080E090E01F921F921F923F920D
:1036D000A12CB12C6501A394E12CF12C8701EA9473
:1036E00021E030E040E050E00E94ED809B01AB0122
:1036F000425051090F900F900F900F904236510594
:1037000010F42F5F3F4FFE0131978081882319F01D
:103710008AEA95E002C08BE99AE04FEF841A940A96
:103720009F938F938C818F938B818F938A818F93BB
:1037300089818F933F932F93F30182818F938181AE
:103740008F9380811F928F93FE01359780811F9206
:103750008F93319780811F928F93319780811F9231
:103760008F939F928F925F924F920E94BA092C96EC
:10377000FCE06F0E711C8DB79EB746960FB6F8949D
:103780009EBF0FBE8DBF9CE08916910409F098CFB3
:103790008091790F882381F0809117021F928F9377
:1037A00081E19BE09F938F930E94BA090E94320AA5
:1037B0000F900F900F900F9080912B028F9380911C
:1037C0002A028F9384E09BE09F938F930E94BA0913
:1037D0000F900F900F900F90DF91CF911F910F914D
:1037E000FF90EF90DF90CF90BF90AF909F908F9021
:1037F0007F906F905F904F903F900C94320ACF92E1
:10380000DF92EF92FF920F931F93CF93DF93182FC6
:10381000062F882319F08EEA9DE002C08DE99DE015
:103820009F938F930E94BA090F900F900E949E0E53
:10383000882309F442C1112309F470C040910F029A
:103840005091100260911102709112024093B503E1
:103850005093B6036093B7037093B803409113027B
:1038600050911402609115027091160240938203E8
:1038700050938303609384037093850380911802AF
:103880008093CA11809117028093E60380911902F8
:1038900090911A029093F4038093F30380911B029A
:1038A00090911C029093F2038093F10380911D028A
:1038B00080936A0380911E0280936B0380911F02A4
:1038C00080936C038091200280936D038091260287
:1038D0009091270290937103809370038091280246
:1038E0009091290290936F0380936E03809122023E
:1038F0009091230290938D0E80938C0E80912402E0
:103900009091250290938B0E80938A0E80912A02CB
:1039100090912B02909375038093740301117DC0E5
:10392000809112028F93809111028F9380911002E7
:103930008F9380910F028F9386E99DE09F938F93E1
:103940000E94BA090E94320A809116028F938091D8
:1039500015028F93809114028F93809113028F939D
:103960008FE89DE09F938F930E94BA090E94320ACC
:10397000809129028F93809128028F938091250254
:103980008F93809124028F93809127028F9380914F
:1039900026028F93809123028F93809122028F932E
:1039A00085E79DE09F938F930E94BA090E94320A97
:1039B0008DB79EB746960FB6F8949EBF0FBE8DBFCB
:1039C00080916D0F882349F18BE59DE09F938F9344
:1039D0000E94BA096DE1C62E62E0D62E0F900F90BC
:1039E000C0E0D0E072E5E72E7DE0F72EF601819190
:1039F0006F0121961F928F93DF93CF93FF92EF92E7
:103A00000E94BA090F900F900F900F900F900F9097
:103A1000C430D10559F70E94320AA3E9B2E0EFEFB2
:103A2000FBE020E030E01123C1F1ED012397888114
:103A3000EF0123978883ED0122978881EF01229778
:103A40008883ED0121978881EF01219788838C91EC
:103A5000808311968D919C91129792838183C901E5
:103A6000865F9D4FEC01C457DF4F4881B901645018
:103A7000744FEB014E8383579F4FEC018881EB011C
:103A80008F8315968D919C911697968385831796B3
:103A90008D919C91189790878783245F3F4F1C9648
:103AA0003C962039310509F0BECF011112C0112317
:103AB00011F028DD0EC0E5DD0CC08CE39DE09F9386
:103AC0008F930E94BA090E94320A0F900F9080E0F3
:103AD00001C081E0DF91CF911F910F91FF90EF9096
:103AE000DF90CF900895CF93DF93EFEFFBE0A3E05B
:103AF000BCE074EB6AE556E041E328EE33E080ED8C
:103B000097E0EF01239718822196788321966883A6
:103B10005083128211824C93ED01219718823683D3
:103B20002583908787833C961C96CCE0EF38FC0772
:103B300041F7EBE7FFE0DF0111971C92108232960C
:103B40008FE0EB38F807B9F7DF91CF910895AF9286
:103B5000BF92CF92DF92EF92FF920F931F93CF937A
:103B6000DF93C0905A13D0905B13E0905C13F090F9
:103B70005D130E9467796C157D058E059F0508F41D
:103B800055C00E94677968517C4F8F4F9F4F60935B
:103B90005A1370935B1380935C1390935D1389EBBE
:103BA0009FE00E941474B82EA92E83EB9FE00E9420
:103BB0001474182F092F8DEA9FE00E941474EC01F1
:103BC00087EA9FE00E941474D82EC92E81EA9FE0F4
:103BD0000E941474F82EE92E8BE99FE00E94147461
:103BE000AF92BF920F931F93DF93CF93CF92DF9249
:103BF000EF92FF929F938F938FEF95E09F938F9318
:103C00000E94BA098DB79EB70E960FB6F8949EBF64
:103C10000FBE8DBFDF91CF911F910F91FF90EF905D
:103C2000DF90CF90BF90AF900C94320ADF91CF918C
:103C30001F910F91FF90EF90DF90CF90BF90AF90CA
:103C40000895FF920F931F93CF93DF9389EE9BE02C
:103C50000E94337860E089EE9BE00E946D784EE32D
:103C600060E089EE9BE00E943F786EEA75E089EEA5
:103C70009BE00E94C37F4EE361E089EE9BE00E94DF
:103C80003F7861EC75E089EE9BE00E94C37F6DE3B5
:103C900076E089EE9BE00E94C37F6AEE7AE089EECF
:103CA0009BE00E94C37F62EB76E089EE9BE00E947E
:103CB000C37F6AEE7AE089EE9BE00E94C37F6DECE1
:103CC00075E089EE9BE00E94C37F4EE362E089EEDF
:103CD0009BE00E943F786EEA75E089EE9BE00E94CF
:103CE000C37F40E060E089EE9BE00E943F7860E0A7
:103CF00089EE9BE00E94F07861E089EE9BE00E94F3
:103D0000F07860ED75E089EE9BE00E94C37F12E0E1
:103D1000D1E00D2FC0E04C2F612F89EE9BE00E9477
:103D20003F78FF24F394F00E4AE050E0602F89EED4
:103D30009BE00E949E806CE176E089EE9BE00E9411
:103D4000C37FC75FC43211F00F2DE5CFDC5F1F5F6B
:103D5000DD30F9F661E089EE9BE00E94F07840E00A
:103D600066E089EE9BE00E943F786EED75E089EE9B
:103D70009BE00E94C37FC0E0D1E04C2F68E089EE59
:103D80009BE00E943F7811E01D0F4AE050E06D2F4C
:103D900089EE9BE00E949E806CE176E089EE9BE0DC
:103DA0000E94C37FCA5F193011F0D12FE6CF40E0E7
:103DB0006AE089EE9BE00E943F786BEE75E089EE49
:103DC0009BE00E94C37F4AE06AE089EE9BE00E948C
:103DD0003F7860EF75E089EE9BE00E94C37F40E092
:103DE0006BE089EE9BE00E943F786EEF75E089EE14
:103DF0009BE00E94C37F4AE06BE089EE9BE00E945B
:103E00003F7864E076E089EE9BE00E94C37F60E04B
:103E100089EE9BE00E94F07840E06FE089EE9BE045
:103E2000DF91CF911F910F91FF900C943F78CF932A
:103E3000DF93C82F40E0682F89EE9BE00E943F7817
:103E400060E089EE9BE00E94F07861E089EE9BE003
:103E50000E94F0784091CD0E5091CE0E6091CF0E21
:103E60007091D00E20E130E089EE9BE00E949280BC
:103E7000D1E0DC0F40E06D2F89EE9BE00E943F789F
:103E800061E089EE9BE00E94F07864EF75E089EED6
:103E90009BE00E94907F60E089EE9BE00E94F078BA
:103EA0006091940E7091950E4AE050E089EE9BE08F
:103EB0000E948B8069E077E089EE9BE00E94C37FDF
:103EC0004AE06D2F89EE9BE00E943F7861E089EE29
:103ED0009BE00E94F07860EF75E089EE9BE00E9425
:103EE000907F60E089EE9BE00E94F0786091920EF6
:103EF0007091930E4AE050E089EE9BE00E948B8027
:103F000069E077E089EE9BE00E94C37F44E16D2F7A
:103F100089EE9BE00E943F7861E089EE9BE00E9481
:103F2000F0786BEE75E089EE9BE00E94907F60E098
:103F300089EE9BE00E94F0786091900E7091910E56
:103F40004AE050E089EE9BE00E948B8069E077E0D8
:103F500089EE9BE00E94C37F4EE16D2F89EE9BE0CE
:103F60000E943F7861E089EE9BE00E94F07866EE67
:103F700075E089EE9BE00E94907F60E089EE9BE017
:103F80000E94F07860918E0E70918F0E4AE050E0A2
:103F900089EE9BE00E948B8069E077E089EE9BE0F0
:103FA0000E94C37FCE5F40E06C2F89EE9BE00E94B1
:103FB0003F7861E089EE9BE00E94F07862EE75E068
:103FC00089EE9BE00E94907F60E089EE9BE00E947A
:103FD000F0784AE050E060919A0E89EE9BE00E94F2
:103FE0009E804AE06C2F89EE9BE00E943F7861E062
:103FF00089EE9BE00E94F0786DED75E089EE9BE024
:104000000E94907F60E089EE9BE00E94F0784AE099
:1040100050E06091990E89EE9BE00E949E8044E101
:104020006C2F89EE9BE00E943F7861E089EE9BE077
:104030000E94F07868ED75E089EE9BE00E94907F29
:1040400060E089EE9BE00E94F0784AE050E06091E9
:10405000980E89EE9BE00E949E804EE16C2F89EEC7
:104060009BE00E943F7861E089EE9BE00E94F0783F
:1040700063ED75E089EE9BE00E94907F60E089EE41
:104080009BE00E94F0784AE050E06091970E89EE44
:104090009BE00E949E8048E26C2F89EE9BE00E948C
:1040A0003F7861E089EE9BE00E94F0786EEC75E06D
:1040B00089EE9BE00E94907F60E089EE9BE00E9489
:1040C000F0784AE050E06091960E89EE9BE00E9405
:1040D0009E804091CD0E5091CE0E6091CF0E70918A
:1040E000D00E8091B5039091B603A091B703B09123
:1040F000B803481759076A077B0709F040C040E03A
:104100006EE089EE9BE00E943F7861E176E089EE07
:104110009BE00E94C37F4091B5035091B60360912C
:10412000B7037091B80320E130E089EE9BE00E9474
:10413000928040E060E189EE9BE00E943F7866E17A
:1041400076E089EE9BE00E94C37F60918C0E7091B7
:104150008D0E4AE050E089EE9BE00E94A4806EE163
:1041600076E089EE9BE00E94C37F609170037091BE
:1041700071034AE050E089EE9BE00E94A4804091E8
:10418000CD0E5091CE0E6091CF0E7091D00E8091D9
:10419000820390918303A0918403B0918503481713
:1041A00059076A077B0709F042C040E06FE089EEDB
:1041B0009BE00E943F7860E276E089EE9BE00E94FF
:1041C000C37F409182035091830360918403709177
:1041D000850320E130E089EE9BE00E94928040E080
:1041E00061E189EE9BE00E943F7865E276E089EE2E
:1041F0009BE00E94C37F60918A0E70918B0E4AE013
:1042000050E089EE9BE00E94A4806EE176E089EEAA
:104210009BE00E94C37F60916E0370916F034AE040
:1042200050E089EE9BE0DF91CF910C94A480DF9168
:10423000CF910895AF92BF92CF92DF92EF92FF920B
:104240000F931F93CF93DF93C82FD62F84EE9EE05A
:104250000E94AD6C0E94916A823909F053C384EECA
:104260009EE00E94AD6C63ED7EE00E94AF6B81ED3D
:104270009EE00E94D66A0E94786D6093CD0E709386
:10428000CE0E8093CF0E9093D00E60E081ED9EE035
:104290000E945F6B9093A20E8093A10E61E081ED6E
:1042A0009EE00E945F6B9093A00E80939F0E62E051
:1042B00081ED9EE00E945F6B90939E0E80939D0E19
:1042C00063E081ED9EE00E945F6B90939C0E809373
:1042D0009B0E64E081ED9EE00E949B6B80939A0EA2
:1042E00065E081ED9EE00E949B6B8093990E66E0F5
:1042F00081ED9EE00E949B6B8093980E6AE081EDB9
:104300009EE00E949B6B8093970E6BE081ED9EE098
:104310000E949B6B8093960E0091B5031091B6039B
:104320002091B7033091B8034091CD0E5091CE0E3D
:104330006091CF0E7091D00E012B022B032B41F414
:104340004093B5035093B6036093B7037093B803DB
:10435000C0908203D0908303E0908403F0908503A3
:104360000091B5031091B6032091B7033091B803C3
:10437000CD28CE28CF2869F440175107620773076C
:1043800041F04093820350938303609384037093BE
:104390008503401751076207730709F04EC160910A
:1043A000A10E7091A20ED13009F46BC0D23009F485
:1043B000EEC0882777FD8095982F1F921F921F923D
:1043C0001F92D4EBAD2EB12CC12CD12CEE24EA944B
:1043D00013E0F12E00E010E020E030E0A9010E949F
:1043E000ED807093950E6093940E60919F0E709186
:1043F000A00E882777FD8095982F1F921F921F92FD
:104400001F9220E030E0A9010E94ED807093930E8E
:104410006093920E60919D0E70919E0E882777FD9D
:104420008095982F1F921F921F921F9220E030E0DC
:10443000A9010E94ED807093910E6093900E60919F
:104440009B0E70919C0E882777FD8095982F1F9268
:104450001F921F9224EB2F93A12CB12C650120E019
:1044600030E0A9010E94ED8070938F0E60938E0E54
:104470008DB79EB740960FB6F8949EBF0FBE8DBF06
:10448000A2C0E0907003F090710300E010E0209172
:104490008C0E30918D0E40E050E0882777FD80959E
:1044A000982F1F921F921F921F92B4EBAB2EB12C2C
:1044B000C12CD12C0E94ED807093950E6093940EC8
:1044C000E0907003F090710300E010E020918C0EFA
:1044D00030918D0E40E050E060919F0E7091A00EE3
:1044E000882777FD8095982F1F921F921F921F9209
:1044F0000E94ED807093930E6093920EE090700393
:10450000F090710300E010E020918C0E30918D0E40
:1045100040E050E060919D0E70919E0E882777FDDF
:104520008095982F1F921F921F921F920E94ED80DC
:104530007093910E6093900EE0907003F090710371
:1045400000E010E020918C0E30918D0E40E050E0A4
:1045500060919B0E70919C0E882777FD8095982F17
:104560001F921F921F92E4EBEF93A12CB12C6501D7
:104570000E94ED8070938F0E60938E0E8DB79EB764
:1045800040960FB6F8949EBF0FBE8DBF1CC07093AF
:10459000950E6093940E80919F0E9091A00E909333
:1045A000930E8093920E80919D0E90919E0E90930B
:1045B000910E8093900E80919B0E90919C0E909303
:1045C0008F0E80938E0E2091A10E3091A20E8091BD
:1045D0007003909171038217930720F43093710355
:1045E0002093700380919F0E9091A00E40917003D4
:1045F000509171034817590720F4909371038093E9
:10460000700340918C0E50918D0E2417350720F4C5
:1046100030938D0E20938C0E20918C0E30918D0E48
:104620008217930720F490938D0E80938C0ECC23E9
:1046300009F468C182E090E05AC1009182031091B0
:10464000830320918403309185034017510762074B
:10465000730709F057C16091A10E7091A20ED1307D
:1046600009F46BC0D23009F4EEC0882777FD80953D
:10467000982F1F921F921F921F92F4EBAF2EB12C16
:10468000C12CD12CEE24EA9413E0F12E00E010E0CE
:1046900020E030E0A9010E94ED807093950E6093B8
:1046A000940E60919F0E7091A00E882777FD8095E3
:1046B000982F1F921F921F921F9220E030E0A901B5
:1046C0000E94ED807093930E6093920E60919D0E08
:1046D00070919E0E882777FD8095982F1F921F92CC
:1046E0001F921F9220E030E0A9010E94ED8070939C
:1046F000910E6093900E60919B0E70919C0E882796
:1047000077FD8095982F1F921F921F9224EB2F9375
:10471000A12CB12C650120E030E0A9010E94ED80C0
:1047200070938F0E60938E0E8DB79EB740960FB626
:10473000F8949EBF0FBE8DBFA2C0E0906E03F090B4
:104740006F0300E010E020918A0E30918B0E40E064
:1047500050E0882777FD8095982F1F921F921F9217
:104760001F92E4EBAE2EB12CC12CD12C0E94ED8017
:104770007093950E6093940EE0906E03F0906F032B
:1047800000E010E020918A0E30918B0E40E050E066
:1047900060919F0E7091A00E882777FD8095982FCD
:1047A0001F921F921F921F920E94ED807093930E92
:1047B0006093920EE0906E03F0906F0300E010E0C3
:1047C00020918A0E30918B0E40E050E060919D0E5A
:1047D00070919E0E882777FD8095982F1F921F92CB
:1047E0001F921F920E94ED807093910E6093900E25
:1047F000E0906E03F0906F0300E010E020918A0ECD
:1048000030918B0E40E050E060919B0E70919C0EB9
:10481000882777FD8095982F1F921F921F92E4EBB7
:10482000EF93A12CB12C65010E94ED8070938F0E47
:1048300060938E0E8DB79EB740960FB6F8949EBFCC
:104840000FBE8DBF1CC07093950E6093940E809127
:104850009F0E9091A00E9093930E8093920E809154
:104860009D0E90919E0E9093910E8093900E80914C
:104870009B0E90919C0E90938F0E80938E0E2091A4
:10488000A10E3091A20E80916E0390916F0382175A
:10489000930720F430936F0320936E0380919F0E53
:1048A0009091A00E40916E0350916F0348175907E5
:1048B00020F490936F0380936E0340918A0E509181
:1048C0008B0E2417350720F430938B0E20938A0E1D
:1048D00020918A0E30918B0E8217930720F49093CB
:1048E0008B0E80938A0ECC2369F087E090E0DF91F5
:1048F000CF911F910F91FF90EF90DF90CF90BF90DD
:10490000AF9095CADF91CF911F910F91FF90EF90DB
:10491000DF90CF90BF90AF9008950E94B5779F939E
:104920008F9387EC95E09F938F930E94BA090F9025
:104930000F900F900F900C94320A0E94677928EE26
:1049400033E040E050E00E94A5835F934F933F9394
:104950002F9387EB95E09F938F930E94BA090F9056
:104960000F900F900F900F900F900C94320AFF92BF
:104970000F931F93CF93DF93C1E0D0E006E815E0DB
:10498000DF93CF931F930F930E94BA090E94320ABC
:104990000F900F900F900F9036E1F32E61E08F2D66
:1049A0000E94D07A68EC70E080E090E00E949679F6
:1049B00060E08F2D0E94D07A64E670E080E090E0A5
:1049C0000E949679F3948EE1F812E8CF2196CB30CD
:1049D000D105B1F6DF91CF911F910F91FF9008950E
:1049E0000F931F93CF93DF93EC018B010C171D07DF
:1049F00034F061E08C2F0E94977A2196F7CFDF91F7
:104A0000CF911F910F9108954F925F926F927F9275
:104A10008F929F92AF92BF92CF92DF92EF92FF92CE
:104A20000F931F93CF93DF93EC015B01842E922EA3
:104A300027016801EE24D7FCE094FE2C662457FC85
:104A40006094762C10E2AC16BD0634F1682D8C2FE4
:104A50000E94D07AC701B6010E949679692D8C2FE9
:104A60000E94D07AC301B2010E9496796091E60B50
:104A700081E0860F8093E60B88E897E10E94C47F6F
:104A80008091E60B8E3731F488E897E10E94CB7F66
:104A90001093E60B2196D7CFDF91CF911F910F9105
:104AA000FF90EF90DF90CF90BF90AF909F908F904E
:104AB0007F906F905F904F9008958CE795E09F9363
:104AC0008F930E94BA090E94320A0F900F9089EECC
:104AD0009BE00E9478788F3F2FEF9207C1F321E08F
:104AE0008935910509F420E0822F08952F923F9295
:104AF0004F925F926F927F928F929F92AF92BF92EE
:104B0000CF92DF92EF92FF920F931F93CF93DF9399
:104B1000CDB7DEB728970FB6F894DEBF0FBECDBF76
:104B20008090B5039090B603A090B703B090B803FF
:104B300040908203509083036090840370908503BB
:104B400080917003909171039A838983E0916E0341
:104B5000F0916F03F887EF8380918C0E90918D0E0A
:104B60009C838B83E0918A0EF0918B0EFE83ED8304
:104B7000109271031092700310926F0310926E03E3
:104B80008FEF93E090938D0E80938C0E90938B0E0D
:104B900080938A0E89EE9BE00E94337889EE9BE039
:104BA0000E94397860E089EE9BE00E946D784FE3C7
:104BB00060E089EE9BE00E943F786FEA75E089EE45
:104BC0009BE00E94C37F4FE361E089EE9BE00E947F
:104BD0003F786DE276E089EE9BE00E94C37F4FE371
:104BE00062E089EE9BE00E943F786FEA75E089EE13
:104BF0009BE00E94C37F40E061E089EE9BE00E9461
:104C00003F786FE376E089EE9BE00E94C37F40E04F
:104C100066E089EE9BE00E943F7864E576E089EEED
:104C20009BE00E94C37F40E06DE089EE9BE00E9424
:104C30003F786AE676E089EE9BE00E94C37F0E949F
:104C400067796B017C01312C212C0FEF13E040E0E0
:104C500060E089EE9BE00E943F780E946779A7019F
:104C600096012C503E4F4F4F5F4F2617370748078E
:104C70005907B0F4211009C06AEE7AE089EE9BE092
:104C80000E94C37F2224239407C06AE077E089EE64
:104C90009BE00E94C37F212C0E9467796B017C01FD
:104CA00042E060E089EE9BE00E943F786AE077E0B6
:104CB00089EE9BE00E94C37F84EE9EE00E94AE6C72
:104CC00084EE9EE00E94AD6C0E94946A882379F085
:104CD00042E060E089EE9BE00E943F786FE776E07B
:104CE00089EE9BE00E94C37F632D81E0A3DA89EE09
:104CF0009BE00E9478788437910531F43394F3E097
:104D00003F12A5CF312CA3CF8237910509F5109220
:104D100071031092700310926F0310926E03109340
:104D20008D0E00938C0E10938B0E00938A0E1092B2
:104D3000B5031092B6031092B7031092B803109205
:104D400082031092830310928403109285037FCF15
:104D5000019609F47CCF89EE9BE00E94397840E00F
:104D600060E089EE9BE00E943F7861E089EE9BE085
:104D70000E946D7880917003909171038115944029
:104D800030F08FEF93E090937103809370038091E4
:104D90006E0390916F038115944030F08FEF93E094
:104DA00090936F0380936E0388EF95E09F938F93AA
:104DB0000E94BA0982DE0F900F90882379F161E892
:104DC00076E081EB95E10E94DD7F8092B5039092C1
:104DD000B603A092B703B092B803409282035092F8
:104DE0008303609284037092850389819A819093F2
:104DF000710380937003EF81F885F0936F03E09364
:104E00006E038B819C8190938D0E80938C0EED812F
:104E1000FE81F0938B0EE0938A0E26C069E876E05F
:104E200081EB95E10E94DD7F809170039091710389
:104E3000863B934038F080916E0390916F03863BE0
:104E4000934090F46EE876E081EB95E10E94DD7F7F
:104E500089819A819093710380937003EF81F88523
:104E6000F0936F03E0936E0328960FB6F894DEBFBD
:104E70000FBECDBFDF91CF911F910F91FF90EF90AB
:104E8000DF90CF90BF90AF909F908F907F906F906A
:104E90005F904F903F902F9008954F925F926F9246
:104EA0007F928F929F92AF92BF92CF92DF92EF92BA
:104EB000FF920F931F93CF93DF9380EA95E09F9328
:104EC0008F930E94BA090E94320AF7DD0F900F906B
:104ED0008111E4C1F2DD8111E1C188E995E09F9380
:104EE0008F930E94BA090E94320A0F900F90CBE96B
:104EF000DFE002E010E02091F1033091F2034091F5
:104F0000F3035091F403B801CE010E940C7220E02B
:104F10004FEF64EB70E0CE010E945F7426960F5F46
:104F20001F4F0E30110539F768EE73E080E090E016
:104F30000E949679612C712C49E8842E45E0942ECC
:104F40005BE9A52E56E0B52E63EAC62E66E0D62EA6
:104F50007BEAE72E76E0F72E04EB16E0CFEBD6E007
:104F6000E9EC4E2EE6E05E2E8FEF681A780A7F920B
:104F70006F929F928F920E94BA090E94320ABF924A
:104F8000AF920E9442090E94320A20E044E660E0AB
:104F900070E08BE99FE00E945F7464EF71E080E055
:104FA00090E00E94967920E044E660E070E081EABB
:104FB0009FE00E945F7464EF71E080E090E00E94E7
:104FC000967920E044E660E070E087EA9FE00E9486
:104FD0005F7464EF71E080E090E00E94967920E0D9
:104FE00044E660E070E08DEA9FE00E945F746CEA46
:104FF0007DE080E090E00E949679DF92CF920E945F
:1050000042090E94320A20E044E660E070E083EB4F
:105010009FE00E945F7464EF71E080E090E00E9486
:10502000967920E044E660E070E089EB9FE00E9422
:105030005F7464EF71E080E090E00E94967920E078
:1050400044E660E070E08FEB9FE00E945F7464EFE5
:1050500071E080E090E00E94967920E044E660E014
:1050600070E085EC9FE00E945F746CEA7DE080E078
:1050700090E00E949679FF92EF920E9442090E946E
:10508000320A20E044E660E070E08BEC9FE00E9492
:105090005F7464EF71E080E090E00E94967920E018
:1050A00044E660E070E081ED9FE00E945F7464EF91
:1050B00071E080E090E00E94967920E044E660E0B4
:1050C00070E087ED9FE00E945F7464EF71E080E024
:1050D00090E00E94967920E044E660E070E08DED7B
:1050E0009FE00E945F7460EA7FE080E090E00E94B1
:1050F00096791F930F930E9442090E94320A20E082
:1051000044E664EB70E08DED9FE00E945F7464EF15
:1051100071E080E090E00E94967920E044E664EB44
:1051200070E087ED9FE00E945F7464EF71E080E0C3
:1051300090E00E94967920E044E664EB70E081ED17
:105140009FE00E945F7464EF71E080E090E00E9455
:10515000967920E044E664EB70E08BEC9FE00E94DF
:105160005F746CEA7DE080E090E00E949679DF93C6
:10517000CF930E9442090E94320A20E044E664EB89
:1051800070E085EC9FE00E945F7464EF71E080E066
:1051900090E00E94967920E044E664EB70E08FEBAB
:1051A0009FE00E945F7464EF71E080E090E00E94F5
:1051B000967920E044E664EB70E089EB9FE00E9482
:1051C0005F7464EF71E080E090E00E94967920E0E7
:1051D00044E664EB70E083EB9FE00E945F746CEA4E
:1051E0007DE080E090E00E9496795F924F920E946D
:1051F00042090E94320A20E044E664EB70E08DEA46
:105200009FE00E945F7464EF71E080E090E00E9494
:10521000967920E044E664EB70E087EA9FE00E9424
:105220005F7464EF71E080E090E00E94967920E086
:1052300044E664EB70E081EA9FE00E945F7464EFF3
:1052400071E080E090E00E94967920E044E664EB13
:1052500070E08BE99FE00E945F7460EA7FE080E08D
:1052600090E00E9496798DB79EB740960FB6F8945D
:105270009EBF0FBE8DBF95E06916710409F074CE14
:10528000CBE9DFE020E04FEF6AE570E0CE010E945D
:105290005F7426968FE0C33ED807A1F7DF91CF91C8
:1052A0001F910F91FF90EF90DF90CF90BF90AF9044
:1052B0009F908F907F906F905F904F900895EF92A6
:1052C000FF920F931F93CF93DF9381E48093E60BBC
:1052D0008EE695E09F938F930E94BA090E94320A4E
:1052E0008CE495E09F938F930E94BA090E94320A42
:1052F000E4DB0F900F900F900F908111C4C0DDDBA5
:105300008111C1C084E495E09F938F930E94BA09F4
:105310000E94320ACBE9DFE00F900F90CE010E948D
:10532000B77226968FE0C33ED807C1F765E170E0FB
:1053300084E190E055DB6DE070E082E090E050DBCE
:1053400061E370E081E390E04BDB6DE170E086E1CA
:1053500090E046DB66E270E080E290E041DB6FE1E6
:1053600070E08EE190E03CDBE12CF12C00E010E0FD
:1053700020E030E040E050E065E170E084E190E062
:1053800043DB20E030E040E050E06DE070E082E0A0
:1053900090E03ADB20E030E040E050E06DE170E08A
:1053A00086E190E031DB20E030E040E050E066E272
:1053B00070E080E290E028DB20E030E040E050E068
:1053C0006FE170E08EE190E01FDB61E086E30E9418
:1053D000977A61E087E30E94977A40E051EE60E0BF
:1053E00070E088E897E10E941509F2E3EF2EF12CB6
:1053F0000CE211E020E030E041E050E06DE070E0D0
:1054000082E090E001DB20E030E041E050E06DE13F
:1054100070E086E190E0F8DA20E030E041E050E032
:1054200066E370E086E390E0EFDA20E030E041E010
:1054300050E067E370E087E390E0E6DA20E030E0F8
:1054400041E050E065E170E084E190E0DDDA20E0E9
:1054500030E041E050E061E370E081E390E0D4DAD5
:1054600020E030E041E050E06FE170E08EE190E05C
:10547000CBDA20E030E041E050E066E270E080E22C
:1054800090E0C2DAB2CFDF91CF911F910F91FF90E0
:10549000EF900895FF920F931F93CF93DF93F82E11
:1054A0008B01C0E0D0E0C017D107B4F461E08F2DCC
:1054B0000E94D07A6CED70E080E090E00E949679D6
:1054C00060E08F2D0E94D07A64E670E080E090E08A
:1054D0000E9496792196E7CFDF91CF911F910F918E
:1054E000FF9008952F923F924F925F926F927F921A
:1054F0008F929F92AF92BF92CF92DF92EF92FF92E4
:105500000F931F93CF93DF93CDB7DEB72A970FB6D4
:10551000F894DEBF0FBECDBF082F882331F00E9464
:10552000731D61E081E00E94FF1B109271031092D5
:10553000700310926F0310926E038FEF93E09093BD
:105540008D0E80938C0E90938B0E80938A0E10920A
:10555000B5031092B6031092B7031092B8031092DD
:10556000820310928303109284031092850361E0FA
:1055700080E20E94977A61E081E20E94977A83ED4F
:1055800096E09F938F930E9442090E94320A84EE14
:1055900096E09F938F930E9442090E94320A0E94D4
:1055A00067796B017C0124E6C20ED11CE11CF11C61
:1055B0000F900F900F900F901D828091B5039091E6
:1055C000B603A091B703B091B803892B8A2B8B2B1C
:1055D00009F068C00E946779C616D706E806F90682
:1055E000C0F43D81332331F060E080E20E94D07A44
:1055F0001D8206C061E080E20E94D07A41E04D83C6
:105600000E9467796B017C0154E6C50ED11CE11C38
:10561000F11C84EE9EE00E94AE6C84EE9EE00E943F
:10562000AD6C0E94946A882321F060E080E00E94C3
:105630001A218091B5039091B603A091B703B09160
:10564000B803892B8A2B8B2B09F4B7CF61E080E25A
:105650000E94D07AB2CF0E946779C616D706E806B4
:10566000F90668F184EE9EE00E94AE6C84EE9EE046
:105670000E94AD6C0E94946A882321F060E080E073
:105680000E941A218091820390918303A091840348
:10569000B0918503892B8A2B8B2B21F061E081E26D
:1056A0000E94D07A8091820390918303A091840319
:1056B000B0918503892B8A2B8B2B69F219C04D8001
:1056C000442031F060E081E20E94D07A1D8206C061
:1056D00061E081E20E94D07A21E02D830E94677907
:1056E0006B017C0134E6C30ED11CE11CF11CBACF66
:1056F00083EF96E09F938F930E9442090E94320AA3
:105700006CED75E080E090E00E94967988E395E08A
:105710009F938F930E94BA090E94320A0E94677970
:105720006B017C010E9467794B015C010F900F9027
:105730000F900F9018EC1A869B01AC01205E314B44
:105740004F4F5F4F2E833F8348875987B5E32B2EFA
:10575000B5E03B2E0E9467794E805F806884798433
:10576000641575058605970508F068C00E9467797D
:10577000C616D706E806F90600F53D81332351F039
:1057800060E080E20E94D07A61E081E20E94D07AFB
:105790001D820AC061E080E20E94D07A60E081E26E
:1057A0000E94D07A41E04D830E9467796B017C01B1
:1057B000C10ED11CE11CF11C12500E9467795A8560
:1057C000252F30E0A8EEB3E02A9FA0012B9F500DBB
:1057D0003A9F500D11242A01662457FC6094762CC0
:1057E000480C591C6A1C7B1C46165706680679062D
:1057F00098F484E190E0821B930B9F938F933F92E8
:105800002F920E94BA090E94320A2A852F5F2A87A6
:105810000F900F900F900F9084EE9EE00E94AE6C60
:1058200084EE9EE00E94AD6C0E94946A882309F485
:1058300091CF60E080E00E941A218CCF60E080E28E
:105840000E94D07A60E081E20E94D07A68EE73E034
:1058500080E090E00E9496798091700390917103AE
:105860008115944030F08FEF93E090937103809313
:10587000700380916E0390916F038115944030F016
:105880008FEF93E090936F0380936E03809170038A
:10589000909171038438934038F080916E03909119
:1058A0006F038438934050F48FEF93E0909371032B
:1058B0008093700390936F0380936E0380918503B0
:1058C0008F93809184038F93809183038F93809132
:1058D00082038F938091B8038F938091B7038F9346
:1058E0008091B6038F938091B5038F9384E295E006
:1058F0009F938F930E94BA090E94320A80916F038E
:105900008F9380916E038F9380918B0E8F938091F4
:105910008A0E8F93809171038F93809170038F9380
:1059200080918D0E8F9380918C0E8F9387E095E000
:105930009F938F930E94BA090E94320A60918C0E45
:1059400070918D0E80E290E0A5DD60918A0E7091DD
:105950008B0E81E290E09EDDEE24EA94A3E0FA2E25
:105960008091700390917103B701681B790B80E2FD
:1059700090E090DD80916E0390916F03B701681BFA
:10598000790B81E290E086DD0FB6F894DEBF0FBEA2
:10599000CDBF0023D1F02A960FB6F894DEBF0FBE1C
:1059A000CDBFDF91CF911F910F91FF90EF90DF90CE
:1059B000CF90BF90AF909F908F907F906F905F90AF
:1059C0004F903F902F900C94F50E2A960FB6F894B6
:1059D000DEBF0FBECDBFDF91CF911F910F91FF9022
:1059E000EF90DF90CF90BF90AF909F908F907F907F
:1059F0006F905F904F903F902F90089529E030E096
:105A000040E050E060E070E0CB010E94D280CB012A
:105A10006430710529F4209120043091210442C0A2
:105A200020918713223071F5609120047091210438
:105A3000049764F49B01442737FD4095542F8091CF
:105A4000280490912904681B790B0AC02091260430
:105A500030912704260F371F442737FD4095542FD8
:105A6000882777FD8095982F0E94D2809B0177FF31
:105A700003C028593E4F16C0693671409CF0285625
:105A8000314010C023E230E040E050E061E070E0DF
:105A900080E090E00E94D2804AE0469F9001479FBC
:105AA000300D1124C9010895AF92BF92CF92DF92B9
:105AB000EF92FF920F931F9386E30E941E7A9093BA
:105AC000821380938113E0902E04F0902F0400271E
:105AD000F7FC0095102F20913004309131044427B9
