:020000040000FA
:100000000C949F070C94D0070C94D0070C94D00745
:100010000C94D0070C94D0070C94D0070C94D00704
:100020000C94D0070C94D0070C94D0070C94D007F4
:100030000C94D0070C94D0070C94D0070C94D007E4
:100040000C94D0070C94CA5F0C94D0070C94D00782
:100050000C94D0070C94D0070C94D0070C94865CB9
:100060000C94D0070C94F65D0C94CC5D0C94D007E6
:100070000C94D0070C94D0070C94D0070C94D007A4
:100080000C949C5F0C94D0070C94D0070C94D00770
:100090000C94A25D0C94785D0C94D0070C94205EB7
:1000A0000C94D0070C94D0070C946E5F0C94D0077E
:1000B0000C94D0070C94D0070C94D0070C94405F9C
:1000C0000C94D0070C94D0070C94D0070C944E5D80
:1000D0000C94245D0C94D0070C94FA5C0C94D05CC6
:1000E0000C94D007084AD73B3BCE016E84BCBFFDC1
:1000F000C12F3D6C74319ABD56833DDA3D00C77FF8
:1001000011BED9E4BB4C3E916BAAAABE0000008090
:100110003F05A84CCDB2D44EB93836A9020C50B91F
:10012000918688083CA6AAAA2ABE000000803F0744
:10013000634236B79BD8A71A39685618AEBAAB5582
:100140008C1D3CB7CC5763BD6DEDFD753EF6177247
:1001500031BF000000803F08000000BE9224491219
:100160003EABAAAA2ABECDCCCC4C3E00000080BE3D
:10017000ABAAAAAA3E00000000BF000000803F001A
:1001800000000000084178D3BB4387D1133D190E0E
:100190003CC3BD4282AD2B3E68EC8276BED98FE176
:1001A000A93E4C80EFFFBE01C4FF7F3F000000006E
:1001B00000000C94FA0D0C948E590C944C0D0C9478
:1001C000CB170C9434420C94AE080C94271B0C945F
:1001D000C9080C9402180C94C10B0C94860E0C9454
:1001E0002E140C94A7210C94BD150C94210E0C9484
:1001F000DB0E0C9465420C9444140C94371A0C9446
:1002000012220C9415220C941A1C0C9489080C943C
:10021000F20C0C94C3620C94C0080C94B2080C94B9
:10022000CA080C94160A0C949B080C94A4080C940D
:10023000C00B0C948F080C94B9160C945F0B0C94A3
:1002400055170C94D61A0C94020D0C940C310C9486
:1002500087180C9497080C94830E0C949E080C94A9
:10026000ED0E0C9437190C94F50C0C943E170C946D
:10027000C5210C94BA180C94220D0C948E210C9468
:1002800086240C94380E0C94F70C0C9462220C9477
:10029000C1090C94FA2E0C94C4080C94AE2D0C9445
:1002A00005180C949D310C9483230C94E3210C9439
:1002B00028320C94911F0C9434300C945B1F0C94D6
:1002C0004D190C94B7180C94B5350C94AB180C94CC
:1002D000380A0C94591D0C9485180C94CE080C9473
:1002E00025320C94E9190C94800D0C94DB0A0C94C3
:1002F0000F0E0C94730E0C9491590C949B190C9442
:100300004B170C94851A0C94FA140C94AB1C0C9497
:10031000A5310C9404310C94BC080C948E0A0C94F6
:10032000DB170C94A8080C9483680C9441170C9468
:100330001A170C94330D0C94051E0C94070A0C9498
:100340001C3D0C94610E0C94B6080C9493080C940C
:100350004F0E0C942A0A0C944F0B0C9473460C9479
:10036000F60C0C9411190C948A1E0C942F4A0C94C0
:1003700082472C204175782023002C20446573741B
:10038000200069326320417578204F757470757450
:100390002023004175782023002C20436D643D000C
:1003A00069326320446573742023004D4F4E004E24
:1003B00043004E4F002C20547970653D00444F752A
:1003C000742023002C204F6E20506F733D00536526
:1003D00072766F2023002C00536F756E642042618B
:1003E0006E6B202300292053657269616C3A2000EE
:1003F000417567202035203230323300202800310B
:1004000000204275696C642000312E3300202D20BD
:1004100000416D6964616C61205243004175746FE5
:1004200020436F72726563742047657374757265DB
:100430007320456E61626C6564004E6F20693263A3
:10044000206465766963657320636F6E666967759E
:1004500072656400496E6974206932632042757365
:100460000041637469766174696E672044696769E5
:1004700074616C204F757470757473004163746996
:10048000766174696E6720536572766F730052658A
:100490006164696E6720436F6E6669672046696CA8
:1004A00065004C6F6164696E6720636F6E66696793
:1004B0002066726F6D20454550524F4D001B5B31D9
:1004C000363B3148001B5B306D001B5B31333B36E4
:1004D00048001B5B31323B343448001B5B31323BFC
:1004E0003648001B5B31313B343448001B5B3131F3
:1004F0003B3648001B5B393B343648001B5B393BBD
:10050000343048001B5B393B333448001B5B393BBC
:10051000323848001B5B393B323248001B5B393BA9
:10052000313648001B5B393B313048001B5B393B9F
:100530003448001B5B353B333248001B5B353B3294
:100540003348001B5B353B313448001B5B353B3582
:1005500048001B5B343B333248001B5B343B323377
:1005600048001B5B343B313448001B5B343B35484F
:10057000001B5B333B333248001B5B333B32334859
:10058000001B5B333B313448001B5B333B35480079
:100590006D202D20536572766F204D6F6E69746FDC
:1005A0007220546F67676C65206F6E2F6F666600F0
:1005B00063202D2053686F7720636F6E6669672014
:1005C000696E20454550524F4D006C202D204C6FD8
:1005D000616420636F6E6669672066726F6D204587
:1005E0004550524F4D0077202D2057726974652079
:1005F000636F6E66696720746F20454550524F4D9A
:100600000078202D20446973706C61792F536574D4
:10061000205842454520616464726573732C202024
:10062000787B5B6E5D3D5B68686868686868685D7C
:100630007D2E206E3D31206F7220322C206868683C
:1006400068686868683D48657820616464726573AD
:10065000730069202D2069326320436F6D6D616ED8
:10066000642C20697B6E6E6E7D2C7B6D6D6D7D2E96
:10067000206E6E6E3D4465737420416464722C205C
:100680006D6D6D3D436D640061202D204F7574705C
:10069000757420737472696E6720746F2041757869
:1006A0002073657269616C2C20615B737472696E72
:1006B000675D006F202D2053657420444F55542EE4
:1006C000206F7B6E6E7D2C7B6D7D2E206E6E3D23AC
:1006D0002C206D3D31206F7220302C20323D746F04
:1006E00067676C652C20333D6D6F6D0073202D2086
:1006F00053657420536572766F2E20737B6E6E7D0A
:100700002C7B6D6D6D7D2C7B6F6F6F7D2E206E6EE3
:100710003D232C206D6D6D3D706F732C206F6F6FBE
:100720003D7370640024202D20506C617920736F1C
:10073000756E642C20247B6E6E7D5B7B6D6D7D5DA4
:100740002E206E6E3D62616E6B2C206D6D3D2066BD
:10075000696C65206E756D6265720072202D205285
:10076000616E646F6D20736F756E6473206F6E2F92
:100770006F66660064202D2043757272656E74206A
:10078000636F6E66696775726174696F6E0076205B
:100790002D204669726D7761726520766572736986
:1007A0006F6E0068202D2054686973206D65737327
:1007B000616765003A200052656D6F746520436F74
:1007C0006E736F6C6520436D64204F6E00466169E7
:1007D0006C736166653A0020726576002C206D614D
:1007E0007870756C73653D002C206D696E70756C4A
:1007F00073653D002C20733D002C20743D002C209F
:10080000643D002C206E3D002C206D61783D003A47
:10081000206D696E3D004368616E6E656C2F536597
:1008200072766F733A0066616C73650074727565F9
:100830000066616C7365007472756500646F6D6548
:100840006368363A2000646F6D6573706565647324
:1008500065656B3A2000646F6D65737065656468EB
:100860006F6D653A2000646F6D6573706565643AFD
:100870002000646F6D657365656B723A2000646F6C
:100880006D657365656B6C3A2000646F6D656675A8
:100890006467653A2000646F6D657365656B6D61B3
:1008A000783A2000646F6D657365656B6D696E3AAB
:1008B0002000646F6D65686F6D656D61783A20002A
:1008C000646F6D65686F6D656D696E3A2000646F69
:1008D0006D65676573743A2000646F6D65666C6959
:1008E000703A2000646F6D65686F6D653A20006432
:1008F0006F6D656D6F64653A2000417578205365B2
:100900007269616C20537472696E6720436F6D6DFC
:10091000616E64733A0041757820496E69743A20BB
:100920000041757820454F4C3A20004175782044AD
:10093000656C696D697465723A2000417578205361
:10094000657269616C20426175643A20004175747A
:100950006F20436F7272656374204765737475729C
:10096000657320456E61626C65640020526E642080
:10097000536F756E64204F6E2F4F66660020416383
:100980006B204F6E2F4F66660020476F20536C6FB1
:1009900077204F6E2F4F66660047657374757265DA
:1009A000733A00456E61626C652F44697361626CD5
:1009B000652044726976657300536C6F772F4661CA
:1009C0007374204D6F646500456E61626C652F44E1
:1009D000697361626C652052656D6F746573003A6E
:1009E00020003A20004C6F6E6720427574746F6E61
:1009F000733A003A2000427574746F6E733A0020A7
:100A00002839392900436F6E6669677572656420FD
:100A100069326320646576696365733A20004D79B5
:100A20002069326320416464726573733A20002048
:100A30002872616E64290029002028003A20004FA6
:100A40006666004F6E00204D617829002028005313
:100A50006F756E642042616E6B733A200041636B68
:100A60002054797065733A20004F6666004F6E001F
:100A700041636B20536F756E643A2000202D200077
:100A800052616E646F6D20536F756E642044656CA7
:100A900061793A2000526E6420536F756E643A207B
:100AA00000566F6C3A20004A3120562F482041648E
:100AB0006A7573743A00204A32565245463A004AE3
:100AC00031565245463A00204A323A004A313A00FD
:100AD000436F6E66696700436F6E66696720284DD5
:100AE000696E696D616C20454550524F4D204D6FC8
:100AF000646529004F6666004F6E0052616E646F38
:100B00006D2000204A323A004A313A001B5B3133F3
:100B10003B3148494D553A001B5B31323B33394834
:100B2000486F6D653A001B5B31323B313148446F91
:100B30006D652044656C61793A001B5B31323B3155
:100B400048446F6D653A001B5B31313B3339484D8A
:100B50006F64653A001B5B31313B313148536F752F
:100B60006E642044656C61793A001B5B31313B3126
:100B700048566F6C3A001B5B393B343348383A00B7
:100B80001B5B393B333748373A001B5B393B33310A
:100B900048363A001B5B393B323548353A001B5B1F
:100BA000393B313948343A001B5B393B31334833E8
:100BB0003A001B5B393B3748323A001B5B393B310B
:100BC00048313A001B5B373B3148446967697461BF
:100BD0006C204F75743A001B5B316D001B5B353B1D
:100BE00032384831323A001B5B353B3139483131BC
:100BF0003A001B5B353B31304831303A001B5B35E6
:100C00003B3148393A001B5B343B323848383A00B4
:100C10001B5B343B313948373A001B5B343B313086
:100C200048363A001B5B343B3148353A001B5B3396
:100C30003B323848343A001B5B333B313948333A56
:100C4000001B5B333B313048323A001B5B333B3196
:100C500048313A001B5B316D536572766F204F75DA
:100C6000747075743A001B5B306D001B5B313B3157
:100C700048001B5B333B3633483D3D3D3D3D3D3DEC
:100C80003D3D3D3D3D3D3D00312E3300416D6964AC
:100C9000616C61205243001B5B323B363348001BC2
:100CA0005B313B3633483D3D3D3D3D3D3D3D3D3D6A
:100CB0003D3D3D3D001B5B3F32356C001B630055E5
:100CC000706461746564004F4646004F4E002046D4
:100CD000532000496E76616C696400427573790037
:100CE000292053657269616C3A20004175672020A4
:100CF000352032303233002028003100204275691F
:100D00006C642000312E3300416D6964616C612098
:100D10005243202D20004661696C736166653A007C
:100D200020726576002C206D617870756C73653D5E
:100D3000002C206D696E70756C73653D002C2073FE
:100D40003D002C20743D002C20643D002C206E3D85
:100D5000002C206D61783D003A206D696E3D0020C9
:100D60004A32565245463A004A31565245463A00B2
:100D70004A323D004A313D00454550524F4D2063B7
:100D80006F6E74656E74004C6F6164696E6720638A
:100D90006F6E6669672066726F6D20454550524FD1
:100DA0004D0000002100240027002A002D00300003
:100DB000330001010000040107010A0100002200C4
:100DC000250028002B002E00310034000201000015
:100DD000050108010B010000200023002600290066
:100DE0002C002F0032000001000003010601090160
:100DF00005050505070508080808020202020A0A97
:100E000008080404040401010101010101010303B4
:100E1000030303030303040707070C0C0C0C0C0C5F
:100E20000C0C0202020206060606060606060B0B5C
:100E30000B0B0B0B0B0B010210202008081020409D
:100E4000102040800201020108040201010204088E
:100E5000102040808040201008040201800402011C
:100E60008040201008040201080402010102040865
:100E700010204080010204081020408000000A0B6E
:100E800002090C0D0E080703040100000000000019
:100E90000000000000000000000000000000000052
:100EA000000000000000000012111000000000000F
:100EB0000000000000000000000000000000000032
:100EC00000000200E803D007000000000300E80370
:100ED000D007000000000400E803D0070000000075
:100EE0000500E803D007000000000600E803D00773
:100EF000000000000700E803D00700000000080021
:100F0000E803D007000000000900E803D007000054
:100F100000000A00E803D007000000000B00E8030F
:100F2000D007000000000C00E803D007000000001C
:100F30000D00E803D00700000000C362836811249D
:100F40001FBECFEFD1E2DEBFCDBF00E00CBF19E086
:100F5000A0E0B2E0E2EBFAEE00E00BBF02C00790C7
:100F60000D92AC3EB107D9F72AE1ACEEB9E001C071
:100F70001D92AA39B207E1F717E0CEE9D7E000E009
:100F800006C021970109802FFE010E940670CD390D
:100F9000D10780E00807A9F70E9489670C9447757C
:100FA0000C940000CF92DF92EF92FF92CF93DF93E9
:100FB000EC016A017B01E889F98982E08083C11430
:100FC00081EED806E104F104A1F060E079E08DE360
:100FD00090E0A70196010E94E56A2150310941097C
:100FE00051095695479537952795211580E1380782
:100FF00098F0E889F989108260E874E88EE190E061
:10100000A70196010E94E56A215031094109510961
:101010005695479537952795EC85FD853083EE8568
:10102000FF852083188EEC89FD8986E08083EA891C
:10103000FB89808180618083EA89FB898081886067
:101040008083EA89FB89808180688083EA89FB89C3
:1010500080818F7D8083DF91CF91FF90EF90DF9033
:10106000CF9008959A01FC01478150856417750758
:1010700080F5660F771F85859685680F791FFB01C0
:10108000608171816115710521F188E592E0A0E030
:10109000B0E06935F2E07F0748F0613486E0780718
:1010A00010F060E476E0CB01B0E0A0E0BC01CD013F
:1010B00068557240810991092AE0660F771F881FE1
:1010C000991F2A95D1F728EE33E040E050E00E94C6
:1010D000B36AC90108958150823108F05AC0E82FDF
:1010E000F0E08827E958F74F8F4F0C940670970867
:1010F0009B0889088F089308C9089E08A408A808B7
:10110000AE08B208B608BC08C008C908C408CA08B6
:10111000CE08809180008F77809380000895809121
:1011200080008F7DF9CF80918000877FF5CF84B5D7
:101130008F7784BD089584B58F7DFBCF8091B000FB
:101140008F778093B00008958091B0008F7DF9CFA4
:10115000809190008F778093900008958091900007
:101160008F7DF9CF80919000877FF5CF8091A0008F
:101170008F778093A00008958091A0008F7DF9CF94
:101180008091A000877FF5CF809120018F77809399
:1011900020010895809120018F7DF9CF8091200159
:1011A000877FF5CFCF93DF93282F30E0F901E45804
:1011B000F14F8491F901EA5CF14FD491F901E051CA
:1011C000F24FC491CC23A1F081110E946B08EC2F47
:1011D000F0E0EE0FFF1FEA52F24FA591B491EC91AF
:1011E000ED2381E090E009F480E0DF91CF91089554
:1011F00080E090E0FACF1F93CF93DF93282F30E069
:10120000F901E458F14F8491F901EA5CF14FD4916E
:10121000F901E051F24FC491CC23A9F0162F8111AE
:101220000E946B08EC2FF0E0EE0FFF1FE454F24F2A
:10123000A591B4918FB7F894EC91111108C0D09595
:10124000DE23DC938FBFDF91CF911F910895DE2BBA
:10125000F8CFCF93DF9390E0FC01EA5CF14F24914B
:101260008051924FFC0184918823C9F090E0880F4F
:10127000991FFC01EE55F24FA591B491FC01E45485
:10128000F24FC591D49161110DC09FB7F8948C9124
:10129000209582238C938881282328839FBFDF9108
:1012A000CF910895623051F49FB7F8943C91822F0A
:1012B000809583238C93E8812E2BEFCF8FB7F89402
:1012C000EC912E2B2C938FBFEACF3FB7F8948091EF
:1012D000710A9091720AA091730AB091740A26B5AE
:1012E000A89B05C02F3F19F00196A11DB11D3FBF5E
:1012F000BA2FA92F982F8827BC01CD01620F711D2D
:10130000811D911D42E0660F771F881F991F4A9526
:10131000D1F708952FB7F89460916D0A70916E0A15
:1013200080916F0A9091700A2FBF0895DC01ED91B2
:10133000FC910190F081E02D1994EF92FF920F93B0
:101340001F93CF93DF938C017B01D0E0C0E0F701C6
:10135000EC0FFD1F6491662361F0D801ED91FC91C3
:101360000190F081E02DC8011995892B11F021968B
:10137000EECFCE01DF91CF911F910F91FF90EF90B3
:101380000895AF92BF92CF92DF92EF92FF920F93A8
:101390001F93CF93DF936C017B018B01040F151F0B
:1013A000EB015E01AE18BF08C017D10759F0699173
:1013B000D601ED91FC910190F081E02DC6011995C7
:1013C000892B79F7C501DF91CF911F910F91FF9084
:1013D000EF90DF90CF90BF90AF900895FC01A0896F
:1013E000B1898C91A689B78982FD0FC09C91818DAE
:1013F0008F5F8F73228D821749F0A18DAE0FBF2FA3
:10140000B11D5D969C93818F08958C910895FC0188
:10141000538D448D252F30E0842F90E0821B930B59
:10142000541710F0CF96089501970895FC01918DFF
:10143000828D981761F0A28DAE0FBF2FB11D5D9602
:101440008C91928D9F5F9F73928F90E008958FEFA4
:101450009FEF0895FC01918D828D981731F0828D58
:10146000E80FF11D858D90E008958FEF9FEF0895AF
:10147000FC01918D228D892F90E0805C9F4F821B13
:1014800091098F739927089585E79AE00E94380A99
:1014900021E0892B09F420E0822F08958CE49CE060
:1014A0000E94380A21E0892B09F420E0822F089558
:1014B00082E19BE00E94380A21E0892B09F420E0B8
:1014C000822F08958FEA9BE00E94380A21E0892B41
:1014D00009F420E0822F0895FC01A48DA80FB92FF4
:1014E000B11DA35ABF4F2C91848D90E001968F734C
:1014F0009927848FA689B7892C93A089B1898C916B
:10150000837080648C93938D848D981306C00288B9
:10151000F389E02D80818F7D80830895EF92FF9283
:101520000F931F93CF93DF93EC0181E0888F9B8D06
:101530008C8D98131AC0E889F989808185FF15C0C0
:101540009FB7F894EE89FF896083E889F9898081E3
:101550008370806480839FBF81E090E0DF91CF91B2
:101560001F910F91FF90EF900895F62E0B8D10E0D4
:101570000F5F1F4F0F731127E02E8C8D8E110CC043
:101580000FB607FCFACFE889F989808185FFF5CF8E
:10159000CE010E946C0AF1CFEB8DEC0FFD2FF11DF7
:1015A000E35AFF4FF0829FB7F8940B8FEA89FB89CB
:1015B00080818062CFCFCF93DF93EC01888D882329
:1015C000B9F0AA89BB89E889F9898C9185FD03C0A6
:1015D000808186FD0DC00FB607FCF7CF8C9185FF8B
:1015E000F2CF808185FFEDCFCE010E946C0AE9CF5A
:1015F000DF91CF91089580E090E0892B29F00E943F
:10160000620A81110E94000080E090E0892B29F09D
:101610000E94580A81110E94000080E090E0892B0E
:1016200029F00E944E0A81110E94000080E090E0A3
:10163000892B29F00E94440A81110C94000008951E
:10164000FC01A281B3811C968C911C978C7129F4AA
:101650001D968C911D97EFE08111E1E130E020E0D3
:1016600070E02617370784F41E968C911E978F78AA
:1016700090E0022E02C0959587950A94E2F780FDCE
:10168000EE5F2F5F3F4FEDCFEA0FFB2FF11D808103
:1016900090E0982F88272181820F911D0895CF9384
:1016A000DC011696CC911697ED91FC910280F381A6
:1016B000E02D1995C150C81B8C2FCF9108958BE058
:1016C000089520911A0A260F3327331F213231053E
:1016D000ECF420913E0AFC0190E080E0243069F0B7
:1016E00082E00895A0911A0A2191AC014650564F0C
:1016F000A40FB52FB11D2C930196861798F38091F6
:101700001A0A680F60931A0A80E0089581E008952C
:1017100008958FEF9FEF08958FEF9FEF08958091C9
:10172000F30990E09195819591090895CF93DF9306
:10173000CB01EA01642F0E94610BCE01DF91CF91B2
:101740000895CF93DF931F92CDB7DEB7698361E031
:10175000CE0101960E94610B81E090E00F90DF9135
:10176000CF910895CF93DF93DC01ED91FC913097F9
:1017700021F0EC01199519821882DF91CF9108951B
:1017800008952F923F924F925F926F927F928F9225
:101790009F92AF92BF92CF92DF92EF92FF920F9300
:1017A0001F93CF93DF9300D000D01F921F92CDB72D
:1017B000DEB78C010E948A096B017C01F8018285E9
:1017C0009385A485B5850196A11DB11D8C159D0538
:1017D000AE05BF0508F06AC018870F83312C212C95
:1017E000D701C6018C509E4FAF4FBF4F8B839C8358
:1017F000AD83BE83AF81B8855D968D909D90AD9091
:10180000BC90909781149104A104B10409F4CAC05A
:1018100059964D905D906D907C905C97C414D50462
:10182000E604F70468F1C814D904EA04FB0408F4D8
:1018300056C095964D915C9196979A965C934E936F
:1018400099971E966C9170E0D801ED91FC9104A0DF
:10185000F5A1E02DC8011995EF81F885158E168E3A
:10186000178E10A211A212A213A214A216A215A2E0
:101870008B819C81AD81BE8183A794A7A5A7B6A7C4
:10188000BFEF2B1A3B0AEF81F885B596F887EF83F7
:10189000FCE02F16310409F0ADCF0E948A09D8016F
:1018A0001A966D937D938D939C931D9728960FB6F2
:1018B000F894DEBF0FBECDBFDF91CF911F910F9186
:1018C000FF90EF90DF90CF90BF90AF909F908F9060
:1018D0007F906F905F904F903F902F900895EF8191
:1018E000F88581A192A1A3A1B4A1C816D906EA06E0
:1018F000FB0631F2C701B60164197509860997091B
:1019000084189508A608B70821A932A93A83298323
:10191000232B21F4A0ECBBE0BA83A9830E947E694B
:101920002B013C01C501B4010E947E699B01AC0101
:10193000C301B2010E94116CE981FA8119954B0132
:101940005C01AF81B8859F966D917C91072E000C4C
:10195000880B990B0E948069A50194010E94DF69A0
:101960000E94836CEF81F88547A150A5460F571F51
:1019700081A592A54817590709F482CF52A741A71C
:10198000868590E0D801ED91FC9104A0F5A1E02DB1
:10199000BC01C8011995EF81F885C1A2D2A2E3A2CA
:1019A000F4A26ECFAF81B8859B968D909D90AD903F
:1019B000BC909E9781149104A104B10409F460CFF6
:1019C0000E948A0986169706A806B90608F058CF1D
:1019D000D801ED91FC910688F789E02DB101C8018D
:1019E00019954ECF06970C94C10B089508959C014C
:1019F00024543E4FFC0172AB61AB8596821793076E
:101A0000C9F708950F931F93CF93DF93F901DC017A
:101A1000A454BE4FEC010F85188929893A89042303
:101A2000152326233723012B022B032B11F0FAABAE
:101A3000E9AB85968A179B0769F7DF91CF911F91D4
:101A40000F9108956C30710568F425E2269FF0012E
:101A5000279FF00D1124E80FF91F8685882311F0C8
:101A600052AB41AB08950F931F93CF93DF938C013B
:101A7000D0E0C0E0D801ED91FC910688F789E02D17
:101A8000BE01C80119952196CC30D10599F7DF9197
:101A9000CF911F910F9108956C30710580F525E26B
:101AA000269FF001279FF00D1124E80FF91F158ED6
:101AB000168E178E10A211A212A213A214A2DB017D
:101AC00011962A9FA0012B9F500D1124840F951F62
:101AD000DC011D921C9213A614A615A616A683E07F
:101AE000660F771F8A95E1F7FB01E251F34F808182
:101AF0008F7B8083808160E08F730C94FB08089556
:101B00008F929F92AF92BF92CF92DF92EF92FF920D
:101B10000F931F93CF93DF93EC018B0169017A013F
:101B200070E060E00C30110508F040C020E030E0CB
:101B3000A901C701B6010E94796987FD45C020E06F
:101B400030E040E85FE3C701B6010E94796987FD94
:101B500006C0C12CD12C80E8E82E8FE3F82E85E258
:101B6000809FF001819FF00D1124EC0FFD1FC389B0
:101B7000D48905891689BE0190E080E00E947E69C3
:101B80004B015C01C017D10718F50C1B1D0BB801E8
:101B900090E080E00E947E69A70196010E94DF69C3
:101BA000A50194010E94176B0E948A6CCB01DF9102
:101BB000CF911F910F91FF90EF90DF90CF90BF904A
:101BC000AF909F908F900895C12CD12C7601C7CFF4
:101BD000C01BD10BBE0190E080E00E947E69A7018E
:101BE00096010E94DF699B01AC01C501B4010E940E
:101BF000166BDACF6C30710570F445E2469F9001A8
:101C0000479F300D1124820F931FFC016785708957
:101C100081899289089560E070E0CB0108956C306D
:101C2000710560F445E2469F9001479F300D1124F5
:101C3000820F931FFC018789908D089590E080E0CA
:101C400008956C30710588F425E2269FF001279FE6
:101C5000F00D1124E80FF91F2589368983899489AD
:101C60008217930720F4C901089590E080E0089559
:101C70006C30710588F425E2269FF001279FF00D56
:101C80001124E80FF91F258936898389948928173B
:101C9000390720F4C901089590E080E008956C3080
:101CA000710560F445E2469F9001479F300D112475
:101CB000820F931FFC0185899689089590E080E04A
:101CC00008956C30710560F445E2469F9001479F8E
:101CD000300D1124820F931FFC018389948908958C
:101CE00090E080E008956C30710558F483E0660F51
:101CF000771F8A95E1F7FB01E251F34F80818F73E3
:101D0000089580E008958CE090E008955F926F92CE
:101D10007F928F929F92AF92BF92CF92DF92EF927B
:101D2000FF920F931F93CF93DF936C30710598F55B
:101D300038014901542EEB018C0161E0842F0E948F
:101D4000290985E28C9FF0018D9FF00D1124E00F91
:101D5000F11FC687948A838A768A658AF08EE78A1D
:101D6000A786B08AC18AD28AF2A6E1A683E0CC0F08
:101D7000DD1F8A95E1F7FE01E251F34F852D8F7348
:101D8000582E8081807C582A5082C751D34F88EBCF
:101D90009BE09F838E83DF91CF911F910F91FF90E6
:101DA000EF90DF90CF90BF90AF909F908F907F90FB
:101DB0006F905F9008956C30710560F445E2469F26
:101DC0009001479F300D1124820F931FFC0181A5C4
:101DD00092A5089590E080E008956C30710568F454
:101DE00083E0660F771F8A95E1F7FB01E251F34F1D
:101DF000808186FB882780F9089580E00895CF923E
:101E0000DF92EF92FF920F931F93CF93DF938B019B
:101E1000EC0160E070E0CB013C2F2D2FE9910E2EFC
:101E2000000CFF0BF097EA30F10578F4AAE0B0E07F
:101E30009B01AC010E94D26A6F01FF0FEE08FF0800
:101E40006C0D7D1D8E1D9F1DE7CFF8013083218312
:101E5000DF91CF911F910F91FF90EF90DF90CF9086
:101E60000895EF92FF920F931F93CF93DF931F92EA
:101E70001F92CDB7DEB79A8389838B017A01DB018C
:101E80001C92F80180818530A8F4BE016F5F7F4FFE
:101E900089819A810E94FF0ED801EC91EE0DFF2DF1
:101EA000F11D6083E981FA81808181110DC08C91DF
:101EB0008F5F8C9381E00F900F90DF91CF911F91F6
:101EC0000F91FF90EF9008958C3241F43196FA8390
:101ED000E983F80180818F5F8083D3CF80E0EBCFEF
:101EE0008F929F92AF92BF92FF920F931F93CF93C7
:101EF000DF938B01FC012081F12C2D3219F4019626
:101F0000FF24F394FC0160E070E0CB013E2F2F2F03
:101F1000C1910C2E000CDD0BE097CA30D10578F48E
:101F2000AAE0B0E09B01AC010E94D26A4E01DD0F35
:101F3000AA08BB08680D791D8A1D9B1DE7CFF80113
:101F400030832183FF2039F09095809570956195BD
:101F50007F4F8F4F9F4FDF91CF911F910F91FF9038
:101F6000BF90AF909F908F900895FC01680F791FEC
:101F700090E080E0AAE0A89FA001A99F500D112445
:101F80002191022E000C330B20533109C901840F1B
:101F9000951F6E177F0779F70895680F791FFC0169
:101FA0002191CF01022E000C330B205331092A302E
:101FB000310528F4E617F70791F781E0089580E0EE
:101FC0000895CF92DF92EF92FF920F931F93CF93DA
:101FD000DF93EC018B017C0184E2E81A87EFF80AB9
:101FE0006E01E3E2CE1AE7EFDE0AF80161918F019C
:101FF000662381F0F7012081862F062E000C990BB5
:102000002817190611F4F601608185E79AE00E940D
:102010008E0AEBCFC352D74F688185E79AE0DF91F4
:10202000CF911F910F91FF90EF90DF90CF900C9484
:102030008E0ACF93DF93FC01E158FF4FA081B1815D
:102040009C012A583F4FAD01421B530B48305105AC
:10205000B0F4EC01CD010196918380836C930190E3
:10206000F081E02D10820E948A09CE57DF4F605325
:10207000784F8F4F9F4F688379838A839B83DF914B
:10208000CF9108952F923F924F925F926F927F92DD
:102090008F929F92AF92BF92CF92DF92EF92FF9278
:1020A0000F931F93CF93DF93CDB7DEB7C754D109FA
:1020B0000FB6F894DEBF0FBECDBF8C01FE01B19606
:1020C00089E1DF011D928A95E9F780E2F8013296F5
:1020D000DE01119601900D928A95E1F7F801F281E7
:1020E0002396FFAF2397D8011396BC912496BFAFD8
:1020F0002497F801F2852596FFAF2597D8011B9606
:10210000BC912696BFAF2697F801F4852796FFAFBE
:102110002797D8011D96BC912896BFAF2897F80144
:10212000EC5BFF4FA081B18121E03FEF4FEF5FEF0C
:102130000E94D26A812C24E0922EA12CB12CA50100
:1021400094010E94B36A69017A01EFE7CE0ED11CB7
:10215000E11CF11CD8011296CC92F801EE5BFF4F06
:10216000A081B18121E03FEF4FEF5FEF0E94D26A83
:10217000A50194010E94B36ADA01C90181589F4FF9
:10218000AF4FBF4FF8018383C4828583EA5BFF4F63
:10219000A081B18121E03FEF4FEF5FEF0E94D26A53
:1021A000A50194010E94B36A69017A01FFEFCF0E85
:1021B000D11CE11CF11CD8011C96CC92F801E85B03
:1021C000FF4FA081B18121E03FEF4FEF5FEF0E9411
:1021D000D26AA50194010E94B36ADA01C901815053
:1021E0009F4FAF4FBF4FF8018287C5868387E65B5D
:1021F000FF4FD80154968C915497908190FB80F9B1
:102200003196908190FB81F93196908190FB82F913
:102210003196908190FB83F9F801848BE25BFF4F4C
:1022200052968C915297908190FB81F952968C93A3
:102230009989592F527091FD79C0869581708FAF21
:102240008B89482F4170712C80FD04C0F80194895E
:102250009170792E382F3270A12C81FD06C0D801E3
:102260005496AC90A1FAAA24A0F8282F2470B12C7F
:1022700082FD05C0F801B488B2FABB24B0F8982FEB
:102280009870612C83FD06C0D80154966C9063FA57
:10229000662460F8552309F44BC0F80182898695BD
:1022A000817051E085278EAFC12C442339F0D801CD
:1022B0005496CC90C094BC2DB170CB2ED12C33232E
:1022C00039F0F801D488D1FADD24D0F881E0D8269D
:1022D000E12C222341F0D8015496EC90E2FAEE244E
:1022E000E0F881E0E826F12C992339F0F801F48830
:1022F000F3FAFF24F0F881E0F82689A1FFADF0FBA6
:1023000081F989A39801215B3F4F490181FF12C0E8
:102310000E948A09D4016D937D938D939C931397AA
:10232000F801ED5AFF4F10821CAE40C01FAE88CF9F
:102330001EAEBACF8CA1BEADB0FB81F98CA381FFDC
:102340000DC0F9011082118212821382F801ED5A38
:10235000FF4F8081882339F31EAEE5CFD9012D9040
:102360003D904D905C902114310441045104E1F200
:10237000F801828981FFD8CF0E948A09F8EB2F0EDD
:10238000FBE03F1E411C511C261637064806590625
:1023900058F6D4011D921D921D921C92139781E054
:1023A000F801ED5AFF4F8083B1E0BCAF8BA170FA0A
:1023B00080F9A0FA81F9B0FA82F960FA83F98BA367
:1023C000F801EC5AFF4F4F0180FF0EC00E948A09AE
:1023D000D4016D937D938D939C931397F801E85AE4
:1023E000FF4F10821DAE3FC08EA1C0FA80F9D0FA17
:1023F00081F9E0FA82F9F0FA83F98EA380FF0CC02C
:102400001082118212821382F801E85AFF4F8081F4
:10241000882339F3C12CE5CF20803180428053805E
:102420002114310441045104E9F2F801848980FF48
:10243000D9CF0E948A09F8EB2F0EFBE03F1E411C0A
:10244000511C261637064806590660F6D4011D921F
:102450001D921D921C92139781E0F801E85AFF4FDC
:102460008083B1E0BDAF8BA170FA80F9A0FA81F949
:10247000B0FA82F960FA83F98BA3F801E75AFF4FAB
:102480004F0181FF0EC00E948A09D4016D937D9394
:102490008D939C931397F801E35AFF4F1082812C80
:1024A0003FC08EA1C0FA80F9D0FA81F9E0FA82F932
:1024B000F0FA83F98EA381FF0CC010821182128280
:1024C0001382F801E35AFF4F8081882339F3D12C1E
:1024D000E5CF2080318042805380211431044104B3
:1024E0005104E9F2F801848981FFD9CF0E948A0959
:1024F000F8EB2F0EFBE03F1E411C511C2616370641
:102500004806590660F6D4011D921D921D921C9238
:10251000139781E0F801E35AFF4F80838824839466
:102520008BA170FA80F9A0FA81F9B0FA82F960FA09
:1025300083F98BA3F801E25AFF4FFBAFEAAF82FFAA
:102540000FC00E948A09AAADBBAD6D937D938D9398
:102550009C931397F801EE59FF4F1082912C44C0C1
:102560008EA1C0FA80F9D0FA81F9E0FA82F9F0FA86
:1025700083F98EA382FF0EC0EAADFBAD10821182FB
:1025800012821382F801EE59FF4F8081882329F3CC
:10259000E12CE3CFAAADBBAD2D903D904D905C906A
:1025A0002114310441045104C9F2F801848982FFE5
:1025B000D5CF0E948A09F8EB2F0EFBE03F1E411C8D
:1025C000511C261637064806590640F6AAADBBAD83
:1025D0001D921D921D921C92139781E0F801EE59F5
:1025E000FF4F8083992493948BA170FA80F9A0FA0D
:1025F00081F9B0FA82F960FA83F98BA3F801ED59F9
:10260000FF4FFBAFEAAF83FF0FC00E948A09AAAD5C
:10261000BBAD6D937D938D939C931397F801E9590E
:10262000FF4F1082512C44C08EA1C0FA80F9D0FA1D
:1026300081F9E0FA82F9F0FA83F98EA383FF0EC0E4
:10264000EAADFBAD1082118212821382F801E959C2
:10265000FF4F8081882329F3F12CE3CFAAADBBADD6
:102660002D903D904D905C90211431044104510413
:10267000C9F2F801848983FFD5CF0E948A09F8EB5B
:102680002F0EFBE03F1E411C511C26163706480644
:10269000590640F6AAADBBAD1D921D921D921C922B
:1026A000139781E0F801E959FF4F80835524539433
:1026B000F80142803380F485FAAFD8011A962C9045
:1026C0001A971D96BC912196BFAF2197F801F3850B
:1026D0002296FFAF2297D801DC968C91DC97882355
:1026E00071F0DC961C92DC9781E0DB968C93DB9793
:1026F000ED91FC910480F581E02DC8011995F80158
:1027000083AD882309F490C089A1FFADF0FB81F966
:1027100089A38BA170FA80F9A0FA81F9B0FA82F945
:1027200060FA83F98BA38CA12EAD20FB81F98CA3D9
:102730008EA1C0FA80F9D0FA81F9E0FA82F9F0FAB4
:1027400083F98EA38FA13CAD30FB81F98FA389A5BE
:102750009DAD90FB80F980FA81F990FA82F950FAE8
:1027600083F989A72396AFAD23974A1A4AA62496E0
:10277000BFAD24973B1A3BA62596EFAD25972E1AA1
:102780002AAA22968FAD22972696FFAD26978F1BF9
:102790008BAB8AAD27962FAD2797821B8CAB2196EA
:1027A0008FAD219728963FAD2897831B8DAB89E18C
:1027B000FE01B196D801929601900D928A95E1F7AB
:1027C000D801ED91FC910280F381E02DC8011995AB
:1027D000F801E859FF4F80819181892B29F5F80193
:1027E00013AE81E084AF0190F081E02D0680F78187
:1027F000E02DC801C95BDF4F0FB6F894DEBF0FBEF6
:10280000CDBFDF91CF911F910F91FF90EF90DF909F
:10281000CF90BF90AF909F908F907F906F905F9080
:102820004F903F902F901994C95BDF4F0FB6F894EB
:10283000DEBF0FBECDBFDF91CF911F910F91FF90F3
:10284000EF90DF90CF90BF90AF909F908F907F9050
:102850006F905F904F903F902F900895CF93DF93AC
:102860001F92CDB7DEB76983DC01ED91FC91028048
:10287000F381E02D41E050E0BE016F5F7F4F19957D
:102880000F90DF91CF91089508958F929F92AF920C
:10289000BF92EF92FF920F931F93CF93DF93CDB729
:1028A000DEB72E970FB6F894DEBF0FBECDBF7B010B
:1028B000FC01608171818281938187012EE0822EEB
:1028C000912CA12CB12C6115710581059105E1F0C8
:1028D0002EE0EAE0F2E0DE01119601900D922A95D9
:1028E000E1F7A50194010E94E56AE1E0F0E0EC0F58
:1028F000FD1F6E0F7F1FFB018081F80181938F0107
:102900001082B901CA01DFCFC7012E960FB6F89425
:10291000DEBF0FBECDBFDF91CF911F910F91FF9012
:10292000EF90BF90AF909F908F9008959C014CE0E6
:10293000642F0E94FA6F849FB001112450E040E0A0
:10294000FB01E40FF51F93E0EE0FFF1F9A95E1F7EF
:10295000E251F34F908196FD28C04F5F5F4F4C309E
:10296000510571F7813091F0C0F1823051F183301F
:10297000E1F41092A00082E08093A1001092A500E3
:102980001092A40089BB809372000FC01092800047
:1029900082E0809381001092850010928400B19AA9
:1029A00080916F00826080936F0083E0220F331F5D
:1029B0008A95E1F7F901E251F34F808180648083C9
:1029C00008951092900080939100109295001092BB
:1029D000940088BB80937100E8CF1092200182E0C0
:1029E0008093210110922501109224018ABB8093CB
:1029F0007300DBCF2F923F924F925F926F927F9244
:102A00008F929F92AF92BF92CF92DF92EF92FF92FE
:102A10000F931F93CF93DF9300D000D01F921F928C
:102A2000CDB7DEB76C30710508F08EC0BA82A982CE
:102A3000EB82FC820D831E8349015A011B0198879A
:102A40008F8385E2869F8001879F100D11244F811F
:102A50005885040F151FD8011E968C9190E00E9496
:102A600096140E948A092B013C01840C951CA61C1B
:102A7000B71CF801818E928EA38EB48E4B815C813F
:102A80006D817E81840E951EA61EB71E858E968E44
:102A9000A78EB0A28389948945895689782F692F9A
:102AA0004817590710F4742F652F272F362FE98107
:102AB000FA812E173F0708F49F018417950708F441
:102AC000CA018217930708F49C01A1014F5F5F4F71
:102AD00085E2849FF001859FF00D11244F81588578
:102AE000E40FF51F31832083829D8001839D100DAB
:102AF0001124040F151FD8019896DC92CE92979757
:102B00009A96DC92CE9299972C193D09D0963C93D7
:102B10002E939F971E966C9170E0DA01ED91FC91D7
:102B2000119704A0F5A1E02DA601CD011995F8019A
:102B300041A252A263A274A2AF81B8851A961D92D7
:102B40001D921D921C921D9728960FB6F894DEBF19
:102B50000FBECDBFDF91CF911F910F91FF90EF90EE
:102B6000DF90CF90BF90AF909F908F907F906F90AD
:102B70005F904F903F902F900895EF92FF920F93A8
:102B80001F93CF93DF936033710588F58A01EB01C2
:102B90007B0123E0EE0CFF1C2A95E1F7F701E251DF
:102BA000F34F208126FD0CC025E2269FF001279FD0
:102BB000F00D1124E80FF91F868590E00E9496140D
:102BC00083E0CC0FDD1F8A95E1F7CF50D34F1983F7
:102BD00008838FB7F894F701E751F34F02501109BA
:102BE000000F111F178306838FBF14867894DF911F
:102BF000CF911F910F91FF90EF900895AF92BF92E8
:102C0000CF92DF92EF92FF920F931F93CF93DF93B8
:102C10008B017A012CE0289FE001299FD00D11241F
:102C20009C012751334F6901F90181819181A09065
:102C3000E90CB12C97FF20C0FB0111821082F60134
:102C400081818F5F8183818191819E01290F311D57
:102C500097FD3A952A153B051CF491819C3054F15F
:102C6000F8018081918184349C4908F46FC0F80197
:102C70008081918104966CC091819E01290F311D44
:102C800097FD3A952A153B05D4F6FE01E80FF11D94
:102C900087FDFA9593E0EE0FFF1F9A95E1F7E25159
:102CA000F34F808186FFCBCF808160E08F730E94DD
:102CB000FB08C5CFC80FD11D87FDDA9583E0CC0F87
:102CC000DD1F8A95E1F7FE01E751F34F94859923C3
:102CD00081F02681378142855385892F90E0241722
:102CE000350740F5820F931F8417950758F5978392
:102CF0008683F80180819181FE01E751F34F26819F
:102D00003781820F931FF70191838083C251D34F84
:102D1000888186FF23C0888161E08F73DF91CF9126
:102D20001F910F91FF90EF90DF90CF90BF90AF90E9
:102D30000C94FB08281B390B4217530718F43783F0
:102D40002683D7CF578346831486D3CF80E49CE96C
:102D5000F701918380838FEFF6018183DF91CF911B
:102D60001F910F91FF90EF90DF90CF90BF90AF90A9
:102D700008958F929F92AF92BF92CF92DF92EF927F
:102D8000FF926A017B01DC0151962C91519722231D
:102D900009F442C01896ED91FC91199723AD2223B6
:102DA000E1F0ED91FC910684F785E02D19954B013A
:102DB0005C01A701960160E070E080E89FE30E945B
:102DC000166BA50194010E94DF699B01AC01C7014C
:102DD000B6010E94176B6B017C0120E030E0A90175
:102DE000C701B6010E94CB6D1816D4F420E030E084
:102DF00040E85FE3C701B6010E94796987FF15C00B
:102E0000C701B6019058FF90EF90DF90CF90BF9030
:102E1000AF909F908F90089560E070E0CB01F3CF6A
:102E200060E070E080E090E8EECF60E070E080E885
:102E30009FEBE9CFDC0151962C9151972223D1F0E1
:102E40001896ED91FC91199723AD222399F0509695
:102E50008C91882369F0628570E090E080E00E94A8
:102E60007E6920E030E04FE753E40E94116C089542
:102E70006385F2CF60E070E0CB010895FC018685A8
:102E80000895FC01238921117058FC01458F568F4C
:102E9000678F70A30895FC01238921117058FC01EC
:102EA000418F528F638F748F0895FC0181E0858775
:102EB000118E128E138E148E158E168E178E10A2F2
:102EC000148A0895CF92DF92EF92FF92CF93DF930F
:102ED000EC016A017B01E885F98583AD882339F02F
:102EE000E881F9810280F381E02DCE01199520E07F
:102EF00030E0A901C701B6010E94CB6D1816DCF4C1
:102F000020E030E040E85FE3C701B6010E94796944
:102F100087FD06C0C12CD12C80E8E82E8FE3F82E67
:102F2000CD8ADE8AEF8AF88EDF91CF91FF90EF9005
:102F3000DF90CF900895C12CD12C7601F1CFCF93A3
:102F4000DF93EC018C819D819B838A830E948A0997
:102F50006F8F78A389A39AA31B861C861D861E8665
:102F60001CA21BA2DF91CF910895CF93DF93EC01B8
:102F700088819981DC01ED91FC910190F081E02D37
:102F80001995882329F08A819B81DF91CF9108953B
:102F900081E090E0FACFFC01E85BFF4F20813181B6
:102FA000232B39F0379681E0208131812F3F3F4F2D
:102FB00009F480E00895CF93DF93DC011896ED913A
:102FC000FC91199723AD21110AC01A96ED91FC913D
:102FD000309729F023AD211102C0F0E0E0E0EC01D0
:102FE000C65BDF4F2881222349F0EF2B39F0DC014B
:102FF000ED91FC910088F189E02D19958881DF9190
:10300000CF910895C8970C94DB178F929F92AF923F
:10301000BF92CF92DF92EF92FF92CF93DF93EC01BA
:103020006A017B018C89882309F462C0E881F981F7
:103030000284F385E02DCE011995E885F98581118B
:103040003EC083AD8823E9F0E881F9810084F185F1
:10305000E02DCE0119954B015C01A701960160E0BE
:1030600070E080E89FE30E94166BA50194010E9426
:10307000DF699B01AC01C701B6010E94176B6B01B0
:103080007C0120E030E0A901C701B6010E94CB6DB0
:1030900018164CF520E030E040E85FE3C701B601C8
:1030A0000E947969F7FAF094F7F8F09487FD20C050
:1030B000C12CD12C80E8E82E8FEBF82E19C083ADFF
:1030C0008823B1F0E881F9810084F185E02DCE01FB
:1030D000DF91CF91FF90EF90DF90CF90BF90AF90B6
:1030E0009F908F901994C12CD12CE12C90E8F92E4F
:1030F000C701B601DF91CF91FF90EF90DF90CF90A5
:10310000BF90AF909F908F90089580E00895DC016C
:1031100054962C9154972223D1F01896ED91FC915E
:10312000199723AD222399F053968C91882369F047
:10313000628570E090E080E00E947E6920E030E0EF
:103140004FE753E40E94116C08956385F2CF60E06D
:1031500070E0CB010895FC0181E0808B10AA11AAD8
:1031600012AA13AA14AA15AA16AA17AA0895FC014E
:1031700013AE089521E0FC0123AF0895AF92BF92F2
:10318000CF92DF92EF92FF920F931F93DC01ED91AC
:10319000FC9100A4F1A5E02D19951F910F91FF90CE
:1031A000EF90DF90CF90BF90AF9008956F927F9295
:1031B0008F929F92AF92BF92CF92DF92EF92FF9247
:1031C0000F931F93CF93DF93EC014B01E881F981BB
:1031D00060A471A40288F389E02D19955C01E8814F
:1031E000F9810088F189E02DB401CE0119956C01B7
:1031F000E12CF12C870120E030E0A901B401CE01DF
:10320000F3011995DF91CF911F910F91FF90EF90EE
:10321000DF90CF90BF90AF909F908F907F906F90F6
:103220000895CF93DF93EC01CB01BA0120E030E0A9
:1032300040E85FE30E94176B20E030E040E05FE38E
:103240000E94DF6920E030E0A9010E94176B9B011A
:10325000AC01FE01E05BFF4F8081682F70E0C25B34
:10326000DF4F88819981DF91CF910C94D618CF934D
:10327000DF93EC01FC01E05BFF4F608170E032976F
:1032800020E030E040E05FE3808191810E94D61829
:10329000CE01DF91CF910C9455174F925F926F92B0
:1032A0007F928F929F92AF92BF92CF92DF92EF92D6
:1032B000FF920F931F93CF93DF93EC014B015901C2
:1032C0006A01E881F98142A053A00484F585E02DCC
:1032D00019957C01E881F9810680F781E02DB40120
:1032E000CE0119958C01E881F9810480F581E02DEA
:1032F000B401CE0119953C01E881F9810280F38186
:10330000E02DB401CE0119959301482FB401CE01EF
:10331000F2011995DF91CF911F910F91FF90EF90DE
:10332000DF90CF90BF90AF909F908F907F906F90E5
:103330005F904F9008954F925F926F927F928F921D
:103340009F92AF92BF92CF92DF92EF92FF920F9334
:103350001F93CF93DF93EC014B018A01E881F98140
:1033600042A053A00684F785E02D19955B016C01FE
:10337000E881F9810484F585E02DB401CE01199529
:103380007C01E881F9810480F581E02DB401CE0152
:1033900019953C01E881F9810280F381E02DB401A7
:1033A000CE0119959301482FB401CE01F201199570
:1033B000DF91CF911F910F91FF90EF90DF90CF9011
:1033C000BF90AF909F908F907F906F905F904F9045
:1033D00008954F925F926F927F928F929F92AF92D9
:1033E000BF92CF92DF92EF92FF920F931F93CF93F2
:1033F000DF93EC014B013A01E881F98142A053A02F
:103400000684F785E02D19955B016C01E881F9814F
:103410000484F585E02DB401CE0119957C01E88185
:10342000F9810680F781E02DB401CE0119958C0158
:10343000E881F9810280F381E02DB401CE01199574
:103440009301482FB401CE01F2011995DF91CF917C
:103450001F910F91FF90EF90DF90CF90BF90AF90B2
:103460009F908F907F906F905F904F9008954F92B4
:103470005F926F927F928F929F92AF92BF92CF9204
:10348000DF92EF92FF920F931F93CF93DF93EC01A4
:103490004B017A01E881F98142A053A00684F785A7
:1034A000E02D19955B016C01E881F9810680F781B7
:1034B000E02DB401CE0119958C01E881F9810480D9
:1034C000F581E02DB401CE0119953C01E881F98127
:1034D0000280F381E02DB401CE0119959301482FAC
:1034E000B401CE01F2011995DF91CF911F910F9197
:1034F000FF90EF90DF90CF90BF90AF909F908F9014
:103500007F906F905F904F9008954F925F927F925F
:103510008F929F92AF92BF92CF92DF92EF92FF92E3
:103520000F931F93CF93DF93EC014B01742EE8812F
:10353000F98142A053A00684F785E02D19955B011F
:103540006C01E881F9810484F585E02DB401CE0198
:1035500019957C01E881F9810680F781E02DB4019D
:10356000CE0119958C01E881F9810480F581E02D67
:10357000B401CE0119959C01472DB401CE01F20191
:103580001995DF91CF911F910F91FF90EF90DF90F0
:10359000CF90BF90AF909F908F907F905F904F9013
:1035A0000895FC01828181118381089590E080E07B
:1035B0000895DC01ED91FC910280F381E02D1994D6
:1035C000CF93DF93FC0114821382128211828781D0
:1035D000908596838583A585B68584E0ED01982F37
:1035E00019929A95E9F70784F089E02DDF011D9281
:1035F0008A95E9F7DF91CF9108958F929F92AF92CC
:10360000BF92CF92DF92EF92FF926B017C01C216C4
:10361000D306E406F50684F449015A018C189D0886
:10362000AE08BF080E94EC68A50194010E94B36A2D
:10363000C60ED71EE81EF91EC701B601FF90EF9017
:10364000DF90CF90BF90AF909F908F9008952F9272
:103650003F924F925F926F927F928F929F92AF9222
:10366000BF92CF92DF92EF92FF920F931F93CF936F
:10367000DF93CDB7DEB769970FB6F894DEBF0FBE04
:10368000CDBF1C014E835F83688779870A871B87BC
:103690002C873D87CE86DF86E88AF98A24013501AA
:1036A0002BA92A8B3CA93B8B4DA94C8B5EA95D8B2A
:1036B0008FA98E8B98AD9F8BA9ADA88FBAADB98F0E
:1036C0003B822A82912C812CEFE1E983EA81FB8104
:1036D00087859089A189B2892E813F814885598546
:1036E00082239323A423B523892B8A2B8B2B09F4C4
:1036F00067C08FA598A9A9A9BAA9481659066A064C
:103700007B0609F484C09C01AD01C301B2010E9493
:10371000FD1A6C837D838C01C12CD12C7601C3945E
:10372000098004C0CC0CDD1CEE1CFF1C0A94D2F7EF
:103730002A853B854C855D85C222D322E422F52271
:10374000D101ED91FC91C114D104E104F10409F41B
:1037500062C02BAD3CAD2115310539F006A8F7A9A3
:10376000E02DA901B401C1011995D101ED91FC91A0
:103770000288F389E02DCD28CE28CF2809F455C042
:103780007A896B899C898D89272F362F492F582F4D
:10379000B401C1011995EA81FB81C1A4D2A45C01E5
:1037A000EC80FD802E853F8548895989B401C1018F
:1037B0000E94BE1889818150F981FF2379F08983A5
:1037C0002FEF821A920A4A815B814B5D5F4F5B83C8
:1037D0004A835CE08516910409F078CF69960FB6AC
:1037E000F894DEBF0FBECDBFDF91CF911F910F9137
:1037F000FF90EF90DF90CF90BF90AF909F908F9011
:103800007F906F905F904F903F902F9008954C82E3
:103810005D82830181CF4DAD5EAD4115510509F447
:10382000A4CF06A8F7A9E02D9DCF7E896F89988D3A
:10383000898DAACF2F923F924F925F926F927F9283
:103840008F929F92AF92BF92CF92DF92EF92FF92B0
:103850000F931F93CF93DF93CDB7DEB72E970FB69D
:10386000F894DEBF0FBECDBF1C014F835887698718
:103870007A870B871C872D873E87260137018B822D
:103880009C82AD82BE829A838983912C812C2B816C
:103890003C814D815E8172018301421653066406AC
:1038A000750631F0C301B2010E94FD1A7B018C0143
:1038B000E981FA8187859089A189B2892F8138852C
:1038C00049855A8582239323A423B523892B8A2BE8
:1038D0008B2BD1F0D101ED91FC910288F389E02D81
:1038E0002CA13DA14EA15FA1B401C1011995E981AF
:1038F000FA81C1A4D2A45C012B853C854D855E85EF
:10390000B401C1010E94BE18FFEF8F1A9F0A2981DE
:103910003A812B5D3F4F3A8329833CE08316910423
:1039200009F0B5CF2E960FB6F894DEBF0FBECDBF0F
:10393000DF91CF911F910F91FF90EF90DF90CF908B
:10394000BF90AF909F908F907F906F905F904F90BF
:103950003F902F9008952F923F924F925F926F92D7
:103960007F928F929F92AF92BF92CF92DF92EF920F
:10397000FF920F931F93CF93DF93CDB7DEB763977B
:103980000FB6F894DEBF0FBECDBF8A839B834C83F6
:103990005D836E837F83088719872A873B87CC8660
:1039A000DD86EE86FF8624013501CDA4C88ADEA41B
:1039B000D98AEFA4EA8AF8A8FB8A1C01912C812CF1
:1039C0002FE12983F10187859089A189B289CC8073
:1039D000DD80EE80FF808C219D21AE21BF21892BCF
:1039E0008A2B8B2B09F441C029A53AA54BA55CA5D0
:1039F000B201C301421653066406750611F00E9417
:103A0000FD1AD10199964D915C9101E010E020E002
:103A100030E0098004C0000F111F221F331F0A94D9
:103A2000D2F7C884D984EA84FB840C211D212E217D
:103A30003F21AA88BB88012B022B032B11F0A888F9
:103A4000B988A40EB51E6A017B018C012C853D85C9
:103A50004E855F85B4018A819B810E94BE18898151
:103A60008150D980DD2061F089832FEF821A920A7C
:103A700035E2230E311C4CE08416910409F0A2CFEC
:103A800063960FB6F894DEBF0FBECDBFDF91CF9126
:103A90001F910F91FF90EF90DF90CF90BF90AF906C
:103AA0009F908F907F906F905F904F903F902F905E
:103AB00008952F923F924F925F926F927F928F92D2
:103AC0009F92AF92BF92CF92DF92EF92FF920F93AD
:103AD0001F93CF93DF93CDB7DEB763970FB6F894FC
:103AE000DEBF0FBECDBF8A839B834C835D836E8315
:103AF0007F83088719872A873B87CC86DD86EE86F9
:103B0000FF86240135010DA5088B1EA5198B2FA555
:103B10002A8B38A93B8B1C01912C812C4FE14983C6
:103B2000F10187859089A189B2890C811D812E813F
:103B30003F8180239123A223B323892B8A2B8B2BB4
:103B400009F43FC029A53AA54BA55CA57201C301A4
:103B5000421653066406750621F0B2010E94FD1A52
:103B60007B0141E050E060E070E0098004C0440F58
:103B7000551F661F771F0A94D2F7088519852A8575
:103B80003B854023512362237323AA88BB88452B9E
:103B9000462B472B11F0A888B988D1019996CD9072
:103BA000DC908C012C853D854E855F85B4018A8132
:103BB0009B810E94BE1889818150B981BB2361F02D
:103BC0008983EFEF8E1A9E0AF5E22F0E311C0CE06E
:103BD0008016910409F0A4CF63960FB6F894DEBF67
:103BE0000FBECDBFDF91CF911F910F91FF90EF904E
:103BF000DF90CF90BF90AF909F908F907F906F900D
:103C00005F904F903F902F9008952F923F924F9248
:103C10005F926F927F928F929F92AF92BF92CF925C
:103C2000DF92EF92FF920F931F93CF93DF93CDB765
:103C3000DEB72E970FB6F894DEBF0FBECDBF8D83D3
:103C40009E834F83588769877A870B871C872D87C8
:103C50003E872601370189829A82AB82BC821C0191
:103C6000912C812C09811A812B813C817201C30125
:103C7000401651066206730631F0A9019801B2019F
:103C80000E94FD1A7B01D1011F964D915D916D91AE
:103C90007C9152970F81188529853A8540235123BD
:103CA00062237323452B462B472B89F09996CD90A1
:103CB000DC90ACA0BDA0AC0CBD1C8C012B853C8560
:103CC0004D855E85B4018D819E810E94BE181FEFD7
:103CD000811A910A25E2220E311C3CE083169104E0
:103CE00009F62E960FB6F894DEBF0FBECDBFDF915A
:103CF000CF911F910F91FF90EF90DF90CF90BF90E9
:103D0000AF909F908F907F906F905F904F903F907B
:103D10002F9008952F923F924F925F926F927F92D1
:103D20008F929F92AF92BF92CF92DF92EF92FF92CB
:103D30000F931F93CF93DF93CDB7DEB72E970FB6B8
:103D4000F894DEBF0FBECDBF8D839E834F8358870F
:103D500069877A870B871C872D873E872601370165
:103D600089829A82AB82BC821C01912C812C0981B0
:103D70001A812B813C817201C301401651066206F3
:103D8000730631F0A9019801B2010E94FD1A7B016E
:103D9000D1011F964D915D916D917C9152970F814C
:103DA000188529853A854023512362237323452BA7
:103DB000462B472B79F09996CD90DC90ACA0BDA016
:103DC0008C012B853C854D855E85B4018D819E815E
:103DD0000E94BE181FEF811A910A25E2220E311CA3
:103DE0003CE08316910419F62E960FB6F894DEBFC8
:103DF0000FBECDBFDF91CF911F910F91FF90EF903C
:103E0000DF90CF90BF90AF909F908F907F906F90FA
:103E10005F904F903F902F900895FB0101900020FC
:103E2000E9F73197AF01461B570BDC01ED91FC918F
:103E30000280F381E02D199468E973E00C940D1F62
:103E40000F931F93CF93DF93EC010E9496098C018F
:103E5000CE010E941C1F800F911FDF91CF911F91F7
:103E60000F9108950F931F93CF93DF93EC01FB0104
:103E700044815581608171810E94D91A8C01CE01E3
:103E80000E941C1F800F911FDF91CF911F910F91F6
:103E900008950F931F93CF93DF93EC010E949D0928
:103EA0008C01CE010E941C1F800F911FDF91CF91CA
:103EB0001F910F910895EF92FF920F931F93CF934D
:103EC000DF938B017A01EC01C55BDF4F888188238A
:103ED00029F08FEA9BE00E941C1F1882A701B801FD
:103EE0008FEA9BE0DF91CF911F910F91FF90EF90B0
:103EF0000C94C109CF93DF93EC01888199810097DD
:103F000069F00E940D1F88819981DC01ED91FC917F
:103F10000680F781E02DDF91CF911994DF91CF9149
:103F20000895CF93DF93EC01CA5BDF4F6BE973E039
:103F3000CE010E947A1F6EE973E0CE010E947A1FC3
:103F400066EA73E0CE010E947A1F6EEA73E0CE014A
:103F50000E947A1F66EB73E0CE010E947A1F6EEB1F
:103F600073E0CE010E947A1F68EC73E0CE01DF910E
:103F7000CF910C947A1F8F929F92AF92BF92EF9243
:103F8000FF920F931F93CF93DF93CDB7DEB7A19727
:103F90000FB6F894DEBF0FBECDBF7C01FA01CB0196
:103FA00019A2223008F42AE08E010F5D1F4F822EE5
:103FB000912CB12CA12CBF01A50194010E94E56AAE
:103FC000F901CA016A300CF5605DD8016E938D016C
:103FD000232B242B252B79F790E080E0109721F0FC
:103FE000BD01C7010E940D1FA1960FB6F894DEBF58
:103FF0000FBECDBFDF91CF911F910F91FF90EF903A
:10400000BF90AF909F908F900895695CDECFCF9264
:10401000DF92EF92FF920F931F93CF93DF936B0189
:10402000770FEE08FF08F7FE1BC0EC016DE20E945F
:1040300096098C0144275527BA014C195D096E0970
:104040007F092AE0CE010E94BB1F800F911FDF91E4
:10405000CF911F910F91FF90EF90DF90CF90089537
:104060002AE0B701A601DF91CF911F910F91FF9038
:10407000EF90DF90CF900C94BB1F0F931F93CF93C3
:10408000DF93EC010E9407208C01CE010E941C1FCF
:10409000800F911FDF91CF911F910F9108950C9484
:1040A000BB1F0F931F93CF93DF93EC010E944F2010
:1040B0008C01CE010E941C1F800F911FDF91CF91B8
:1040C0001F910F9108959A01462F50E070E060E033
:1040D0000C944F200F931F93CF93DF93EC014AE092
:1040E00050E00E9463208C01CE010E941C1F800FB3
:1040F000911FDF91CF911F910F9108950F931F93FF
:10410000CF93DF938C01EB01FC018081833009F4B4
:104110006AC0F8F48130D1F1823009F455C0F80159
:104120008081853079F08381882361F062E773E0D4
:10413000CE010E949D094AE050E0F8016381CE0162
:104140000E946320CE01DF91CF911F910F910C94BB
:104150001C1F853009F47BC008F46AC08630F9F66C
:1041600062E873E0CE010E949D094AE050E0F80148
:104170006281CE010E9463206AE773E0CE010E9453
:104180009D094AE050E0F80161811AC068ED73E0D2
:10419000CE010E949D094AE050E0F8016181CE0104
:1041A0000E946320F801828166ED73E0882309F4A0
:1041B000B6CFCE010E949D094AE050E0F80162812D
:1041C000CE010E946320ABCF6EEC73E0CE010E9463
:1041D0009D094AE050E0F8016181CE010E94632010
:1041E00064EC73E0E6CF6DEB73E0CE010E949D09B5
:1041F0004AE050E0F8016181CE010E94632065EB46
:1042000073E0CE010E949D09F8018281813069F03E
:1042100030F0823009F083CF6BEA73E002C062EBCA
:1042200073E0CE010E949D097ACF6FEA73E0F9CF67
:1042300060EA73E0CE010E949D094AE050E0F80177
:104240006181CE010E94632069E973E0B2CF63E926
:1042500073E0CE010E949D094AE050E0F8016381BD
:10426000AFCFAB0170E060E02AE00C94BB1F0F936E
:104270001F93CF93DF93EC010E9431218C01CE017B
:104280000E941C1F800F911FDF91CF911F910F91F2
:1042900008950F931F93CF93DF938C01D0E0C0E07C
:1042A0006115710519F00E940D1FEC01C8010E94F3
:1042B0001C1F8C0F9D1FDF91CF911F910F910895AF
:1042C000CF93DF93EC0168E07DE00E949D0964E0FC
:1042D0007DE0CE010E949D096CEF7CE0CE010E9442
:1042E0009D096AEF7CE0CE010E949D0967EF7CE0AA
:1042F000CE010E949D096BEE7CE0CE010E949D09DB
:1043000060EE7CE0CE010E949D096C817D81645845
:104310007E4FCE01DF91CF910C944921CF93DF9353
:10432000EC0162ED73E08FEA9BE00E944921CD58D9
:10433000DF4F0990D881C02DCE01865A964F0E943A
:104340003719CB59D64F1882DF91CF910895CF936B
:10435000DF93EC016AEE73E08FEA9BE00E94492153
:10436000FE01ED58FF4F0190F081E02DEB59F64F23
:1043700081E080830E948A09C159DF4F6883798375
:104380008A839B83DF91CF910895CF93DF93EC01D4
:104390006FEF73E08FEA9BE00E944921FE01ED5828
:1043A000FF4F0190F081E02DE95EF64F81E08083C0
:1043B0000E948A09C159DF4F688379838A839B836E
:1043C000DF91CF9108950F931F93CF93DF938C01CB
:1043D000065B1F4FF80120812223F9F0EC01E881F0
:1043E000F9810280F381E02D1995CA5BDF4F65E109
:1043F00074E0CE010E947A1F60E274E0CE010E9458
:104400007A1FF80110826BE274E08FEA9BE0DF9183
:10441000CF911F910F910C944921DF91CF911F9162
:104420000F910895C8970C94E321EF92FF920F9398
:104430001F93CF93DF93EC01E881F9810288F38920
:10444000E02D19959E01265B3F4F7901811131C006
:104450008E010A5B1F4FF80180819181892B49F100
:10446000E885F98583AD811122C0EA85FB85309707
:1044700019F083AD81111DC0E881F9810280F381BB
:10448000E02DCE0119956EE374E0C8010E947A1FF9
:1044900069E474E0C8010E947A1F81E0F70180831B
:1044A00064E574E08FEA9BE00E94492102C0EF2B93
:1044B00019F3F7018081DF91CF911F910F91FF9048
:1044C000EF900895C8970C9415226115710511F0AD
:1044D0000C940D1F90E080E008950F931F93CF93ED
:1044E000DF93EC018B01188219821A821B82FB0177
:1044F00001900020E9F73197E017F10751F1288189
:1045000039814A815B81AEE0B0E00E94D26A22919B
:104510002134E9F03CF43FEC320F2053393050F0B5
:1045200020E008C0233489F024F02434C9F72DE0BA
:1045300001C02BE0AB01BC01420F511D611D711D7B
:10454000488359836A837B83D7CF2CE0F3CF2AE05B
:10455000F1CFDF91CF911F910F910895DB010D9065
:104560000020E9F7AD01FB0141505109E417F507BF
:1045700099F0DC0196962D913C919797B9016F5F68
:104580007F4F97967C936E9396976191280F391F72
:10459000D90115966C93EACF0895AF92BF92CF924E
:1045A000DF92EF92FF920F931F93CF93DF93EC0173
:1045B0008A011FA21EA26115710511F00E94AE2290
:1045C0000115110559F18EA19FA19C012F5F3F4F4D
:1045D0003FA32EA38C0F9D1F20E2FC012583F80131
:1045E00001900020E9F7CF0101976C01EEA0FFA038
:1045F00057019FEFA91AB90AC016D10679F0F80140
:1046000081918F01082E000C990B0E941972BFA294
:10461000AEA2FE01EE0DFF1D8583E8CF8EA19FA106
:10462000AC014F5F5F4F5FA34EA38C0F9D1F2DE02A
:10463000FC012583BE016B5F7F4F888199810E94B9
:10464000D91A1FA21EA2DF91CF911F910F91FF9047
:10465000EF90DF90CF90BF90AF900895CF92DF9210
:10466000EF92FF920F931F93CF93DF93FC0125A14D
:1046700001E02617F1F1162FEC016DA30E94D11A6B
:10468000082F8823B1F11FA21EA267E674E0CE01B5
:104690000E94AE22EEA0FFA06E01CE0CDF1C80E2D5
:1046A000F6018583153608F014E6A12FB0E02CE959
:1046B0003FEF4FEF5FEF0E94D26A24E630E040E028
:1046C00050E00E94B36A2C593F4F4F4F5F4FF601A5
:1046D0002683A7014D5F5F4F5FA34EA38DE08783C5
:1046E000BE016B5F7F4F888199810E94D91A1FA2FA
:1046F0001EA2802FDF91CF911F910F91FF90EF901D
:10470000DF90CF9008950E9414720F931F93CF9360
:10471000DF93EC0188819981009759F02A813B81D0
:104720002617370730F081E0DF91CF911F910F916D
:1047300008958B016F5F7F4F0E943371009759F08E
:10474000998388831B830A832C813D81232B59F70E
:10475000FC011082E8CF80E0E7CFEF92FF920F9349
:104760001F93CF93DF936115710541F480E0DF91D2
:10477000CF911F910F91FF90EF9008954115510532
:10478000B1F07B01EC010C811D81040F151FB801F4
:104790000E948523882351F3288139818C819D8152
:1047A000B701820F931F0E9440721D830C8381E02A
:1047B000DECFCF93DF93EC0188819981009711F0D0
:1047C0000E94AA70198218821D821C821B821A8282
:1047D000DF91CF910895CF93DF93EC01FB0101901E
:1047E0000020E9F73197AF01461B570B0E94AD231C
:1047F000811103C0CE010E94D923CE01DF91CF9158
:104800000895CF93DF93EC01FB01448155816081D2
:1048100071810E94AD23811103C0CE010E94D92372
:10482000CE01DF91CF910895EF92FF920F931F93E6
:10483000CF93DF93EC017B018A01BA010E948523AB
:1048400081110BC0CE010E94D923CE01DF91CF91FF
:104850001F910F91FF90EF9008951D830C83B70176
:10486000888199810E944072F0CFEF92FF920F935E
:104870001F93CF93DF93CDB7DEB762970FB6F8944F
:10488000DEBF0FBECDBF8C01CB01F80111821082BB
:1048900013821282158214824AE09E012F5F3F4FDD
:1048A0007901B9010E944469F70101900020E9F7FC
:1048B0003197AF014E195F09B701C8010E94142456
:1048C00062960FB6F894DEBF0FBECDBFDF91CF91D9
:1048D0001F910F91FF90EF900895FC0111821082BB
:1048E0001382128215821482FB0101900020E9F7E5
:1048F0003197AF01461B570B0C941424FC018081A7
:104900009181009711F00C94AA7008950C94AA70EC
:104910001F93CF93DF9385ED8093BC008091F609C0
:104920009091F709A091F809B091F9090796A11D96
:10493000B11D23E0B695A795979587952A95D1F750
:104940002091BC0024FD03C010923E0A52C0409149
:10495000F6095091F7096091F8097091F909452B12
:10496000462B472B69F30097A105B10541F02AE2D8
:104970002A95F1F700C00197A109B109E1CF809113
:10498000F509C1E0C093F409882399F1D091B800EA
:104990001091BA008091BC008A7B8093BC0060E0DB
:1049A00084E10E94FB0860E085E10E94FB08109210
:1049B0003E0AC093400A10923F0A61E084E10E94DF
:1049C000FB0861E085E10E94FB088091B9008E7FC1
:1049D0008093B9008091B9008D7F8093B90088E4FD
:1049E0008093B80085E48093BC001093BA00D09304
:1049F000B800DF91CF911F910895FF920F931F93FD
:104A0000CF93DF93EC018B01FB01F0800E949D6A44
:104A1000F81621F06F2DCE010E94A56AF801F180F1
:104A20002196CE010E949D6AF81621F06F2DCE01CD
:104A30000E94A56AC801DF91CF911F910F91FF904D
:104A400008950C949D6A0F931F93CF93DF938C016D
:104A5000EB01BC016C1B7D0B77FF03C07195619569
:104A60007109072E000C880B990B0E94806920E0C9
:104A700030E044EB53E40E94DB6C20E030E044EB98
:104A800053E40E94DB6C0E94836C9B01653B7105C3
:104A900084F028E631E0261B370B0C171D071CF4A9
:104AA000319521953109C901DF91CF911F910F9166
:104AB0000895C017D107BCF722273327261B370BD1
:104AC000F2CFCF92DF92EF92FF920F931F93CF938B
:104AD000DF93EC017B01DB011D921C9210E06C0165
:104AE000B5E0CB0ED11C0A81002339F18881998170
:104AF000DC01ED91FC910084F185E02D1995892B65
:104B000091F388819981DC01ED91FC910284F38518
:104B1000E02D19952EA13FA18D309105E9F4FE01FC
:104B2000E20FF31F1582F701318320831FA21EA21B
:104B30008D81811102C0112359F0CE010596DF91BC
:104B4000CF911F910F91FF90EF90DF90CF9008953C
:104B500010E0C9CF11E0C7CF2F31310520F6A901F0
:104B60004F5F5F4F5FA34EA32C0F3D1FD9011596DA
:104B70008C934C0F5D1FFA0115821111EBCF6BE680
:104B800074E0C6010E943772892B11F71D821FA2A3
:104B90001EA2102FA8CFEF92FF920F931F93CF93D7
:104BA000DF937C01EB0109900020E9F72197C61BF8
:104BB000D70BFC0100811181AE01C8010E94477230
:104BC000892B69F4C00FD11FF701D183C08381E025
:104BD000DF91CF911F910F91FF90EF90089580E0AA
:104BE000F7CFEF92FF920F931F93CF93DF931F9214
:104BF0001F92CDB7DEB79A8389837A018901CE01EE
:104C000001960E94CB25882381F0A981BA81119653
:104C10009C911197911112C0F7019191992371F014
:104C20002C919213FACFF80190830F900F90DF919F
:104C3000CF911F910F91FF90EF90089580E0F5CFF5
:104C40002F923F924F925F926F927F928F929F929C
:104C5000AF92BF92CF92DF92EF92FF920F931F938A
:104C6000CF93DF93CDB7DEB76E970FB6F894DEBF64
:104C70000FBECDBF7E8F6D8FDC011496ED90FC9042
:104C800064E774E0CE014D960E94CB25682E882300
:104C9000A9F1870104581E4FB4E4EB1AB7EFFB0AE1
:104CA000F7018081843110F0612CD8C6C82ED12C38
:104CB0009CE0F801899FE00DF11D11247E96DF0133
:104CC0001D929A95E9F79F01285F3F4FAD8DBE8DEC
:104CD0008C91882349F38C3209F49AC62E173F072A
:104CE00019F3CD0101969E8F8D8F8C918193108247
:104CF000EDCF8237C9F681E081A7A9C665EC75E0E2
:104D0000CE014D960E94CB25782E882309F421C12F
:104D1000FE01319684E1DF011D928A95E9F78D8DC0
:104D20009E8D9E8B8D8B8F01D12CBE016B5E7F4F34
:104D30008D899E890E94700FF801619371938F0194
:104D4000ED89FE8980818111CBC021E02D0D2330BA
:104D500008F484C689809A8041E0841A91085CE056
:104D60008516910408F07AC63CE0389DC001399D53
:104D7000900D1124F701E657FD4FE80FF91F6B81E5
:104D80007C81643B71050CF4B7C064EB60838D815A
:104D90009E81D12C1816190634F4853B910514F028
:104DA00084EB90E0D82ED182233009F4A9C06F8122
:104DB0007885161617060CF0ADC0653B710514F02A
:104DC00064EB70E06283253008F4A6C089859A857B
:104DD000181619060CF0A0C0853B910514F084EB61
:104DE00090E083838B859C85263010F490E080E0F2
:104DF0009583848384E6273058F08D859E85181628
:104E000019060CF08BC08536910514F084E690E00D
:104E10008783283040F0662463948F85988918161C
:104E200019060CF0612C6682293008F479C00989D2
:104E30001A890036B9E01B070CF079C0003243E054
:104E4000140714F400E213E0118700872A3008F4F5
:104E500071C0EB88FC8850E6E51659E0F5060CF0C9
:104E600070C080E2E81683E0F80624F430E2E32E16
:104E700033E0F32EF386E28670E090E080E00E945B
:104E80007E691B012C016D2D70E090E080E00E9496
:104E90007E699B01AC01C201B1010E94116C5B01F2
:104EA0006C01611053C0502E612E8701B70190E054
:104EB00080E00E947E69A60195010E94DF690E9440
:104EC0008A6C42E0480DA12CB12C65017B01252D97
:104ED000362DB4018CEC98E10E94860E672CBEC57D
:104EE0008C3209F0BBC53196FE8BED8BD394F4E187
:104EF000DF121BCF24E12ECF77FF48CF60E046CFF3
:104F0000AD2DA61BBB0BCD01B7FD019695958795E1
:104F1000680F58CF60E056CF80E063CF80E078CF55
:104F2000D701A458BE4F1E960D911C918DCF00E65F
:104F300019E08ACFD701A458BE4F5096ED90FC904F
:104F400099CF20E6E22E29E0F22E94CF5E2C6F2C32
:104F5000ADCF66E874E0CE014D960E94CB25882344
:104F600009F4DFC0AE014F5F5F4F85E0DA011D92AB
:104F70008A95E9F7BE016B5E7F4F8D8D9E8D0E94F5
:104F8000310F682E882309F469C58D89833008F4B0
:104F90008BCE09818FEF800F893008F085CE10E02D
:104FA0000150104C000F111F000F111FC701865E2A
:104FB0009C4F080F191F84E0F80111928A95E9F7B8
:104FC0008A81D8018C9313961C928A81833009F4CC
:104FD00066C040F48130C9F0823009F442C0F80163
:104FE00010824BC0853009F47EC008F46EC0863054
:104FF000B1F78B81853608F084E6F80181838D89CD
:10500000843008F48AC08C8120C08B81F701E4547D
:10501000F74F90818917F0F48823F9F0F801818324
:105020009D899430E0F09C81D80112969C93B4E85D
:10503000EB1ABEEFFB0AF7012CE0829FE00DF11D99
:10504000112487A1981708F4892FD80112968C9300
:10505000129760C0892F9111E1CF81E0DFCF90E0FE
:10506000E3CF8B818823C9F0893008F088E0F8010C
:1050700081838AE582838A818083D8018C918530FF
:1050800009F4ECC48D89843008F4E8C4843009F450
:1050900046C08D81F8018383E1C481E0E8CF8B8134
:1050A000882379F0893008F088E0D80111968C9334
:1050B0008D89843040F08C81833008F082E0F801E3
:1050C000D9CF81E0F2CF80E0F7CF8B81853608F031
:1050D00084E6D80111968C938D89843010F08C81F0
:1050E000EECF80E0ECCF8B818B3008F08AE0D801E6
:1050F00013968C9368E774E08FEA9BE00E94652228
:10510000F80163818FEA9BE00E946A20D8018C91AC
:105110008111B3CF8A818C93B0CF80E096CF80E0AD
:10512000B9CF65E874E0CE014D960E94CB25682E7C
:10513000882309F4A9C0AE014F5F5F4F85E0DA0113
:105140001D928A95E9F7BE016B5E7F4F8D8D9E8D16
:105150000E94310F682E882309F480C48D89833022
:1051600008F4A2CDE9818FEF8E0F893008F09CCD35
:10517000F0E0E150F04CEE0FFF1FEE0FFF1FC701F4
:10518000825C9C4FE80FF91F84E0DF011D928A9535
:10519000E9F79A81908313828A81833009F456C09B
:1051A00038F48130B1F0823009F445C0108232C049
:1051B000853009F45EC010F08630C1F78B818536EA
:1051C00008F084E681838D89843008F45BC08C818B
:1051D0001EC08B81D701A454B74F9C91891720F52D
:1051E000882329F181839D89943018F19C819283D1
:1051F000B4E8EB1ABEEFFB0AD7012CE0829FA00DAA
:10520000B11D112497968C91981708F4892F8283E9
:105210008A8180838081853009F420C48D8984301F
:1052200008F41CC48C8137CF892F9111DBCF81E02A
:10523000D9CF90E0DCCF8B81882331F0893008F022
:1052400088E081838AE5E3CF81E0FBCF8B818823EF
:1052500061F0893008F088E081838D89843038F0EE
:105260008C818330A0F282E0D2CF81E0F5CF80E064
:10527000F8CF8B818B3008F08AE0838385E0992317
:1052800041F2C8CF80E0C3CF69E874E0CE014D960B
:105290000E94CB25582E882349F187010654174FC9
:1052A000D801EC91E73208F0E7E26D8D7E8DB4E82D
:1052B000EB1ABEEFFB0AF0E2EF9F60011124C6017A
:1052C000825C9D4F4FE150E08E0D9F1D0E945572F4
:1052D000EC0CFD1CF701E35AFD4F1082D8018C91B4
:1052E000883208F0E1CC8F5F8C93B8C36CE874E02F
:1052F000CE014D960E94CB25882309F4C4C0FE013F
:105300003196BF019E01275F3F4FAD8DBE8D8C91C1
:105310008C3209F4BDC3882309F4BDC32E173F079F
:1053200018F08083118231968D8D9E8D01969E8F0F
:105330008D8FEBCF853009F490C018F0863009F0DE
:1053400006C4F401E551FE4F8E89853608F084E6E7
:1053500080838F89923009F480E0F801EA0DFB1D0B
:10536000E451FE4F76C08E89F701E454F74F208157
:105370008217E8F58823F1F1F801EA0DFB1DE551EC
:10538000FE4F80838F89923009F480E098012A0DC6
:105390003B1DF901E451FE4F808325513E4FD90159
:1053A0009C91D8012CE0929FA00DB11D11249796DD
:1053B0009C91891708F4982F9083C8018A0D9B1D32
:1053C000FC01E651FE4F2081253041F02A8D23302B
:1053D00028F083519E4F2F89FC012083D6018C91A8
:1053E0008A3010F48F5F8C93572C652C37C3822F33
:1053F0002111C2CF81E0C0CF8E89882381F089300E
:1054000008F088E098012A0D3B1DF901E551FE4F97
:10541000808324513E4F8AE5D9018C93CECF81E021
:10542000F1CF8E898823B9F0893008F088E0F8013F
:10543000EA0DFB1DE551FE4F80838F89923009F400
:1054400080E0F801EA0DFB1DE451FE4F833008F0C7
:1054500082E08083B2CF81E0EACF8E898B3008F082
:105460008AE080836FE874E08FEA9BE00E94652207
:10547000F801EA0DFB1DE351FE4F60818FEA9BE0CE
:105480000E946A209ACF97012F53374F4DE954E07D
:1054900063EA74E08D8D9E8D0E94F125882319F0BA
:1054A00066246394DBC297012152374F4CEA54E0E3
:1054B00063EB74E08D8D9E8D0E94F1258111F0CFFC
:1054C00004E620E0A7014354574F67EB74E08D8D4D
:1054D0009E8D0E9441618111E3CF08EE13E030E020
:1054E00020E0A7014E53574F6FEB74E08D8D9E8DDA
:1054F0000E9478618111D4CF6701B4E8CB1ABEEF66
:10550000DB0A30E020E0A7014C53574F69EC74E010
:105510008D8D9E8D0E9478618111C2CF5601E2E18E
:10552000AE0EB11C04E610E030E020E0A50163ED12
:1055300074E08D8D9E8D0E9478618111B1CF0FEF47
:1055400013E024E833E0A5016BED74E08D8D9E8DB2
:105550000E9478618111A4CF04E610E030E020E0E1
:10556000A50163EE74E08D8D9E8D0E94786181119E
:1055700097CF0FEF13E024E833E0A5016BEE74E062
:105580008D8D9E8D0E94786181118ACF04EC19E087
:1055900030E020E0A601425F5F4F63EF74E08D8D45
:1055A0009E8D0E94786181117BCF30E020E0A601C2
:1055B000405F5F4F6DEF74E08D8D9E8D0E9478612E
:1055C00081116ECF08E026E0A601435F5F4F67E0E0
:1055D00075E08D8D9E8D0E944161811161CF02E346
:1055E00021E0A601445E5F4F6EE075E08D8D9E8DDB
:1055F0000E944161811154CF08E221E0A601435E7F
:105600005F4F63E175E08D8D9E8D0E944161811138
:1056100047CF04E620E0A7014953574F68E175E002
:105620008D8D9E8D0E94416181113ACF8D8D9E8D11
:105630009B8F8A8F6FE175E0CE014A960E94CB2541
:10564000682E882359F1BE01665E7F4F8A8D9B8D3F
:105650000E94FF0EEA8DFB8D208121111FC06D324B
:10566000F1E07F078105910578F0611522EC720762
:1056700021E08207910568F4F701E853F74F608352
:10568000718382839383EAC16CE271E080E090E0F1
:10569000F3CF60E072EC81E090E0EECF0FEF20E01E
:1056A000A7014452574F68E275E08D8D9E8D0E9490
:1056B00041618111F5CE20E0A7014352574F62E3CB
:1056C00075E08D8D9E8D0E9441618111E9CEA6010C
:1056D000465E5F4F08EB1BE028EE33E06AE375E0BF
:1056E0008D8D9E8D0E9478618111DACE00E520E0DB
:1056F000A7014F51574F6FE375E08D8D9E8D0E942E
:1057000041618111CDCE20E0A7014E51574F67E492
:1057100075E08D8D9E8D0E9441618111C1CEA701E2
:105720004D51574F6BE279E08D8D9E8D0E94206127
:105730008111B6CEA7014951574F6FE475E08D8DA9
:105740009E8D0E9420618111ABCEA7014551574F1C
:1057500068E575E08D8D9E8D0E9420618111A0CE3F
:10576000A7014151574F62E675E08D8D9E8D0E94D5
:105770002061811195CEA7014254574F6CE675E028
:105780008D8D9E8D0E942B6281118ACEA70141547E
:10579000574F65E775E08D8D9E8D0E942B628111BC
:1057A0007FCEA7014054574F6CE775E08D8D9E8DDD
:1057B0000E942B62811174CEA7014A53574F63E8B0
:1057C00075E08D8D9E8D0E942B62811169CEA7019F
:1057D0004252574F6AE875E08D8D9E8D0E942B6274
:1057E00081115ECEA7014052574F60E975E08D8D63
:1057F0009E8D0E942B62811153CEA701485F564FA8
:1058000068E975E08D8D9E8D0E942B62811148CED6
:10581000A7014A5F564F62EA75E08D8D9E8D0E940A
:105820002B6281113DCEAE01445E5F4F6BEA75E0A5
:105830008D8D9E8D0E942B62811132CE670141E0D9
:10584000C41A47EFD40A04E620E0A60164EB75E031
:105850008D8D9E8D0E944161682E882379F0D6013E
:105860006C9170E090E080E00E947E69AB01BC0129
:10587000C701865A964F0E946217F0C0AE014F5F73
:105880005F4F6FEB75E08D8D9E8D0E94FC618111E5
:10589000E5C09E012B5E3F4FAE014F5F5F4F6FEB48
:1058A00075E08D8D9E8D0E94B6618111D7C0AE01CD
:1058B0004F5F5F4F68EC75E08D8D9E8D0E94FC619F
:1058C0008111CCC09E012B5E3F4FAE014F5F5F4FF9
:1058D00068EC75E08D8D9E8D0E94B6618111BEC011
:1058E00008E611E030E020E0A7014B50574F62ED91
:1058F00075E08D8D9E8D0E9478618111AFC005E0AD
:1059000021E0A7014950574F6CED75E08D8D9E8DBC
:105910000E9441618111A2C05701B8E0AB1AB7EFF4
:10592000BB0A0FEF21E0A50166EE75E08D8D9E8D1F
:105930000E9441618111B4CD6701E7E0CE1AE7EF23
:10594000DE0A21E0A60163EF75E08D8D9E8D0E9439
:1059500041618111A5CD21E0A50160E076E08D8D4A
:105960009E8D0E94416181119BCD21E0A6016DE0D9
:1059700076E08D8D9E8D0E944161811191CD04EB69
:1059800021E0A7014450574F6AE176E08D8D9E8D4E
:105990000E944161811184CD21E0A7014350574FFE
:1059A00065E276E08D8D9E8D0E944161811178CDFA
:1059B00004E121E0A7014250574F60E376E08D8D6E
:1059C0009E8D0E94416181116BCD04E621E0A7010B
:1059D000575F6BE376E08D8D9E8D0E944161811152
:1059E0005FCDA7014F5F564F21E06AE476E08D8DD1
:1059F0009E8D0E944161811153CD69E576E08D8DC8
:105A00009E8D0E943772009749F5FC0119954CC98B
:105A1000CD0101969E8F8D8FBE01635E7F4F0E94E8
:105A2000FF0E8CE08C9DF0018D9DF00D1124E00F98
:105A3000F11F67A3AD8DBE8D8C918C3209F05BC9CF
:105A400011968C911197833709F053C911A68C9147
:105A500081112AC9F70180818F5F8083862D6E9620
:105A60000FB6F894DEBF0FBECDBFDF91CF911F916F
:105A70000F91FF90EF90DF90CF90BF90AF909F90ED
:105A80008F907F906F905F904F903F902F900895F0
:105A90001196BE8FAD8F6701B5E4CB1AB7EFDB0A65
:105AA000F6018081893008F089E0F8E08F9F50018D
:105AB0001124870104581E4FC5018A519E4F800F43
:105AC000911F0E946D2248018A0C9B1CF401EA512F
:105AD000FE4F80819181A281B381892B8A2B8B2BF0
