:020000040000FA
:100000000C949D070C94CE070C94CE070C94CE074D
:100010000C94CE070C94CE070C94CE070C94CE070C
:100020000C94CE070C94CE070C94CE070C94CE07FC
:100030000C94CE070C94CE070C94CE070C94CE07EC
:100040000C94CE070C944A5E0C94CE070C94CE0709
:100050000C94CE070C94CE070C94CE070C94065B40
:100060000C94CE070C94765C0C944C5C0C94CE07EC
:100070000C94CE070C94CE070C94CE070C94CE07AC
:100080000C941C5E0C94CE070C94CE070C94CE07F7
:100090000C94225C0C94F85B0C94CE070C94A05C3E
:1000A0000C94CE070C94CE070C94EE5D0C94CE0706
:1000B0000C94CE070C94CE070C94CE070C94C05D24
:1000C0000C94CE070C94CE070C94CE070C94CE5B08
:1000D0000C94A45B0C94CE070C947A5B0C94505B4C
:1000E0000C94CE07084AD73B3BCE016E84BCBFFDC3
:1000F000C12F3D6C74319ABD56833DDA3D00C77FF8
:1001000011BED9E4BB4C3E916BAAAABE0000008090
:100110003F05A84CCDB2D44EB93836A9020C50B91F
:10012000918688083CA6AAAA2ABE000000803F0744
:10013000634236B79BD8A71A39685618AEBAAB5582
:100140008C1D3CB7CC5763BD6DEDFD753EF6177247
:1001500031BF000000803F08000000BE9224491219
:100160003EABAAAA2ABECDCCCC4C3E00000080BE3D
:10017000ABAAAAAA3E00000000BF000000803F001A
:1001800000000000084178D3BB4387D1133D190E0E
:100190003CC3BD4282AD2B3E68EC8276BED98FE176
:1001A000A93E4C80EFFFBE01C4FF7F3F000000006E
:1001B00000000C940A140C946B480C941B170C94BC
:1001C00080180C94F40C0C94B0080C94E01B0C9464
:1001D000360E0C949C1A0C9462220C942D300C94C4
:1001E0008D080C94140A0C944D0B0C948E410C94B5
:1001F000B4080C94C8080C9491080C94AF190C9492
:100200005A2D0C94CB1D0C949C080C94BE080C9495
:1002100011170C94A6080C94AC080C940D0E0C94B9
:10022000CB170C94FD190C9407170C94BA080C9476
:100230004D180C94CC080C94C0140C94BF0B0C9467
:100240004E310C9404170C94501E0C9435300C94C1
:10025000C7080C94360A0C944A0D0C948E210C9409
:10026000000D0C9401670C9451310C94EB0E0C941E
:10027000ED1A0C944B180C94C8170C94711C0C9428
:10028000D5570C948C0A0C94810E0C9495080C9400
:10029000050A0C94E3210C94CE300C94F30C0C94CE
:1002A00070450C94F50C0C945F0E0C94C6300C94B5
:1002B000D90E0C94310D0C944D0E0C941F0E0C9411
:1002C000A1170C944B1A0C945D410C94211F0C94B3
:1002D000453C0C9499080C947D180C94D2570C94BE
:1002E00061190C94FD180C947F160C94C2080C94A0
:1002F00043610C947E0D0C94BE0B0C94200D0C9459
:10030000C5210C94CD220C94F80D0C94571F0C941D
:1003100013190C9412220C94E0160C94840E0C9475
:1003200087080C945D2F0C94DE340C9415220C94E9
:1003300071180C9483150C94710E0C945D0B0C9435
:10034000BF090C94280A0C945C470C94232E0C943F
:10035000A7210C94F00C0C94A2080C94F4130C94A8
:10036000D7180C941F1D0C94D0230C94D90A0C940C
:1003700091172C204175782023002C20446573743C
:10038000200069326320417578204F757470757450
:100390002023004175782023002C20436D643D000C
:1003A00069326320446573742023004D4F4E004E24
:1003B00043004E4F002C20547970653D00444F752A
:1003C000742023002C204F6E20506F733D00536526
:1003D00072766F2023002C00536F756E642042618B
:1003E0006E6B202300292053657269616C3A2000EE
:1003F000417567202034203230323300202800310C
:1004000000204275696C642000312E3200202D20BE
:1004100000416D6964616C61205243004175746FE5
:1004200020436F72726563742047657374757265DB
:100430007320456E61626C6564004E6F20693263A3
:10044000206465766963657320636F6E666967759E
:1004500072656400496E6974206932632042757365
:100460000041637469766174696E672044696769E5
:1004700074616C204F757470757473004163746996
:10048000766174696E6720536572766F730052658A
:100490006164696E6720436F6E6669672046696CA8
:1004A00065004C6F6164696E6720636F6E66696793
:1004B0002066726F6D20454550524F4D001B5B31D9
:1004C000363B3148001B5B306D001B5B31333B36E4
:1004D00048001B5B31323B343448001B5B31323BFC
:1004E0003648001B5B31313B343448001B5B3131F3
:1004F0003B3648001B5B393B343648001B5B393BBD
:10050000343048001B5B393B333448001B5B393BBC
:10051000323848001B5B393B323248001B5B393BA9
:10052000313648001B5B393B313048001B5B393B9F
:100530003448001B5B353B333248001B5B353B3294
:100540003348001B5B353B313448001B5B353B3582
:1005500048001B5B343B333248001B5B343B323377
:1005600048001B5B343B313448001B5B343B35484F
:10057000001B5B333B333248001B5B333B32334859
:10058000001B5B333B313448001B5B333B35480079
:100590006D202D20536572766F204D6F6E69746FDC
:1005A0007220546F67676C65206F6E2F6F666600F0
:1005B00063202D2053686F7720636F6E6669672014
:1005C000696E20454550524F4D006C202D204C6FD8
:1005D000616420636F6E6669672066726F6D204587
:1005E0004550524F4D0077202D2057726974652079
:1005F000636F6E66696720746F20454550524F4D9A
:100600000078202D20446973706C61792F536574D4
:10061000205842454520616464726573732C202024
:10062000787B5B6E5D3D5B68686868686868685D7C
:100630007D2E206E3D31206F7220322C206868683C
:1006400068686868683D48657820616464726573AD
:10065000730069202D2069326320436F6D6D616ED8
:10066000642C20697B6E6E6E7D2C7B6D6D6D7D2E96
:10067000206E6E6E3D4465737420416464722C205C
:100680006D6D6D3D436D640061202D204F7574705C
:10069000757420737472696E6720746F2041757869
:1006A0002073657269616C2C20615B737472696E72
:1006B000675D006F202D2053657420444F55542EE4
:1006C000206F7B6E6E7D2C7B6D7D2E206E6E3D23AC
:1006D0002C206D3D31206F7220302C20323D746F04
:1006E00067676C652C20333D6D6F6D0073202D2086
:1006F00053657420536572766F2E20737B6E6E7D0A
:100700002C7B6D6D6D7D2C7B6F6F6F7D2E206E6EE3
:100710003D232C206D6D6D3D706F732C206F6F6FBE
:100720003D7370640024202D20506C617920736F1C
:10073000756E642C20247B6E6E7D5B7B6D6D7D5DA4
:100740002E206E6E3D62616E6B2C206D6D3D2066BD
:10075000696C65206E756D6265720072202D205285
:10076000616E646F6D20736F756E6473206F6E2F92
:100770006F66660064202D2043757272656E74206A
:10078000636F6E66696775726174696F6E0076205B
:100790002D204669726D7761726520766572736986
:1007A0006F6E0068202D2054686973206D65737327
:1007B000616765003A200052656D6F746520436F74
:1007C0006E736F6C6520436D64204F6E00466169E7
:1007D0006C736166653A0020726576002C206D614D
:1007E0007870756C73653D002C206D696E70756C4A
:1007F00073653D002C20733D002C20743D002C209F
:10080000643D002C206E3D002C206D61783D003A47
:10081000206D696E3D004368616E6E656C2F536597
:1008200072766F733A0066616C73650074727565F9
:100830000066616C7365007472756500646F6D6548
:100840006368363A2000646F6D6573706565647324
:1008500065656B3A2000646F6D65737065656468EB
:100860006F6D653A2000646F6D6573706565643AFD
:100870002000646F6D657365656B723A2000646F6C
:100880006D657365656B6C3A2000646F6D656675A8
:100890006467653A2000646F6D657365656B6D61B3
:1008A000783A2000646F6D657365656B6D696E3AAB
:1008B0002000646F6D65686F6D656D61783A20002A
:1008C000646F6D65686F6D656D696E3A2000646F69
:1008D0006D65676573743A2000646F6D65666C6959
:1008E000703A2000646F6D65686F6D653A20006432
:1008F0006F6D656D6F64653A2000417578205365B2
:100900007269616C20537472696E6720436F6D6DFC
:10091000616E64733A0041757820496E69743A20BB
:100920000041757820454F4C3A20004175782044AD
:10093000656C696D697465723A2000417578205361
:10094000657269616C20426175643A20004175747A
:100950006F20436F7272656374204765737475729C
:10096000657320456E61626C65640020526E642080
:10097000536F756E64204F6E2F4F66660020416383
:100980006B204F6E2F4F66660020476F20536C6FB1
:1009900077204F6E2F4F66660047657374757265DA
:1009A000733A00456E61626C652F44697361626CD5
:1009B000652044726976657300536C6F772F4661CA
:1009C0007374204D6F646500456E61626C652F44E1
:1009D000697361626C652052656D6F746573003A6E
:1009E00020003A20004C6F6E6720427574746F6E61
:1009F000733A003A2000427574746F6E733A0020A7
:100A00002839392900436F6E6669677572656420FD
:100A100069326320646576696365733A20004D79B5
:100A20002069326320416464726573733A20002048
:100A30002872616E64290029002028003A20004FA6
:100A40006666004F6E00204D617829002028005313
:100A50006F756E642042616E6B733A200041636B68
:100A60002054797065733A20004F6666004F6E001F
:100A700041636B20536F756E643A2000202D200077
:100A800052616E646F6D20536F756E642044656CA7
:100A900061793A2000526E6420536F756E643A207B
:100AA00000566F6C3A20004A3120562F482041648E
:100AB0006A7573743A00204A32565245463A004AE3
:100AC00031565245463A00204A323A004A313A00FD
:100AD000436F6E66696700436F6E66696720284DD5
:100AE000696E696D616C20454550524F4D204D6FC8
:100AF000646529004F6666004F6E0052616E646F38
:100B00006D2000204A323A004A313A001B5B3133F3
:100B10003B3148494D553A001B5B31323B33394834
:100B2000486F6D653A001B5B31323B313148446F91
:100B30006D652044656C61793A001B5B31323B3155
:100B400048446F6D653A001B5B31313B3339484D8A
:100B50006F64653A001B5B31313B313148536F752F
:100B60006E642044656C61793A001B5B31313B3126
:100B700048566F6C3A001B5B393B343348383A00B7
:100B80001B5B393B333748373A001B5B393B33310A
:100B900048363A001B5B393B323548353A001B5B1F
:100BA000393B313948343A001B5B393B31334833E8
:100BB0003A001B5B393B3748323A001B5B393B310B
:100BC00048313A001B5B373B3148446967697461BF
:100BD0006C204F75743A001B5B316D001B5B353B1D
:100BE00032384831323A001B5B353B3139483131BC
:100BF0003A001B5B353B31304831303A001B5B35E6
:100C00003B3148393A001B5B343B323848383A00B4
:100C10001B5B343B313948373A001B5B343B313086
:100C200048363A001B5B343B3148353A001B5B3396
:100C30003B323848343A001B5B333B313948333A56
:100C4000001B5B333B313048323A001B5B333B3196
:100C500048313A001B5B316D536572766F204F75DA
:100C6000747075743A001B5B306D001B5B313B3157
:100C700048001B5B333B3633483D3D3D3D3D3D3DEC
:100C80003D3D3D3D3D3D3D00312E3200416D6964AD
:100C9000616C61205243001B5B323B363348001BC2
:100CA0005B313B3633483D3D3D3D3D3D3D3D3D3D6A
:100CB0003D3D3D3D001B5B3F32356C001B630055E5
:100CC000706461746564004F4646004F4E002046D4
:100CD000532000496E76616C6964320029205365A7
:100CE0007269616C3A2000417567202034203230EF
:100CF0003233002028003100204275696C642000E6
:100D0000312E3200416D6964616C61205243202DA7
:100D100020004661696C736166653A0020726576F1
:100D2000002C206D617870756C73653D002C206D12
:100D3000696E70756C73653D002C20733D002C202E
:100D4000743D002C20643D002C206E3D002C206D55
:100D500061783D003A206D696E3D00204A3256525E
:100D600045463A004A31565245463A004A323D001D
:100D70004A313D00454550524F4D20636F6E7465BA
:100D80006E74004C6F6164696E6720636F6E666994
:100D9000672066726F6D20454550524F4D00000030
:100DA0002100240027002A002D003000330001011B
:100DB0000000040107010A010000220025002800AC
:100DC0002B002E0031003400020100000501080153
:100DD0000B01000020002300260029002C002F001A
:100DE00032000001000003010601090105050505A7
:100DF000070508080808020202020A0A0808040493
:100E000004040101010101010101030303030303C0
:100E10000303040707070C0C0C0C0C0C0C0C02024F
:100E2000020206060606060606060B0B0B0B0B0B4C
:100E30000B0B0102102020080810204010204080D9
:100E4000020102010804020101020408102040808E
:100E5000804020100804020180040201804020101C
:100E60000804020108040201010204081020408065
:100E7000010204081020408000000A0B02090C0D3A
:100E80000E0807030401000000000000000000003D
:100E90000000000000000000000000000000000052
:100EA000000000001211100000000000000000000F
:100EB0000000000000000000000000000000020030
:100EC000E803D007000000000300E803D00700009B
:100ED00000000400E803D007000000000500E8035C
:100EE000D007000000000600E803D0070000000063
:100EF0000700E803D007000000000800E803D0075F
:100F0000000000000900E803D007000000000A000C
:100F1000E803D007000000000B00E803D007000042
:100F200000000C00E803D007000000000D00E803FB
:100F3000D007000000004361016711241FBECFEFFE
:100F4000D1E2DEBFCDBF00E00CBF19E0A0E0B2E00F
:100F5000EEEAF7EE00E00BBF02C007900D92A03D55
:100F6000B107D9F726E1A0EDB9E001C01D92AD3B74
:100F7000B207E1F717E0CCE9D7E000E006C021971F
:100F80000109802FFE010E94846ECB39D10780E0D9
:100F90000807A9F70E9407660C94C5730C9400001B
:100FA000CF92DF92EF92FF92CF93DF93EC016A0131
:100FB0007B01E889F98982E08083C11481EED8063B
:100FC000E104F104A1F060E079E08DE390E0A70195
:100FD00096010E94636921503109410951095695D2
:100FE000479537952795211580E1380798F0E889CE
:100FF000F989108260E874E88EE190E0A70196011B
:101000000E9463692150310941095109569547955C
:1010100037952795EC85FD853083EE85FF85208308
:10102000188EEC89FD8986E08083EA89FB898081BE
:1010300080618083EA89FB89808188608083EA8976
:10104000FB89808180688083EA89FB8980818F7D2C
:101050008083DF91CF91FF90EF90DF90CF90089544
:101060009A01FC01478150856417750780F5660F6A
:10107000771F85859685680F791FFB0160817181D7
:101080006115710521F188E592E0A0E0B0E06935D5
:10109000F2E07F0748F0613486E0780710F060E402
:1010A00076E0CB01B0E0A0E0BC01CD016855724014
:1010B000810991092AE0660F771F881F991F2A95D9
:1010C000D1F728EE33E040E050E00E943169C901D9
:1010D00008958150823108F05AC0E82FF0E0882747
:1010E000EB58F74F8F4F0C94846E9508990887083A
:1010F0008D089108C7089C08A208A608AC08B0088B
:10110000B408BA08BE08C708C208C808CC0880914D
:1011100080008F77809380000895809180008F7D7C
:10112000F9CF80918000877FF5CF84B58F7784BD1C
:10113000089584B58F7DFBCF8091B0008F77809329
:10114000B00008958091B0008F7DF9CF809190001C
:101150008F77809390000895809190008F7DF9CFD4
:1011600080919000877FF5CF8091A0008F7780934A
:10117000A00008958091A0008F7DF9CF8091A000FC
:10118000877FF5CF809120018F778093200108958C
:10119000809120018F7DF9CF80912001877FF5CF4D
:1011A000CF93DF93282F30E0F901E858F14F849175
:1011B000F901EE5CF14FD491F901E451F24FC49181
:1011C000CC23A1F081110E946908EC2FF0E0EE0F12
:1011D000FF1FEE52F24FA591B491EC91ED2381E007
:1011E00090E009F480E0DF91CF91089580E090E0F5
:1011F000FACF1F93CF93DF93282F30E0F901E858FF
:10120000F14F8491F901EE5CF14FD491F901E45171
:10121000F24FC491CC23A9F0162F81110E946908C6
:10122000EC2FF0E0EE0FFF1FE854F24FA591B491C0
:101230008FB7F894EC91111108C0D095DE23DC93A0
:101240008FBFDF91CF911F910895DE2BF8CFCF9301
:10125000DF9390E0FC01EE5CF14F24918451924FBA
:10126000FC0184918823C9F090E0880F991FFC014C
:10127000E256F24FA591B491FC01E854F24FC591AA
:10128000D49161110DC09FB7F8948C912095822361
:101290008C938881282328839FBFDF91CF91089565
:1012A000623051F49FB7F8943C91822F809583234C
:1012B0008C93E8812E2BEFCF8FB7F894EC912E2BE7
:1012C0002C938FBFEACF3FB7F8948091550A909145
:1012D000560AA091570AB091580A26B5A89B05C096
:1012E0002F3F19F00196A11DB11D3FBFBA2FA92FA5
:1012F000982F8827BC01CD01620F711D811D911DA2
:1013000042E0660F771F881F991F4A95D1F708950D
:101310002FB7F8946091510A7091520A8091530A44
:101320009091540A2FBF0895DC01ED91FC9101903A
:10133000F081E02D1994EF92FF920F931F93CF93BA
:10134000DF938C017B01D0E0C0E0F701EC0FFD1FC3
:101350006491662361F0D801ED91FC910190F081D8
:10136000E02DC8011995892B11F02196EECFCE0101
:10137000DF91CF911F910F91FF90EF900895AF9261
:10138000BF92CF92DF92EF92FF920F931F93CF9372
:10139000DF936C017B018B01040F151FEB015E01D4
:1013A000AE18BF08C017D10759F06991D601ED9169
:1013B000FC910190F081E02DC6011995892B79F7F8
:1013C000C501DF91CF911F910F91FF90EF90DF90BA
:1013D000CF90BF90AF900895FC01A089B1898C9106
:1013E000A689B78982FD0FC09C91818D8F5F8F7315
:1013F000228D821749F0A18DAE0FBF2FB11D5D96D2
:101400009C93818F08958C910895FC01538D448D98
:10141000252F30E0842F90E0821B930B541710F09F
:10142000CF96089501970895FC01918D828D9817AC
:1014300061F0A28DAE0FBF2FB11D5D968C91928D84
:101440009F5F9F73928F90E008958FEF9FEF0895B5
:10145000FC01918D828D981731F0828DE80FF11D7E
:10146000858D90E008958FEF9FEF0895FC01918D99
:10147000228D892F90E0805C9F4F821B91098F7392
:101480009927089589E59AE00E94360A21E0892B80
:1014900009F420E0822F089580E39CE00E94360A40
:1014A00021E0892B09F420E0822F089586EF9AE04D
:1014B0000E94360A21E0892B09F420E0822F08954A
:1014C00083E99BE00E94360A21E0892B09F420E0A1
:1014D000822F0895FC01A48DA80FB92FB11DA35A26
:1014E000BF4F2C91848D90E001968F739927848F44
:1014F000A689B7892C93A089B1898C918370806467
:101500008C93938D848D981306C00288F389E02D07
:1015100080818F7D80830895EF92FF920F931F93B8
:10152000CF93DF93EC0181E0888F9B8D8C8D981396
:101530001AC0E889F989808185FF15C09FB7F894A2
:10154000EE89FF896083E889F989808183708064EE
:1015500080839FBF81E090E0DF91CF911F910F9139
:10156000FF90EF900895F62E0B8D10E00F5F1F4F48
:101570000F731127E02E8C8D8E110CC00FB607FC57
:10158000FACFE889F989808185FFF5CFCE010E94E5
:101590006A0AF1CFEB8DEC0FFD2FF11DE35AFF4FDF
:1015A000F0829FB7F8940B8FEA89FB898081806273
:1015B000CFCFCF93DF93EC01888D8823B9F0AA8930
:1015C000BB89E889F9898C9185FD03C0808186FDFE
:1015D0000DC00FB607FCF7CF8C9185FFF2CF80814D
:1015E00085FFEDCFCE010E946A0AE9CFDF91CF914E
:1015F000089580E090E0892B29F00E94600A811113
:101600000E94000080E090E0892B29F00E94560A99
:1016100081110E94000080E090E0892B29F00E9457
:101620004C0A81110E94000080E090E0892B29F093
:101630000E94420A81110C9400000895FC01A281CD
:10164000B3811C968C911C978C7129F41D968C91FA
:101650001D97EFE08111E1E130E020E070E0261716
:10166000370784F41E968C911E978F7890E0022E97
:1016700002C0959587950A94E2F780FDEE5F2F5F93
:101680003F4FEDCFEA0FFB2FF11D808190E0982FA7
:1016900088272181820F911D0895CF93DC01169632
:1016A000CC911697ED91FC910280F381E02D199574
:1016B000C150C81B8C2FCF9108958BE008952091C5
:1016C000FE09260F3327331F21323105ECF4209118
:1016D000220AFC0190E080E0243069F082E0089565
:1016E000A091FE092191AC014252564FA40FB52F93
:1016F000B11D2C930196861798F38091FE09680F0F
:101700006093FE0980E0089581E0089508958FEFC9
:101710009FEF08958FEF9FEF08958091D70990E094
:101720009195819591090895CF93DF93CB01EA01BB
:10173000642F0E945F0BCE01DF91CF910895CF936C
:10174000DF931F92CDB7DEB7698361E0CE010196CA
:101750000E945F0B81E090E00F90DF91CF910895A0
:10176000CF93DF93DC01ED91FC91309721F0EC01F8
:10177000199519821882DF91CF91089508952F92BB
:101780003F924F925F926F927F928F929F92AF9211
:10179000BF92CF92DF92EF92FF920F931F93CF935E
:1017A000DF9300D000D01F921F92CDB7DEB78C011F
:1017B0000E9488096B017C01F80182859385A485CC
:1017C000B5850196A11DB11D8C159D05AE05BF0502
:1017D00008F06AC018870F83312C212CD701C6016D
:1017E0008C509E4FAF4FBF4F8B839C83AD83BE8386
:1017F000AF81B8855D968D909D90AD90BC9090978F
:1018000081149104A104B10409F4CAC059964D9001
:101810005D906D907C905C97C414D504E604F70449
:1018200068F1C814D904EA04FB0408F456C095967C
:101830004D915C9196979A965C934E9399971E96CC
:101840006C9170E0D801ED91FC9104A0F5A1E02D20
:10185000C8011995EF81F885158E168E178E10A286
:1018600011A212A213A214A216A215A28B819C810E
:10187000AD81BE8183A794A7A5A7B6A7BFEF2B1AFA
:101880003B0AEF81F885B596F887EF83FCE02F16C9
:10189000310409F0ADCF0E948809D8011A966D93E2
:1018A0007D938D939C931D9728960FB6F894DEBF79
:1018B0000FBECDBFDF91CF911F910F91FF90EF90A1
:1018C000DF90CF90BF90AF909F908F907F906F9060
:1018D0005F904F903F902F900895EF81F88581A100
:1018E00092A1A3A1B4A1C816D906EA06FB0631F25B
:1018F000C701B60164197509860997098418950806
:10190000A608B70821A932A93A832983232B21F4F9
:10191000AEEBBBE0BA83A9830E94FC672B013C01BC
:10192000C501B4010E94FC679B01AC01C301B20177
:101930000E948F6AE981FA8119954B015C01AF81A0
:10194000B8859F966D917C91072E000C880B990BA2
:101950000E94FE67A50194010E945D680E94016BD0
:10196000EF81F88547A150A5460F571F81A592A585
:101970004817590709F482CF52A741A7868590E0FE
:10198000D801ED91FC9104A0F5A1E02DBC01C801A6
:101990001995EF81F885C1A2D2A2E3A2F4A26ECF7D
:1019A000AF81B8859B968D909D90AD90BC909E9791
:1019B00081149104A104B10409F460CF0E94880944
:1019C00086169706A806B90608F058CFD801ED91FB
:1019D000FC910688F789E02DB101C80119954ECF19
:1019E00006970C94BF0B089508959C0124543E4F14
:1019F000FC0172AB61AB859682179307C9F7089516
:101A00000F931F93CF93DF93F901DC01A454BE4FD2
:101A1000EC010F85188929893A8904231523262387
:101A20003723012B022B032B11F0FAABE9AB859680
:101A30008A179B0769F7DF91CF911F910F91089546
:101A40006C30710568F425E2269FF001279FF00DA8
:101A50001124E80FF91F8685882311F052AB41ABA2
:101A600008950F931F93CF93DF938C01D0E0C0E0D4
:101A7000D801ED91FC910688F789E02DBE01C801DF
:101A800019952196CC30D10599F7DF91CF911F910F
:101A90000F9108956C30710580F525E2269FF001C5
:101AA000279FF00D1124E80FF91F158E168E178E43
:101AB00010A211A212A213A214A2DB0111962A9F56
:101AC000A0012B9F500D1124840F951FDC011D9246
:101AD0001C9213A614A615A616A683E0660F771F00
:101AE0008A95E1F7FB01EE52F34F80818F7B808373
:101AF000808160E08F730C94F90808958F929F9213
:101B0000AF92BF92CF92DF92EF92FF920F931F930B
:101B1000CF93DF93EC018B0169017A0170E060E003
:101B20000C30110508F040C020E030E0A901C701E9
:101B3000B6010E94F76787FD45C020E030E040E82D
:101B40005FE3C701B6010E94F76787FD06C0C12C9D
:101B5000D12C80E8E82E8FE3F82E85E2809FF001FB
:101B6000819FF00D1124EC0FFD1FC389D4890589D5
:101B70001689BE0190E080E00E94FC674B015C0189
:101B8000C017D10718F50C1B1D0BB80190E080E0C1
:101B90000E94FC67A70196010E945D68A50194015F
:101BA0000E9495690E94086BCB01DF91CF911F9134
:101BB0000F91FF90EF90DF90CF90BF90AF909F90EC
:101BC0008F900895C12CD12C7601C7CFC01BD10BAB
:101BD000BE0190E080E00E94FC67A70196010E9490
:101BE0005D689B01AC01C501B4010E949469DACF24
:101BF0006C30710570F445E2469F9001479F300DAF
:101C00001124820F931FFC01678570898189928955
:101C1000089560E070E0CB0108956C30710560F4C8
:101C200045E2469F9001479F300D1124820F931F7C
:101C3000FC018789908D089590E080E008956C30D4
:101C4000710588F425E2269FF001279FF00D1124ED
:101C5000E80FF91F258936898389948982179307AC
:101C600020F4C901089590E080E008956C3071057A
:101C700088F425E2269FF001279FF00D1124E80F3C
:101C8000F91F25893689838994892817390720F413
:101C9000C901089590E080E008956C30710560F40A
:101CA00045E2469F9001479F300D1124820F931FFC
:101CB000FC0185899689089590E080E008956C3054
:101CC000710560F445E2469F9001479F300D112455
:101CD000820F931FFC0183899489089590E080E02E
:101CE00008956C30710558F483E0660F771F8A956C
:101CF000E1F7FB01EE52F34F80818F73089580E08E
:101D000008958CE090E008955F926F927F928F9299
:101D10009F92AF92BF92CF92DF92EF92FF920F937A
:101D20001F93CF93DF936C30710598F5380149010B
:101D3000542EEB018C0161E0842F0E94270985E27B
:101D40008C9FF0018D9FF00D1124E00FF11FC687CD
:101D5000948A838A768A658AF08EE78AA786B08A13
:101D6000C18AD28AF2A6E1A683E0CC0FDD1F8A9554
:101D7000E1F7FE01EE52F34F852D8F73582E8081CF
:101D8000807C582A5082C353D34F88EB9BE09F83BB
:101D90008E83DF91CF911F910F91FF90EF90DF9095
:101DA000CF90BF90AF909F908F907F906F905F90FB
:101DB00008956C30710560F445E2469F9001479F9D
:101DC000300D1124820F931FFC0181A592A5089567
:101DD00090E080E008956C30710568F483E0660F50
:101DE000771F8A95E1F7FB01EE52F34F808186FB66
:101DF000882780F9089580E00895CF92DF92EF92CE
:101E0000FF920F931F93CF93DF938B01EC0160E060
:101E100070E0CB013C2F2D2FE9910E2E000CFF0B13
:101E2000F097EA30F10578F4AAE0B0E09B01AC014C
:101E30000E9450696F01FF0FEE08FF086C0D7D1DB9
:101E40008E1D9F1DE7CFF80130832183DF91CF9155
:101E50001F910F91FF90EF90DF90CF900895EF9238
:101E6000FF920F931F93CF93DF931F921F92CDB7D3
:101E7000DEB79A8389838B017A01DB011C92F8011A
:101E800080818530A8F4BE016F5F7F4F89819A8180
:101E90000E94FD0ED801EC91EE0DFF2DF11D608327
:101EA000E981FA81808181110DC08C918F5F8C93C3
:101EB00081E00F900F90DF91CF911F910F91FF90D4
:101EC000EF9008958C3241F43196FA83E983F8015A
:101ED00080818F5F8083D3CF80E0EBCF8F929F9202
:101EE000AF92BF92FF920F931F93CF93DF938B011B
:101EF000FC012081F12C2D3219F40196FF24F3947A
:101F0000FC0160E070E0CB013E2F2F2FC1910C2E21
:101F1000000CDD0BE097CA30D10578F4AAE0B0E000
:101F20009B01AC010E9450694E01DD0FAA08BB085D
:101F3000680D791D8A1D9B1DE7CFF8013083218331
:101F4000FF2039F090958095709561957F4F8F4F68
:101F50009F4FDF91CF911F910F91FF90BF90AF9056
:101F60009F908F900895FC01680F791F90E080E0AA
:101F7000AAE0A89FA001A99F500D11242191022E33
:101F8000000C330B20533109C901840F951F6E17C4
:101F90007F0779F70895680F791FFC012191CF0120
:101FA000022E000C330B205331092A30310528F45E
:101FB000E617F70791F781E0089580E00895CF9341
:101FC000DF93FC01E158FF4FA081B1819C012A58A9
:101FD0003F4FAD01421B530B48305105B0F4EC01AB
:101FE000CD010196918380836C930190F081E02D67
:101FF00010820E948809CE57DF4F6053784F8F4F71
:102000009F4F688379838A839B83DF91CF91089563
:102010002F923F924F925F926F927F928F929F92F8
:10202000AF92BF92CF92DF92EF92FF920F931F93E6
:10203000CF93DF93CDB7DEB7C754D1090FB6F8946D
:10204000DEBF0FBECDBF8C01FE01B19689E1DF017D
:102050001D928A95E9F780E2F8013296DE01119629
:1020600001900D928A95E1F7F801F2812396FFAF76
:102070002397D8011396BC912496BFAF2497F801FB
:10208000F2852596FFAF2597D8011B96BC91269621
:10209000BFAF2697F801F4852796FFAF2797D801A1
:1020A0001D96BC912896BFAF2897F801EC5BFF4FB7
:1020B000A081B18121E03FEF4FEF5FEF0E945069B7
:1020C000812C24E0922EA12CB12CA50194010E9418
:1020D000316969017A01EFE7CE0ED11CE11CF11CD8
:1020E000D8011296CC92F801EE5BFF4FA081B1812E
:1020F00021E03FEF4FEF5FEF0E945069A50194018F
:102100000E943169DA01C90181589F4FAF4FBF4F1B
:10211000F8018383C4828583E85BFF4FA081B1818E
:1021200021E03FEF4FEF5FEF0E945069A50194015E
:102130000E94316969017A01FFEFCF0ED11CE11CC9
:10214000F11CD8011C96CC92F801EA5BFF4FA081EC
:10215000B18121E03FEF4FEF5FEF0E945069A50191
:1021600094010E943169DA01C90181509F4FAF4F3C
:10217000BF4FF8018287C5868387E65BFF4FD80192
:1021800054968C915497908190FB80F93196908170
:1021900090FB81F93196908190FB82F93196908184
:1021A00090FB83F9F801848BE25BFF4F52968C9190
:1021B0005297908190FB81F952968C939989592F6F
:1021C000527091FD79C0869581708FAF8B89482FB1
:1021D0004170712C80FD04C0F80194899170792EB2
:1021E000382F3270A12C81FD06C0D8015496AC90D6
:1021F000A1FAAA24A0F8282F2470B12C82FD05C0D2
:10220000F801B488B2FABB24B0F8982F9870612C0A
:1022100083FD06C0D80154966C9063FA662460F87A
:10222000552309F44BC0F80182898695817051E0ED
:1022300085278EAFC12C442339F0D8015496CC9019
:10224000C094BC2DB170CB2ED12C332339F0F801C2
:10225000D488D1FADD24D0F881E0D826E12C2223DD
:1022600041F0D8015496EC90E2FAEE24E0F881E0D7
:10227000E826F12C992339F0F801F488F3FAFF24C9
:10228000F0F881E0F82689A1FFADF0FB81F989A380
:102290009801215B3F4F490181FF12C00E948809CC
:1022A000D4016D937D938D939C931397F801ED5A10
:1022B000FF4F10821CAE40C01FAE88CF1EAEBACFFB
:1022C0008CA1BEADB0FB81F98CA381FF0DC0F901DB
:1022D0001082118212821382F801ED5AFF4F808121
:1022E000882339F31EAEE5CFD9012D903D904D9056
:1022F0005C902114310441045104E1F2F801828917
:1023000081FFD8CF0E948809F8EB2F0EFBE03F1E1B
:10231000411C511C261637064806590658F6D401AA
:102320001D921D921D921C92139781E0F801ED5AA7
:10233000FF4F8083B1E0BCAF8BA170FA80F9A0FAA7
:1023400081F9B0FA82F960FA83F98BA3F801EC5AAB
:10235000FF4F4F0180FF0EC00E948809D4016D938A
:102360007D938D939C931397F801E85AFF4F108249
:102370001DAE3FC08EA1C0FA80F9D0FA81F9E0FA13
:1023800082F9F0FA83F98EA380FF0CC010821182CB
:1023900012821382F801E85AFF4F8081882339F3B3
:1023A000C12CE5CF2080318042805380211431043C
:1023B00041045104E9F2F801848980FFD9CF0E94D9
:1023C0008809F8EB2F0EFBE03F1E411C511C26161E
:1023D00037064806590660F6D4011D921D921D92DB
:1023E0001C92139781E0F801E85AFF4F8083B1E017
:1023F000BDAF8BA170FA80F9A0FA81F9B0FA82F929
:1024000060FA83F98BA3F801E75AFF4F4F0181FF70
:102410000EC00E948809D4016D937D938D939C9387
:102420001397F801E35AFF4F1082812C3FC08EA111
:10243000C0FA80F9D0FA81F9E0FA82F9F0FA83F96A
:102440008EA381FF0CC01082118212821382F801C8
:10245000E35AFF4F8081882339F3D12CE5CF2080C8
:102460003180428053802114310441045104E9F247
:10247000F801848981FFD9CF0E948809F8EB2F0EDB
:10248000FBE03F1E411C511C261637064806590624
:1024900060F6D4011D921D921D921C92139781E04B
:1024A000F801E35AFF4F8083882483948BA170FA4C
:1024B00080F9A0FA81F9B0FA82F960FA83F98BA366
:1024C000F801E25AFF4FFBAFEAAF82FF0FC00E9454
:1024D0008809AAADBBAD6D937D938D939C931397A3
:1024E000F801EE59FF4F1082912C44C08EA1C0FA22
:1024F00080F9D0FA81F9E0FA82F9F0FA83F98EA333
:1025000082FF0EC0EAADFBAD1082118212821382EF
:10251000F801EE59FF4F8081882329F3E12CE3CFA6
:10252000AAADBBAD2D903D904D905C90211431042F
:1025300041045104C9F2F801848982FFD5CF0E9479
:102540008809F8EB2F0EFBE03F1E411C511C26169C
:1025500037064806590640F6AAADBBAD1D921D923E
:102560001D921C92139781E0F801EE59FF4F808372
:10257000992493948BA170FA80F9A0FA81F9B0FAAA
:1025800082F960FA83F98BA3F801ED59FF4FFBAF95
:10259000EAAF83FF0FC00E948809AAADBBAD6D935F
:1025A0007D938D939C931397F801E959FF4F108207
:1025B000512C44C08EA1C0FA80F9D0FA81F9E0FA1A
:1025C00082F9F0FA83F98EA383FF0EC0EAADFBAD6A
:1025D0001082118212821382F801E959FF4F808123
:1025E000882329F3F12CE3CFAAADBBAD2D903D900C
:1025F0004D905C902114310441045104C9F2F8015A
:10260000848983FFD5CF0E948809F8EB2F0EFBE069
:102610003F1E411C511C261637064806590640F637
:10262000AAADBBAD1D921D921D921C92139781E025
:10263000F801E959FF4F808355245394F8014280F3
:102640003380F485FAAFD8011A962C901A971D960C
:10265000BC912196BFAF2197F801F3852296FFAF79
:102660002297D801DC968C91DC97882371F0DC9658
:102670001C92DC9781E0DB968C93DB97ED91FC91CB
:102680000480F581E02DC8011995F80183AD8823F8
:1026900009F490C089A1FFADF0FB81F989A38BA15A
:1026A00070FA80F9A0FA81F9B0FA82F960FA83F938
:1026B0008BA38CA12EAD20FB81F98CA38EA1C0FA37
:1026C00080F9D0FA81F9E0FA82F9F0FA83F98EA361
:1026D0008FA13CAD30FB81F98FA389A59DAD90FB07
:1026E00080F980FA81F990FA82F950FA83F989A782
:1026F0002396AFAD23974A1A4AA62496BFAD2497D6
:102700003B1A3BA62596EFAD25972E1A2AAA2296AC
:102710008FAD22972696FFAD26978F1B8BAB8AAD88
:1027200027962FAD2797821B8CAB21968FAD2197D3
:1027300028963FAD2897831B8DAB89E1FE01B196AA
:10274000D801929601900D928A95E1F7D801ED910A
:10275000FC910280F381E02DC8011995F801E85938
:10276000FF4F80819181892B29F5F80113AE81E01B
:1027700084AF0190F081E02D0680F781E02DC80143
:10278000C95BDF4F0FB6F894DEBF0FBECDBFDF9140
:10279000CF911F910F91FF90EF90DF90CF90BF905E
:1027A000AF909F908F907F906F905F904F903F90F1
:1027B0002F901994C95BDF4F0FB6F894DEBF0FBEA0
:1027C000CDBFDF91CF911F910F91FF90EF90DF90E0
:1027D000CF90BF90AF909F908F907F906F905F90C1
:1027E0004F903F902F900895CF93DF931F92CDB7D6
:1027F000DEB76983DC01ED91FC910280F381E02D6D
:1028000041E050E0BE016F5F7F4F19950F90DF915F
:10281000CF91089508958F929F92AF92BF92EF92B9
:10282000FF920F931F93CF93DF93CDB7DEB72E9711
:102830000FB6F894DEBF0FBECDBF7B01FC016081F7
:1028400071818281938187012EE0822E912CA12CAF
:10285000B12C6115710581059105E1F02EE0EAE0EA
:10286000F2E0DE01119601900D922A95E1F7A501A3
:1028700094010E946369E1E0F0E0EC0FFD1F6E0F30
:102880007F1FFB018081F80181938F011082B901C4
:10289000CA01DFCFC7012E960FB6F894DEBF0FBE78
:1028A000CDBFDF91CF911F910F91FF90EF90BF901F
:1028B000AF909F908F9008959C014CE0642F0E94F0
:1028C000786E849FB001112450E040E0FB01E40FDA
:1028D000F51F93E0EE0FFF1F9A95E1F7EE52F34FCD
:1028E000908196FD28C04F5F5F4F4C30510571F7C6
:1028F000813091F0C0F1823051F18330E1F41092D7
:10290000A00082E08093A1001092A5001092A40084
:1029100089BB809372000FC01092800082E0809388
:1029200081001092850010928400B19A80916F000E
:10293000826080936F0083E0220F331F8A95E1F756
:10294000F901EE52F34F80818064808308951092E4
:10295000900080939100109295001092940088BB93
:1029600080937100E8CF1092200182E080932101D2
:1029700010922501109224018ABB80937300DBCF53
:102980002F923F924F925F926F927F928F929F927F
:10299000AF92BF92CF92DF92EF92FF920F931F936D
:1029A000CF93DF9300D000D01F921F92CDB7DEB738
:1029B0006C30710508F08EC0BA82A982EB82FC826D
:1029C0000D831E8349015A011B0198878F8385E27D
:1029D000869F8001879F100D11244F815885040F19
:1029E000151FD8011E968C9190E00E945C140E94E5
:1029F00088092B013C01840C951CA61CB71CF8010E
:102A0000818E928EA38EB48E4B815C816D817E818E
:102A1000840E951EA61EB71E858E968EA78EB0A21A
:102A20008389948945895689782F692F48175907D2
:102A300010F4742F652F272F362FE981FA812E1776
:102A40003F0708F49F018417950708F4CA0182170D
:102A5000930708F49C01A1014F5F5F4F85E2849FBB
:102A6000F001859FF00D11244F815885E40FF51F6B
:102A700031832083829D8001839D100D1124040FDA
:102A8000151FD8019896DC92CE9297979A96DC9271
:102A9000CE9299972C193D09D0963C932E939F97EF
:102AA0001E966C9170E0DA01ED91FC91119704A0F3
:102AB000F5A1E02DA601CD011995F80141A252A280
:102AC00063A274A2AF81B8851A961D921D921D92C1
:102AD0001C921D9728960FB6F894DEBF0FBECDBF8F
:102AE000DF91CF911F910F91FF90EF90DF90CF90EA
:102AF000BF90AF909F908F907F906F905F904F901E
:102B00003F902F900895EF92FF920F931F93CF93D2
:102B1000DF936033710588F58A01EB017B0123E0C7
:102B2000EE0CFF1C2A95E1F7F701EE52F34F2081DE
:102B300026FD0CC025E2269FF001279FF00D1124F1
:102B4000E80FF91F868590E00E945C1483E0CC0FAB
:102B5000DD1F8A95E1F7CB52D34F198308838FB7D6
:102B6000F894F701E353F34F02501109000F111FBE
:102B7000178306838FBF14867894DF91CF911F91BE
:102B80000F91FF90EF900895AF92BF92CF92DF9296
:102B9000EF92FF920F931F93CF93DF938B017A01F4
:102BA0002CE0289FE001299FD00D11249C01235384
:102BB000334F6901F90181819181A090CD0CB12C35
:102BC00097FF20C0FB0111821082F60181818F5F87
:102BD0008183818191819E01290F311D97FD3A9555
:102BE0002A153B051CF491819C3054F1F801808139
:102BF000918184349C4908F46FC0F80180819181EF
:102C000004966CC091819E01290F311D97FD3A9564
:102C10002A153B05D4F6FE01E80FF11D87FDFA9554
:102C200093E0EE0FFF1F9A95E1F7EE52F34F80818C
:102C300086FFCBCF808160E08F730E94F908C5CFFB
:102C4000C80FD11D87FDDA9583E0CC0FDD1F8A9573
:102C5000E1F7FE01E353F34F9485992381F0268138
:102C6000378142855385892F90E02417350740F539
:102C7000820F931F8417950758F597838683F80171
:102C800080819181FE01E353F34F26813781820FCA
:102C9000931FF70191838083CE52D34F888186FFA3
:102CA00023C0888161E08F73DF91CF911F910F91D5
:102CB000FF90EF90DF90CF90BF90AF900C94F90809
:102CC000281B390B4217530718F437832683D7CFB5
:102CD000578346831486D3CF80E49CE9F701918320
:102CE00080838FEFF6018183DF91CF911F910F9148
:102CF000FF90EF90DF90CF90BF90AF9008958F92AC
:102D00009F92AF92BF92CF92DF92EF92FF926A01B1
:102D10007B01DC0151962C915197222309F442C08A
:102D20001896ED91FC91199723AD2223E1F0ED91D6
:102D3000FC910684F785E02D19954B015C01A701F4
:102D4000960160E070E080E89FE30E949469A5012D
:102D500094010E945D689B01AC01C701B6010E940D
:102D600095696B017C0120E030E0A901C701B60143
:102D70000E94496C1816D4F420E030E040E85FE38C
:102D8000C701B6010E94F76787FF15C0C701B601EA
:102D90009058FF90EF90DF90CF90BF90AF909F90B2
:102DA0008F90089560E070E0CB01F3CF60E070E0B9
:102DB00080E090E8EECF60E070E080E89FEBE9CF44
:102DC000DC0151962C9151972223D1F01896ED9168
:102DD000FC91199723AD222399F050968C9188236A
:102DE00069F0628570E090E080E00E94FC6720E07E
:102DF00030E04FE753E40E948F6A08956385F2CF75
:102E000060E070E0CB010895FC0186850895FC0127
:102E1000238921117058FC01458F568F678F70A34D
:102E20000895FC01238921117058FC01418F528FB4
:102E3000638F748F0895FC0181E08587118E128E57
:102E4000138E148E158E168E178E10A2148A089566
:102E5000CF92DF92EF92FF92CF93DF93EC016A0162
:102E60007B01E885F98583AD882339F0E881F98114
:102E70000280F381E02DCE01199520E030E0A90118
:102E8000C701B6010E94496C1816DCF420E030E05E
:102E900040E85FE3C701B6010E94F76787FD06C0FF
:102EA000C12CD12C80E8E82E8FE3F82ECD8ADE8A63
:102EB000EF8AF88EDF91CF91FF90EF90DF90CF9067
:102EC0000895C12CD12C7601F1CFCF93DF93EC0183
:102ED0008C819D819B838A830E9488096F8F78A350
:102EE00089A39AA31B861C861D861E861CA21BA274
:102EF000DF91CF910895CF93DF93EC018881998181
:102F0000DC01ED91FC910190F081E02D1995882371
:102F100029F08A819B81DF91CF91089581E090E033
:102F2000FACFFC01E85BFF4F20813181232B39F080
:102F3000379681E0208131812F3F3F4F09F480E0B7
:102F40000895CF93DF93DC011896ED91FC911997CA
:102F500023AD21110AC01A96ED91FC91309729F00A
:102F600023AD211102C0F0E0E0E0EC01C65BDF4FD1
:102F70002881222349F0EF2B39F0DC01ED91FC91FF
:102F80000088F189E02D19958881DF91CF9108950E
:102F9000C8970C94A1178F929F92AF92BF92CF9235
:102FA000DF92EF92FF92CF93DF93EC016A017B01F6
:102FB0008C89882309F462C0E881F9810284F38551
:102FC000E02DCE011995E885F98581113EC083ADCC
:102FD0008823E9F0E881F9810084F185E02DCE01B4
:102FE00019954B015C01A701960160E070E080E853
:102FF0009FE30E949469A50194010E945D689B0172
:10300000AC01C701B6010E9495696B017C0120E00B
:1030100030E0A901C701B6010E94496C18164CF5B1
:1030200020E030E040E85FE3C701B6010E94F767A7
:10303000F7FAF094F7F8F09487FD20C0C12CD12C5A
:1030400080E8E82E8FEBF82E19C083AD8823B1F00D
:10305000E881F9810084F185E02DCE01DF91CF91E7
:10306000FF90EF90DF90CF90BF90AF909F908F90A8
:103070001994C12CD12CE12C90E8F92EC701B6018E
:10308000DF91CF91FF90EF90DF90CF90BF90AF9006
:103090009F908F90089580E00895DC0154962C91C4
:1030A00054972223D1F01896ED91FC91199723ADF6
:1030B000222399F053968C91882369F0628570E001
:1030C00090E080E00E94FC6720E030E04FE753E4AE
:1030D0000E948F6A08956385F2CF60E070E0CB01B3
:1030E0000895FC0181E0808B10AA11AA12AA13AAEC
:1030F00014AA15AA16AA17AA0895FC0113AE0895DA
:1031000021E0FC0123AF0895AF92BF92CF92DF92EE
:10311000EF92FF920F931F93DC01ED91FC9100A4BD
:10312000F1A5E02D19951F910F91FF90EF90DF9081
:10313000CF90BF90AF9008956F927F928F929F92A1
:10314000AF92BF92CF92DF92EF92FF920F931F93B5
:10315000CF93DF93EC014B01E881F98160A471A466
:103160000288F389E02D19955C01E881F9810088D6
:10317000F189E02DB401CE0119956C01E12CF12CFF
:10318000870120E030E0A901B401CE01F3011995D7
:10319000DF91CF911F910F91FF90EF90DF90CF9033
:1031A000BF90AF909F908F907F906F900895CF9336
:1031B000DF93EC01CB01BA0120E030E040E85FE3AF
:1031C0000E94956920E030E040E05FE30E945D6886
:1031D00020E030E0A9010E9495699B01AC01FE014D
:1031E000E05BFF4F8081682F70E0C25BDF4F88811A
:1031F0009981DF91CF910C949C18CF93DF93EC01D0
:10320000FC01E05BFF4F608170E0329720E030E02E
:1032100040E05FE3808191810E949C18CE01DF91A4
:10322000CF910C941B174F925F926F927F928F9267
:103230009F92AF92BF92CF92DF92EF92FF920F9345
:103240001F93CF93DF93EC014B0159016A01E88191
:10325000F98142A053A00484F585E02D19957C01E5
:10326000E881F9810680F781E02DB401CE0119953E
:103270008C01E881F9810480F581E02DB401CE0153
:1032800019953C01E881F9810280F381E02DB401B8
:10329000CE0119959301482FB401CE01F201199581
:1032A000DF91CF911F910F91FF90EF90DF90CF9022
:1032B000BF90AF909F908F907F906F905F904F9056
:1032C00008954F925F926F927F928F929F92AF92EA
:1032D000BF92CF92DF92EF92FF920F931F93CF9303
:1032E000DF93EC014B018A01E881F98142A053A0F0
:1032F0000684F785E02D19955B016C01E881F98161
:103300000484F585E02DB401CE0119957C01E88196
:10331000F9810480F581E02DB401CE0119953C01BD
:10332000E881F9810280F381E02DB401CE01199585
:103330009301482FB401CE01F2011995DF91CF918D
:103340001F910F91FF90EF90DF90CF90BF90AF90C3
:103350009F908F907F906F905F904F9008954F92C5
:103360005F926F927F928F929F92AF92BF92CF9215
:10337000DF92EF92FF920F931F93CF93DF93EC01B5
:103380004B013A01E881F98142A053A00684F785F8
:10339000E02D19955B016C01E881F9810484F585C4
:1033A000E02DB401CE0119957C01E881F9810680F8
:1033B000F781E02DB401CE0119958C01E881F981E6
:1033C0000280F381E02DB401CE0119959301482FBD
:1033D000B401CE01F2011995DF91CF911F910F91A8
:1033E000FF90EF90DF90CF90BF90AF909F908F9025
:1033F0007F906F905F904F9008954F925F926F9281
:103400007F928F929F92AF92BF92CF92DF92EF9274
:10341000FF920F931F93CF93DF93EC014B017A013F
:10342000E881F98142A053A00684F785E02D199523
:103430005B016C01E881F9810680F781E02DB40120
:10344000CE0119958C01E881F9810480F581E02D88
:10345000B401CE0119953C01E881F9810280F38124
:10346000E02DB401CE0119959301482FB401CE018E
:10347000F2011995DF91CF911F910F91FF90EF907D
:10348000DF90CF90BF90AF909F908F907F906F9084
:103490005F904F9008954F925F927F928F929F928C
:1034A000AF92BF92CF92DF92EF92FF920F931F9352
:1034B000CF93DF93EC014B01742EE881F98142A098
:1034C00053A00684F785E02D19955B016C01E88116
:1034D000F9810484F585E02DB401CE0119957C01B4
:1034E000E881F9810680F781E02DB401CE011995BC
:1034F0008C01E881F9810480F581E02DB401CE01D1
:1035000019959C01472DB401CE01F2011995DF9167
:10351000CF911F910F91FF90EF90DF90CF90BF90D0
:10352000AF909F908F907F905F904F900895FC0197
:10353000828181118381089590E080E00895DC010B
:10354000ED91FC910280F381E02D1994CF93DF93EC
:10355000FC011482138212821182878190859683E6
:103560008583A585B68584E0ED01982F19929A95FB
:10357000E9F70784F089E02DDF011D928A95E9F7CC
:10358000DF91CF9108958F929F92AF92BF92CF9289
:10359000DF92EF92FF926B017C01C216D306E40624
:1035A000F50684F449015A018C189D08AE08BF083D
:1035B0000E946A67A50194010E943169C60ED71E58
:1035C000E81EF91EC701B601FF90EF90DF90CF9083
:1035D000BF90AF909F908F9008952F923F924F92FF
:1035E0005F926F927F928F929F92AF92BF92CF9293
:1035F000DF92EF92FF920F931F93CF93DF93CDB79C
:10360000DEB769970FB6F894DEBF0FBECDBF1C01C1
:103610004E835F83688779870A871B872C873D875E
:10362000CE86DF86E88AF98A240135012BA92A8B08
:103630003CA93B8B4DA94C8B5EA95D8B8FA98E8BD2
:1036400098AD9F8BA9ADA88FBAADB98F3B822A8266
:10365000912C812CEFE1E983EA81FB8187859089B8
:10366000A189B2892E813F81488559858223932380
:10367000A423B523892B8A2B8B2B09F467C08FA534
:1036800098A9A9A9BAA9481659066A067B0609F499
:1036900084C09C01AD01C301B2010E94C31A6C83B6
:1036A0007D838C01C12CD12C7601C394098004C088
:1036B000CC0CDD1CEE1CFF1C0A94D2F72A853B853E
:1036C0004C855D85C222D322E422F522D101ED9101
:1036D000FC91C114D104E104F10409F462C02BADE2
:1036E0003CAD2115310539F006A8F7A9E02DA90157
:1036F000B401C1011995D101ED91FC910288F389C2
:10370000E02DCD28CE28CF2809F455C07A896B89C1
:103710009C898D89272F362F492F582FB401C1013D
:103720001995EA81FB81C1A4D2A45C01EC80FD80E3
:103730002E853F8548895989B401C1010E948418AA
:1037400089818150F981FF2379F089832FEF821AD3
:10375000920A4A815B814B5D5F4F5B834A835CE0E9
:103760008516910409F078CF69960FB6F894DEBFFC
:103770000FBECDBFDF91CF911F910F91FF90EF90C2
:10378000DF90CF90BF90AF909F908F907F906F9081
:103790005F904F903F902F9008954C825D828301FF
:1037A00081CF4DAD5EAD4115510509F4A4CF06A8FA
:1037B000F7A9E02D9DCF7E896F89988D898DAACF3D
:1037C0002F923F924F925F926F927F928F929F9231
:1037D000AF92BF92CF92DF92EF92FF920F931F931F
:1037E000CF93DF93CDB7DEB72E970FB6F894DEBF39
:1037F0000FBECDBF1C014F83588769877A870B871F
:103800001C872D873E87260137018B829C82AD82E3
:10381000BE829A838983912C812C2B813C814D819E
:103820005E8172018301421653066406750631F00B
:10383000C301B2010E94C31A7B018C01E981FA81A4
:1038400087859089A189B2892F81388549855A85D4
:1038500082239323A423B523892B8A2B8B2BD1F08E
:10386000D101ED91FC910288F389E02D2CA13DA1BD
:103870004EA15FA1B401C1011995E981FA81C1A4EA
:10388000D2A45C012B853C854D855E85B401C101C8
:103890000E948418FFEF8F1A9F0A29813A812B5DBD
:1038A0003F4F3A8329833CE08316910409F0B5CF5A
:1038B0002E960FB6F894DEBF0FBECDBFDF91CF912D
:1038C0001F910F91FF90EF90DF90CF90BF90AF903E
:1038D0009F908F907F906F905F904F903F902F9030
:1038E00008952F923F924F925F926F927F928F92A4
:1038F0009F92AF92BF92CF92DF92EF92FF920F937F
:103900001F93CF93DF93CDB7DEB763970FB6F894CD
:10391000DEBF0FBECDBF8A839B834C835D836E83E6
:103920007F83088719872A873B87CC86DD86EE86CA
:10393000FF8624013501CDA4C88ADEA4D98AEFA46C
:10394000EA8AF8A8FB8A1C01912C812C2FE129839B
:10395000F10187859089A189B289CC80DD80EE80D4
:10396000FF808C219D21AE21BF21892B8A2B8B2B9F
:1039700009F441C029A53AA54BA55CA5B201C30134
:10398000421653066406750611F00E94C31AD1014F
:1039900099964D915C9101E010E020E030E00980C3
:1039A00004C0000F111F221F331F0A94D2F7C884CE
:1039B000D984EA84FB840C211D212E213F21AA8871
:1039C000BB88012B022B032B11F0A888B988A40E09
:1039D000B51E6A017B018C012C853D854E855F8576
:1039E000B4018A819B810E94841889818150D98089
:1039F000DD2061F089832FEF821A920A35E2230ECF
:103A0000311C4CE08416910409F0A2CF63960FB6E6
:103A1000F894DEBF0FBECDBFDF91CF911F910F9104
:103A2000FF90EF90DF90CF90BF90AF909F908F90DE
:103A30007F906F905F904F903F902F9008952F92BE
:103A40003F924F925F926F927F928F929F92AF922E
:103A5000BF92CF92DF92EF92FF920F931F93CF937B
:103A6000DF93CDB7DEB763970FB6F894DEBF0FBE16
:103A7000CDBF8A839B834C835D836E837F8308875E
:103A800019872A873B87CC86DD86EE86FF86240150
:103A900035010DA5088B1EA5198B2FA52A8B38A9DA
:103AA0003B8B1C01912C812C4FE14983F1018785CF
:103AB0009089A189B2890C811D812E813F8180234B
:103AC0009123A223B323892B8A2B8B2B09F43FC08C
:103AD00029A53AA54BA55CA57201C3014216530660
:103AE0006406750621F0B2010E94C31A7B0141E011
:103AF00050E060E070E0098004C0440F551F661F6D
:103B0000771F0A94D2F7088519852A853B854023BB
:103B1000512362237323AA88BB88452B462B472B4E
:103B200011F0A888B988D1019996CD90DC908C01CC
:103B30002C853D854E855F85B4018A819B810E94DD
:103B4000841889818150B981BB2361F08983EFEFAB
:103B50008E1A9E0AF5E22F0E311C0CE0801691049D
:103B600009F0A4CF63960FB6F894DEBF0FBECDBFA9
:103B7000DF91CF911F910F91FF90EF90DF90CF9049
:103B8000BF90AF909F908F907F906F905F904F907D
:103B90003F902F9008952F923F924F925F926F9295
:103BA0007F928F929F92AF92BF92CF92DF92EF92CD
:103BB000FF920F931F93CF93DF93CDB7DEB72E976E
:103BC0000FB6F894DEBF0FBECDBF8D839E834F83AB
:103BD000588769877A870B871C872D873E87260140
:103BE000370189829A82AB82BC821C01912C812C84
:103BF00009811A812B813C817201C3014016510653
:103C00006206730631F0A9019801B2010E94C31A3D
:103C10007B01D1011F964D915D916D917C915297E1
:103C20000F81188529853A85402351236223732308
:103C3000452B462B472B89F09996CD90DC90ACA074
:103C4000BDA0AC0CBD1C8C012B853C854D855E85D3
:103C5000B4018D819E810E9484181FEF811A910A00
:103C600025E2220E311C3CE08316910409F62E96C3
:103C70000FB6F894DEBF0FBECDBFDF91CF911F917D
:103C80000F91FF90EF90DF90CF90BF90AF909F90FB
:103C90008F907F906F905F904F903F902F900895FE
:103CA0002F923F924F925F926F927F928F929F924C
:103CB000AF92BF92CF92DF92EF92FF920F931F933A
:103CC000CF93DF93CDB7DEB72E970FB6F894DEBF54
:103CD0000FBECDBF8D839E834F83588769877A87B8
:103CE0000B871C872D873E872601370189829A82A0
:103CF000AB82BC821C01912C812C09811A812B8101
:103D00003C817201C301401651066206730631F010
:103D1000A9019801B2010E94C31A7B01D1011F962B
:103D20004D915D916D917C9152970F8118852985F8
:103D30003A854023512362237323452B462B472B7F
:103D400079F09996CD90DC90ACA0BDA08C012B852C
:103D50003C854D855E85B4018D819E810E948418CD
:103D60001FEF811A910A25E2220E311C3CE08316D6
:103D7000910419F62E960FB6F894DEBF0FBECDBF94
:103D8000DF91CF911F910F91FF90EF90DF90CF9037
:103D9000BF90AF909F908F907F906F905F904F906B
:103DA0003F902F900895FB0101900020E9F7319793
:103DB000AF01461B570BDC01ED91FC910280F381B2
:103DC000E02D199468E973E00C94D31E0F931F93B0
:103DD000CF93DF93EC010E9494098C01CE010E94E5
:103DE000E21E800F911FDF91CF911F910F910895D7
:103DF0000F931F93CF93DF93EC01FB014481558117
:103E0000608171810E949F1A8C01CE010E94E21E86
:103E1000800F911FDF91CF911F910F9108950F9304
:103E20001F93CF93DF93EC010E949B098C01CE017D
:103E30000E94E21E800F911FDF91CF911F910F9181
:103E40000895EF92FF920F931F93CF93DF938B010F
:103E50007A01EC01C55BDF4F8881882329F083E973
:103E60009BE00E94E21E1882A701B80183E99BE053
:103E7000DF91CF911F910F91FF90EF900C94BF09AC
:103E8000CF93DF93EC0188819981009769F00E94BC
:103E9000D31E88819981DC01ED91FC910680F78128
:103EA000E02DDF91CF911994DF91CF910895CF93B9
:103EB000DF93EC01CA5BDF4F6BE973E0CE010E9438
:103EC000401F6EE973E0CE010E94401F66EA73E076
:103ED000CE010E94401F6EEA73E0CE010E94401F97
:103EE00066EB73E0CE010E94401F6EEB73E0CE01E3
:103EF0000E94401F68EC73E0CE01DF91CF910C94DB
:103F0000401F8F929F92AF92BF92EF92FF920F93BA
:103F10001F93CF93DF93CDB7DEB7A1970FB6F89479
:103F2000DEBF0FBECDBF7C01FA01CB0119A222304A
:103F300008F42AE08E010F5D1F4F822E912CB12CC8
:103F4000A12CBF01A50194010E946369F901CA0176
:103F50006A300CF5605DD8016E938D01232B242B04
:103F6000252B79F790E080E0109721F0BD01C70183
:103F70000E94D31EA1960FB6F894DEBF0FBECDBF30
:103F8000DF91CF911F910F91FF90EF90BF90AF9075
:103F90009F908F900895695CDECFCF92DF92EF9271
:103FA000FF920F931F93CF93DF936B01770FEE0870
:103FB000FF08F7FE1BC0EC016DE20E9494098C0122
:103FC00044275527BA014C195D096E097F092AE07B
:103FD000CE010E94811F800F911FDF91CF911F9111
:103FE0000F91FF90EF90DF90CF9008952AE0B701F6
:103FF000A601DF91CF911F910F91FF90EF90DF907D
:10400000CF900C94811F0F931F93CF93DF93EC01FC
:104010000E94CD1F8C01CE010E94E21E800F911FD5
:10402000DF91CF911F910F9108950C94811F0F93F1
:104030001F93CF93DF93EC010E9415208C01CE01DA
:104040000E94E21E800F911FDF91CF911F910F916F
:1040500008959A01462F50E070E060E00C9415201E
:104060000F931F93CF93DF93EC014AE050E00E943F
:1040700029208C01CE010E94E21E800F911FDF914A
:10408000CF911F910F910895CF92DF92EF92FF92FF
:104090000F931F93CF93DF93EC018B017C0185EE8F
:1040A000E81A8AEFF80A6E01E4EECE1AEAEFDE0AA9
:1040B000F80161918F01662381F0F7012081862F3D
:1040C000062E000C990B2817190611F4F6016081D1
:1040D00089E59AE00E949409EBCFC45EDA4F4AE08A
:1040E00050E0688189E59AE0DF91CF911F910F91AF
:1040F000FF90EF90DF90CF900C9429200F931F93A7
:10410000CF93DF938C01EB01FC018081833009F4B4
:104110006AC0F8F48130D1F1823009F455C0F80159
:104120008081853079F08381882361F062E773E0D4
:10413000CE010E949B094AE050E0F8016381CE0164
:104140000E942920CE01DF91CF911F910F910C94F5
:10415000E21E853009F47BC008F46AC08630F9F6A7
:1041600062E873E0CE010E949B094AE050E0F8014A
:104170006281CE010E9429206AE773E0CE010E948D
:104180009B094AE050E0F80161811AC068ED73E0D4
:10419000CE010E949B094AE050E0F8016181CE0106
:1041A0000E942920F801828166ED73E0882309F4DA
:1041B000B6CFCE010E949B094AE050E0F80162812F
:1041C000CE010E942920ABCF6EEC73E0CE010E949D
:1041D0009B094AE050E0F8016181CE010E9429204C
:1041E00064EC73E0E6CF6DEB73E0CE010E949B09B7
:1041F0004AE050E0F8016181CE010E94292065EB80
:1042000073E0CE010E949B09F8018281813069F040
:1042100030F0823009F083CF6BEA73E002C062EBCA
:1042200073E0CE010E949B097ACF6FEA73E0F9CF69
:1042300060EA73E0CE010E949B094AE050E0F80179
:104240006181CE010E94292069E973E0B2CF63E960
:1042500073E0CE010E949B094AE050E0F8016381BF
:10426000AFCFAB0170E060E02AE00C94811F0F93A8
:104270001F93CF93DF93EC010E9431218C01CE017B
:104280000E94E21E800F911FDF91CF911F910F912D
:1042900008950F931F93CF93DF938C01D0E0C0E07C
:1042A0006115710519F00E94D31EEC01C8010E942E
:1042B000E21E8C0F9D1FDF91CF911F910F910895EA
:1042C000CF93DF93EC0164E07DE00E949B0960E006
:1042D0007DE0CE010E949B0968EF7CE0CE010E9448
:1042E0009B0966EF7CE0CE010E949B0963EF7CE0B6
:1042F000CE010E949B0967EE7CE0CE010E949B09E3
:104300006CED7CE0CE010E949B096C817D8165583B
:104310007E4FCE01DF91CF910C944921CF93DF9353
:10432000EC0162ED73E083E99BE00E944921CD58E6
:10433000DF4F0990D881C02DCE0187569A4F0E9439
:10434000FD18CC55DA4F1882DF91CF910895CF93A5
:10435000DF93EC016AEE73E083E99BE00E94492160
:10436000FE01ED58FF4F0190F081E02DEC55FA4F22
:1043700081E080830E948809C159DF4F6883798377
:104380008A839B83DF91CF910895CF93DF93EC01D4
:104390006FEF73E083E99BE00E944921FE01ED5835
:1043A000FF4F0190F081E02DEA5AFA4F81E08083BF
:1043B0000E948809C159DF4F688379838A839B8370
:1043C000DF91CF9108950F931F93CF93DF938C01CB
:1043D000065B1F4FF80120812223F9F0EC01E881F0
:1043E000F9810280F381E02D1995CA5BDF4F65E109
:1043F00074E0CE010E94401F60E274E0CE010E9492
:10440000401FF80110826BE274E083E99BE0DF91CA
:10441000CF911F910F910C944921DF91CF911F9162
:104420000F910895C8970C94E321EF92FF920F9398
:104430001F93CF93DF93EC01E881F9810288F38920
:10444000E02D19959E01265B3F4F7901811131C006
:104450008E010A5B1F4FF80180819181892B49F100
:10446000E885F98583AD811122C0EA85FB85309707
:1044700019F083AD81111DC0E881F9810280F381BB
:10448000E02DCE0119956EE374E0C8010E94401F33
:1044900069E474E0C8010E94401F81E0F701808355
:1044A00064E574E083E99BE00E94492102C0EF2BA0
:1044B00019F3F7018081DF91CF911F910F91FF9048
:1044C000EF900895C8970C9415226115710511F0AD
:1044D0000C94D31E90E080E008950F931F93CF9328
:1044E000DF93EC018B01188219821A821B82FB0177
:1044F00001900020E9F73197E017F10751F1288189
:1045000039814A815B81AEE0B0E00E94506922911E
:104510002134E9F03CF43FEC320F2053393050F0B5
:1045200020E008C0233489F024F02434C9F72DE0BA
:1045300001C02BE0AB01BC01420F511D611D711D7B
:10454000488359836A837B83D7CF2CE0F3CF2AE05B
:10455000F1CFDF91CF911F910F910895DB010D9065
:104560000020E9F7AD01FB0141505109E417F507BF
:1045700099F0DC0195962D913C919697B9016F5F6A
:104580007F4F96967C936E9395976191280F391F74
:10459000D90115966C93EACF08950E9492700F93FB
:1045A0001F93CF93DF93EC0188819981009759F095
:1045B0002A813B812617370730F081E0DF91CF91C8
:1045C0001F910F9108958B016F5F7F4F0E94B16F14
:1045D000009759F0998388831B830A832C813D813E
:1045E000232B59F7FC011082E8CF80E0E7CFEF9250
:1045F000FF920F931F93CF93DF936115710541F4E1
:1046000080E0DF91CF911F910F91FF90EF9008957F
:1046100041155105B1F07B01EC010C811D81040FA6
:10462000151FB8010E94CF22882351F328813981B8
:104630008C819D81B701820F931F0E94BE701D83E4
:104640000C8381E0DECFCF93DF93EC0188819981E9
:10465000009711F00E94286F198218821D821C8217
:104660001B821A82DF91CF910895CF93DF93EC01E3
:10467000FB0101900020E9F73197AF01461B570B72
:104680000E94F722811103C0CE010E942323CE0194
:10469000DF91CF910895CF93DF93EC01FB0144812B
:1046A0005581608171810E94F722811103C0CE0182
:1046B0000E942323CE01DF91CF910895EF92FF92C4
:1046C0000F931F93CF93DF93EC017B018A01BA0113
:1046D0000E94CF2281110BC0CE010E942323CE0164
:1046E000DF91CF911F910F91FF90EF9008951D835F
:1046F0000C83B701888199810E94BE70F0CFEF9240
:10470000FF920F931F93CF93DF93CDB7DEB76297DE
:104710000FB6F894DEBF0FBECDBF8C01CB01F80100
:104720001182108213821282158214824AE09E0145
:104730002F5F3F4F7901B9010E94C267F7010190D5
:104740000020E9F73197AF014E195F09B701C801A1
:104750000E945E2362960FB6F894DEBF0FBECDBFF7
:10476000DF91CF911F910F91FF90EF900895FC0181
:10477000118210821382128215821482FB01019031
:104780000020E9F73197AF01461B570B0C945E23CD
:10479000FC0180819181009711F00C94286F08959D
:1047A0000C94286F1F93CF93DF9385ED8093BC000B
:1047B0008091DA099091DB09A091DC09B091DD09C3
:1047C0000796A11DB11D23E0B695A79597958795EE
:1047D0002A95D1F72091BC0024FD03C01092220A33
:1047E00052C04091DA095091DB096091DC09709167
:1047F000DD09452B462B472B69F30097A105B10531
:1048000041F02AE22A95F1F700C00197A109B10908
:10481000E1CF8091D909C1E0C093D809882399F1EB
:10482000D091B8001091BA008091BC008A7B80932F
:10483000BC0060E084E10E94F90860E085E10E942C
:10484000F9081092220AC093240A1092230A61E008
:1048500084E10E94F90861E085E10E94F9088091F5
:10486000B9008E7F8093B9008091B9008D7F8093CD
:10487000B90088E48093B80085E48093BC0010936D
:10488000BA00D093B800DF91CF911F910895FF92A5
:104890000F931F93CF93DF93EC018B01FB01F0800B
:1048A0000E941B69F81621F06F2DCE010E9423692A
:1048B000F801F1802196CE010E941B69F81621F0C3
:1048C0006F2DCE010E942369C801DF91CF911F9106
:1048D0000F91FF9008950C941B690F931F93CF9332
:1048E000DF938C01EB01BC016C1B7D0B77FF03C0D8
:1048F000719561957109072E000C880B990B0E9428
:10490000FE6720E030E044EB53E40E94596B20E066
:1049100030E044EB53E40E94596B0E94016B9B0111
:10492000653B710584F028E631E0261B370B0C1738
:104930001D071CF4319521953109C901DF91CF91F3
:104940001F910F910895C017D107BCF72227332775
:10495000261B370BF2CFCF92DF92EF92FF920F938D
:104960001F93CF93DF93EC017B01DB011D921C921F
:1049700010E06C01B5E0CB0ED11C0A81002339F1A7
:1049800088819981DC01ED91FC910084F185E02D15
:104990001995892B91F388819981DC01ED91FC9126
:1049A0000284F385E02D19952DA13EA18D3091054E
:1049B000E9F4FE01E20FF31F1582F7013183208332
:1049C0001EA21DA28D81811102C0112359F0CE01BA
:1049D0000596DF91CF911F910F91FF90EF90DF909F
:1049E000CF90089510E0C9CF11E0C7CF2F31310526
:1049F00020F6A9014F5F5F4F5EA34DA32C0F3D1F13
:104A0000D90115968C934C0F5D1FFA011582111177
:104A1000EBCF67E674E0C6010E94B570892B11F7F1
:104A20001D821EA21DA2102FA8CFDF92EF92FF922F
:104A30000F931F93CF93DF931F921F92CDB7DEB7D3
:104A40007C01DD24D394D7018D919C91DC01ED9103
:104A5000FC910084F185E02D1995892B09F449C05A
:104A6000BE016F5F7F4FC7010E94AB248C01FC0128
:104A70008081882341F36CE674E0C8010E94B57020
:104A8000892B09F36EE774E0C8010E94B570892B89
:104A900051F4D70113961C9266E874E083E99BE019
:104AA0000E944921D0CF63E974E0C8010E94B5702B
:104AB000892B49F266EA74E0C8010E94B570892B1F
:104AC00029F4F701D38261EB74E0E8CF6FEB74E077
:104AD000C8010E94B570892B21F4D70114961C924D
:104AE000B2CF67EC74E083E99BE00E946522B801D5
:104AF000D5CF0F900F90DF91CF911F910F91FF9025
:104B0000EF90DF900895AF92BF92CF92DF92EF9235
:104B1000FF920F931F93CF93DF93EC017B018A01E8
:104B20000E9415251EA21DA2E114F10421F0B70177
:104B3000CE010E94AE220115110561F18DA19EA149
:104B40009C012F5F3F4F3EA32DA38C0F9D1F20E2A2
:104B5000FC012583F80101900020E9F77801CF01DD
:104B600001976C010DA11EA158019FEFA91AB90A66
:104B7000CE14DF0479F0F70181917F01082E000C3B
:104B8000990B0E949770BEA2ADA2FE01E00FF11F2B
:104B90008583E8CF8DA19EA1AC014F5F5F4F5EA3DF
:104BA0004DA38C0F9D1F2DE0FC012583BE016B5F83
:104BB0007F4F888199810E949F1A1EA21DA2DF91BA
:104BC000CF911F910F91FF90EF90DF90CF90BF900A
:104BD000AF900895EF92FF920F931F93CF93DF93BF
:104BE0007C01EB0109900020E9F72197C61BD70B48
:104BF000FC0100811181AE01C8010E94C570892BA2
:104C000069F4C00FD11FF701D183C08381E0DF9128
:104C1000CF911F910F91FF90EF90089580E0F7CF13
:104C2000EF92FF920F931F93CF93DF931F921F92E8
:104C3000CDB7DEB79A8389837A018901CE010196C7
:104C40000E94EA25882381F0A981BA8111969C915E
:104C50001197911112C0F7019191992371F02C9144
:104C60009213FACFF80190830F900F90DF91CF91BC
:104C70001F910F91FF90EF90089580E0F5CF2F9254
:104C80003F924F925F926F927F928F929F92AF92DC
:104C9000BF92CF92DF92EF92FF920F931F93CF9329
:104CA000DF93CDB7DEB76E970FB6F894DEBF0FBEB9
:104CB000CDBF7E8F6D8FDC011496ED90FC9065ED7D
:104CC00074E0CE014D960E94EA25682E8823A9F152
:104CD000870105581E4FB5E0EB1ABBEFFB0AF70141
:104CE0008081843110F0612C6AC6C82ED12C9CE0E2
:104CF000F801899FE00DF11D11247E96DF011D92C0
:104D00009A95E9F79F01285F3F4FAD8DBE8D8C913D
:104D1000882349F38C3209F42CC62E173F0719F368
:104D2000CD0101969E8F8D8F8C9181931082EDCF56
:104D30008237C9F681E081A73BC66BE076E0CE0101
:104D40004D960E94EA25782E882309F421C1FE01A0
:104D5000319684E1DF011D928A95E9F78D8D9E8D54
:104D60009E8B8D8B8F01D12CBE016B5E7F4F8D8909
:104D70009E890E946E0FF801619371938F01ED89F6
:104D8000FE8980818111CBC021E02D0D233008F4F4
:104D900016C689809A8031E0831A91084CE0841607
:104DA000910408F00CC63CE0389DC001399D900D7F
:104DB0001124F701E757FD4FE80FF91F6B817C8144
:104DC000643B71050CF4B7C064EB60838D819E81F8
:104DD000D12C1816190634F4853B910514F084EB98
:104DE00090E0D82ED182233009F4A9C06F81788554
:104DF000161617060CF0ADC0653B710514F064EB98
:104E000070E06283253008F4A6C089859A8518165B
:104E100019060CF0A0C0853B910514F084EB90E0DE
:104E200083838B859C85263010F490E080E0958309
:104E3000848384E6273058F08D859E8518161906E0
:104E40000CF08BC08536910514F084E690E08783E2
:104E5000283040F0662463948F85988918161906C7
:104E60000CF0612C6682293008F479C009891A890E
:104E70000036B9E01B070CF079C0003233E01307AD
:104E800014F400E213E0118700872A3008F471C09F
:104E9000EB88FC8840E6E41649E0F4060CF070C0AC
:104EA00050E2E51653E0F50624F470E2E72E73E0D5
:104EB000F72EF386E28670E090E080E00E94FC67C7
:104EC0001B012C016D2D70E090E080E00E94FC67DA
:104ED0009B01AC01C201B1010E948F6A5B016C01B0
:104EE000611053C0502E612E8701B70190E080E021
:104EF0000E94FC67A60195010E945D680E94086BF4
:104F000042E0480DA12CB12C65017B01252D362DE9
:104F1000B4018FEE94E10E94840E672C50C58C3250
:104F200009F04DC53196FE8BED8BD394F4E1DF1281
:104F30001BCF24E12ECF77FF48CF60E046CFAD2DC9
:104F4000A61BBB0BCD01B7FD019695958795680F04
:104F500058CF60E056CF80E063CF80E078CFD701B4
:104F6000A558BE4F1E960D911C918DCF00E619E0FD
:104F70008ACFD701A558BE4F5096ED90FC9099CF9F
:104F800050E6E52E59E0F52E94CF5E2C6F2CADCF78
:104F90006AED74E0CE014D960E94EA25182F882311
:104FA00009F49BC0AE014F5F5F4F85E0DA011D92AF
:104FB0008A95E9F7BE016B5E7F4F8D8D9E8D0E94B5
:104FC0002F0F882309F4A9CF9D89933008F4A5CF2A
:104FD00029819FEF920F993008F09FCF30E0215048
:104FE000304C220F331F220F331FF701E75EFC4FB7
:104FF000E20FF31F94E0DF011D929A95E9F79A8181
:1050000090839A819083933009F450C038F49130A2
:10501000A9F0923009F43FC010822FC0953069F199
:1050200010F09630C9F79B81953608F094E691838D
:105030009D89943008F44DC09C811EC09B81D7018E
:10504000A550BB4F2C919217F8F4992301F191834D
:105050002D892430F0F02C812283B5E8EB1ABEEFC5
:10506000FB0AD7013CE0939FA00DB11D1124979638
:105070009C91291708F4922F92839D89953058F1BD
:105080009D819383782E49CF922F2111E0CF91E01B
:10509000DECF20E0E1CF9B81992331F0993008F0F9
:1050A00098E091839AE5E8CF91E0FBCF9B8199232B
:1050B00061F0993008F098E091839D89943038F040
:1050C0009C819330C8F292E0D7CF91E0F5CF90E089
:1050D000F8CF90E0D1CF90E0D4CF69ED74E0CE016D
:1050E0004D960E94EA25682E882309F49CC0AE01E3
:1050F0004F5F5F4F85E0DA011D928A95E9F7BE01A7
:105100006B5E7F4F8D8D9E8D0E942F0F882309F43B
:105110005FC09D89933008F45BC029819FEF920F97
:10512000993008F055C030E02150304C220F331F29
:10513000220F331FF701E75EFC4FE20FF31F94E0ED
:10514000DF011D929A95E9F79A8190839A81908365
:10515000933009F451C038F49130A9F0923009F439
:1051600040C010822FC0953069F110F09630C9F719
:105170009B81953608F094E691839D89943008F4DC
:105180004EC09C811EC09B81D701A550BB4F2C9166
:10519000921700F5992309F191832D892430F8F0B5
:1051A0002C812283B5E8EB1ABEEFFB0AD7013CE065
:1051B000939FA00DB11D112497969C91291708F477
:1051C000922F92839D89953060F19D819383182F52
:1051D000612EF5C3922F2111DFCF91E0DDCF20E0CA
:1051E000E0CF9B81992331F0993008F098E09183CA
:1051F0009AE5E7CF91E0FBCF9B81992361F099304D
:1052000008F098E091839D89943038F09C81933028
:10521000C0F292E0D6CF91E0F5CF90E0F8CF90E0E9
:10522000D0CF90E0D3CF6DED74E0CE014D960E94CB
:10523000EA25782E882349F1870107501B4FD801B2
:10524000EC91E93008F0E9E06D8D7E8DB5E8EB1A60
:10525000BEEFFB0AF0E2EF9F60011124C601825C01
:105260009D4F4FE150E08E0D9F1D0E94D370EC0CBE
:10527000FD1CF701E35AFD4F1082D8018C918A3052
:1052800008F031CD8F5F8C939AC360EE74E0CE014D
:105290004D960E94EA25882309F4A6C0FE013196A6
:1052A000BF019E01275F3F4FAD8DBE8D8C918C322B
:1052B00009F49FC3882309F49FC32E173F0718F0F2
:1052C0008083118231968D8D9E8D01969E8F8D8F5C
:1052D000EBCF953009F440C018F0963009F0E3C3E5
:1052E000F401E551FE4F9E89953608F094E69083CF
:1052F0009F89223009F490E0F801EA0DFB1DE4518A
:10530000FE4F6EC09E89F701E550FB4F3081931729
:10531000A8F59923B1F1F801EA0DFB1DE551FE4F07
:1053200090839F89223009F490E0A8014A0D5B1D0B
:10533000FA01E451FE4F908345515E4FDA013C91F2
:10534000D8014CE0349FA00DB11D112497963C91DB
:10535000931708F4392F3083988D243008F490E0A7
:10536000F801EA0DFB1DE351FE4F9083F601908199
:105370009A3008F087CE9F5F908384CE932F3111AF
:10538000CACF91E0C8CF9E89992381F0993008F067
:1053900098E0A8014A0D5B1DFA01E551FE4F90838C
:1053A00044515E4F9AE5DA019C93D6CF91E0F1CF5C
:1053B0009E899923B9F0993008F098E0F801EA0D38
:1053C000FB1DE551FE4F90839F89223009F490E048
:1053D000F801EA0DFB1DE451FE4F933008F092E016
:1053E0009083BACF91E0EACF97013B5F43EE54E060
:1053F00069EE74E08D8D9E8D0E941026882319F031
:1054000066246394DCC29701225E3A4F42EF54E077
:1054100069EF74E08D8D9E8D0E9410268111F0CF72
:1054200004E620E0A70144505B4F6DEF74E08D8DE2
:105430009E8D0E94C15F8111E3CF08EE13E030E042
:1054400020E0A7014F5F5A4F65E075E08D8D9E8D7E
:105450000E94F85F8111D4CF6701F5E8CF1AFEEF03
:10546000DF0A30E020E0A7014D5F5A4F6FE075E0A2
:105470008D8D9E8D0E94F85F8111C2CF560122E171
:10548000A20EB11C04E610E030E020E0A50169E1C5
:1054900075E08D8D9E8D0E94F85F8111B1CF0FEF69
:1054A00013E024E833E0A50161E275E08D8D9E8D67
:1054B0000E94F85F8111A4CF04E610E030E020E004
:1054C000A50169E275E08D8D9E8D0E94F85F8111C6
:1054D00097CF0FEF13E024E833E0A50161E375E017
:1054E0008D8D9E8D0E94F85F81118ACF04EC19E0AA
:1054F00030E020E0A601425F5F4F69E375E08D8DEB
:105500009E8D0E94F85F81117BCF30E020E0A601E4
:10551000405F5F4F63E475E08D8D9E8D0E94F85F64
:1055200081116ECF08E026E0A601435F5F4F6DE476
:1055300075E08D8D9E8D0E94C15F811161CF02E368
:1055400021E0A601445E5F4F64E575E08D8D9E8D80
:105550000E94C15F811154CF08E221E0A601435EA1
:105560005F4F69E575E08D8D9E8D0E94C15F811151
:1055700047CF04E620E0A7014A5F5A4F6EE575E089
:105580008D8D9E8D0E94C15F81113ACF8D8D9E8D34
:105590009B8F8A8F65E675E0CE014A960E94EA25C8
:1055A000682E882359F1BE01665E7F4F8A8D9B8DE0
:1055B0000E94FD0EEA8DFB8D208121111FC06D32EE
:1055C00031E073078105910578F0611542EC7407AD
:1055D00041E08407910568F4F701E95FFA4F6083C1
:1055E000718382839383EBC16CE271E080E090E091
:1055F000F3CF60E072EC81E090E0EECF0FEF20E0BF
:10560000A701455E5A4F6EE675E08D8D9E8D0E9416
:10561000C15F8111F5CE20E0A701445E5A4F68E7D3
:1056200075E08D8D9E8D0E94C15F8111E9CEA6012E
:10563000465E5F4F08EB1BE028EE33E060E875E064
:105640008D8D9E8D0E94F85F8111DACE00E520E0FD
:10565000A701405E5A4F65E875E08D8D9E8D0E94D2
:10566000C15F8111CDCE20E0A7014F5D5A4F6DE89B
:1056700075E08D8D9E8D0E94C15F8111C1CEA70105
:105680004E5D5A4F6BE079E08D8D9E8D0E94A05F3C
:105690008111B6CEA7014A5D5A4F65E975E08D8D3F
:1056A0009E8D0E94A05F8111ABCEA701465D5A4F2F
:1056B0006EE975E08D8D9E8D0E94A05F8111A0CE58
:1056C000A701425D5A4F68EA75E08D8D9E8D0E945C
:1056D000A05F811195CEA70143505B4F62EB75E04F
:1056E0008D8D9E8D0E94AB6081118ACEA7014250A4
:1056F0005B4F6BEB75E08D8D9E8D0E94AB608111D1
:105700007FCEA70141505B4F62EC75E08D8D9E8D81
:105710000E94AB60811174CEA7014B5F5A4F69ECB8
:1057200075E08D8D9E8D0E94AB60811169CEA701C1
:10573000435E5A4F60ED75E08D8D9E8D0E94AB608B
:1057400081115ECEA701415E5A4F66ED75E08D8DE9
:105750009E8D0E94AB60811153CEA701495B5A4FC9
:105760006EED75E08D8D9E8D0E94AB60811148CEEF
:10577000A7014B5B5A4F68EE75E08D8D9E8D0E94A0
:10578000AB6081113DCEAE01445E5F4F61EF75E0CD
:105790008D8D9E8D0E94AB60811132CE670152ECDF
:1057A000C51A5AEFD50A04E620E0A6016AEF75E0B3
:1057B0008D8D9E8D0E94C15F682E882379F0D60161
:1057C0006C9170E090E080E00E94FC67AB01BC014E
:1057D000C70187569A4F0E942817F1C0AE014F5F4C
:1057E0005F4F65E076E08D8D9E8D0E947C6081111B
:1057F000E6C09E012B5E3F4FAE014F5F5F4F65E0FD
:1058000076E08D8D9E8D0E9436608111D8C0AE01EC
:105810004F5F5F4F6EE076E08D8D9E8D0E947C60C5
:105820008111CDC09E012B5E3F4FAE014F5F5F4F98
:105830006EE076E08D8D9E8D0E9436608111BFC036
:1058400008E611E030E020E0A7014C5C5A4F68E127
:1058500076E08D8D9E8D0E94F85F8111B0C005E0CD
:1058600021E0A7014A5C5A4F62E276E08D8D9E8D61
:105870000E94C15F8111A3C05701B9ECAB1ABAEF06
:10588000BB0A0FEF21E0A5016CE276E08D8D9E8DC5
:105890000E94C15F8111B4CD6701E8ECCE1AEAEF36
:1058A000DE0A21E0A60169E376E08D8D9E8D0E94DF
:1058B000C15F8111A5CD21E0A50166E476E08D8D63
:1058C0009E8D0E94C15F81119BCD21E0A60163E501
:1058D00076E08D8D9E8D0E94C15F811191CD04EB8C
:1058E00021E0A701455C5A4F60E676E08D8D9E8DE4
:1058F0000E94C15F811184CD21E0A701445C5A4F11
:105900006BE676E08D8D9E8D0E94C15F811178CD12
:1059100004E121E0A701435C5A4F66E776E08D8DF4
:105920009E8D0E94C15F81116BCD04E621E0A7012D
:10593000415C5A4F61E876E08D8D9E8D0E94C15F7B
:1059400081115ECDA701405C5A4F21E060E976E00D
:105950008D8D9E8D0E94C15F811152CD6FE976E0E1
:105960008D8D9E8D0E94B570009749F5FC011995AB
:10597000BAC9CD0101969E8F8D8FBE01635E7F4FA8
:105980000E94FD0E8CE08C9DF0018D9DF00D112488
:10599000E00FF11F67A3AD8DBE8D8C918C3209F0A5
:1059A000C9C911968C911197833709F0C1C911A605
:1059B0008C91811198C9F70180818F5F8083862D3A
:1059C0006E960FB6F894DEBF0FBECDBFDF91CF91BC
:1059D0001F910F91FF90EF90DF90CF90BF90AF900D
:1059E0009F908F907F906F905F904F903F902F90FF
:1059F00008951196BE8FAD8F6701B6E0CB1ABBEF4D
:105A0000DB0AD601EC91E93008F0E9E0B8E0EB9F61
:105A100050011124870105581E4FC5018A519E4F20
:105A2000800F911F0E946D2248018A0C9B1CF4017B
:105A3000EA51FE4F80819181A281B381892B8A2B0B
:105A40008B2B09F46ACAAE014B5E5F4F85E0FA0109
:105A500011928A95E9F7BE01665E7F4F8D8D9E8D0E
:105A60000E942F0F882309F458CA2A8D223008F487
:105A700054CAF501E651FE4FE00FF11F94E0DF013B
:105A80001D929A95E9F79D89F401E651FE4F9083A6
:105A9000933009F48DCC08F01CCC913009F432CC51
:105AA000923009F470CCF801EA0DFB1DE651FE4F6F
:105AB000108252CCDC011296ED91FC91808591858B
:105AC0006A3011F06D3081F48E0F9F1FDC011A9641
:105AD0001C92118610868285882389F0BF01665F3B
